H027067651000155N00000420140228112441NPSOCIDADE EDUCACIONAL DO ESPIRITO SANTO            00103300100010000000000000AV COMISSARIO JOSE DANTAS DE MELO                 000021                    BOA VISTA II        VILA VELHA          ES291029020027212227000000000000000000000000                                                                     000000000000000000000000000000                                                                                                                                                                                                                                                                                                                                                                                                                                                                                                                                                                                                                                                  
DAEFABNER HERBST NEVES                                10402361709S000001203157600000000SSP     198710261M110000273039544400000000000097770441ABNERHN@HOTMAIL.COM         RUA JOSE DE ALENCAR                               000606               BOA VISTA                     VILA VELHA                    ES29102770BRASIL              0000002013551510000020135515102706765100015500100000201355151000000201355151ABNER HERBST NEVES                                                                                                                                                                                                                                                                                                                                                                                                                                                               1                                                   00000000                                                                     
DAEFALESSANDER T D JUNIOR                             10932558704S000001330875400000000SSP     199505281M110000273299223300000000000096949455ALESSANDERTRANCOSO@HOTMAIL.CAV ESTUDANTE JOSE JULIO DE SOUZA                  002200               PRAIA DE ITAPARICA            VILA VELHA                    ES29102010BRASIL              0000002014591950000020145919502706765100015500100000201459195000000201459195ALESSANDER TRANCOSO DANIEL JuNIOR                                                                                                                                                                                                                                                                                                                                                                                                                                                1                                                   00000000                                                                     
DIEFALESSANDRA PINHEIRO                               01537888609S011295050609900000000SSP     198601291F110000273041616100000000000000000000LOGISTICA.AP@HOTMAIL.COM    RUA JUNDIAI                                       000403               ALVORADA                      VILA VELHA                    ES29100000BRASIL              0000002014616340000020146163402706765100015500100000201461634000000201461634ALESSANDRA PINHEIRO                                                                                                                                                                                                                                                                                                                                                                                                                                                              1                                                   00000000                                                                     
DAEFALEX PEREIRA DOS REIS                             05548197754S000001144159000000000SSP     198203271M210000279297007300000000000092970073LEKOLIVE@HOTMAIL.COM        RUA MOEMA                                         000158               DIVINO ESPIRITO SANTO         VILA VELHA                    ES29107250BRASIL              0000002014592590000020145925902706765100015500100000201459259000000201459259ALEX PEREIRA DOS REIS                                                                                                                                                                                                                                                                                                                                                                                                                                                            1                                                   00000000                                                                     
DIEFALEXYA M T MEDEIROS                               12810528764S000001331330500000000SSP     199410061F110000273329698400000000000092774180ALEXYATONISMEDIS@HOTMAIL.COMRUA HUMBERTO SERRANO                              000280               PRAIA DA COSTA                VILA VELHA                    ES29101460BRASIL              0000002014615440000020146154402706765100015500100000201461544000000201461544ALEXYA MARA TONINI MEDEIROS                                                                                                                                                                                                                                                                                                                                                                                                                                                      1                                                   00000000                                                                     
DAEFALICE BRUM CUNHA                                  12756828718S000001322170500000000SSP     198911081F210000273063112900000000000000000000ALICE.BRUMCUNHA@HOTMAIL.COM AV SATURNINO RANGEL MAURO                         000300               PRAIA DE ITAPARICA            VILA VELHA                    ES29102930BRASIL              0000002014610670000020146106702706765100015500100000201461067000000201461067ALICE BRUM CUNHA                                                                                                                                                                                                                                                                                                                                                                                                                                                                 1                                                   00000000                                                                     
DAEFALINE ROSA CONSTANTINO                            13891462786S000001304031200000000SSP     199007231F110000273391596700000000000097774433ALIINE.ROSA@HOTMAIL.COM     RUA ROSA AMARELA                                  000620               NOVO MEXICO                   VILA VELHA                    ES29104020BRASIL              0000002014599000000020145990002706765100015500100000201459900000000201459900ALINE ROSA CONSTANTINO                                                                                                                                                                                                                                                                                                                                                                                                                                                           1                                                   00000000                                                                     
DAEFALINE SCHUBERT DE SOUZA                           05894411750S000001214995700000000SSP     198803041F110000273289997000000000000997438017ALINESCHUBERT1@GMAIL.COM    RUA JORGE MAJESTADE                               000145               NOVO MEXICO                   VILA VELHA                    ES29104060BRASIL              0000002014611150000020146111502706765100015500100000201461115000000201461115ALINE SCHUBERT DE SOUZA                                                                                                                                                                                                                                                                                                                                                                                                                                                          1                                                   00000000                                                                     
DIEFANTONIO R WENDHAUSEN                              11317372700S000001212871100000000SSP     198612151M210000273329913200000000000092486228RODOLFOELETRO@HOTMAIL.COM   RUA JOAO WALTER DOS SANTOS                        000059               PRAIA DAS GAIVOTAS            VILA VELHA                    ES29102585BRASIL              0000002014608710000020146087102706765100015500100000201460871000000201460871ANToNIO RODOLFO WENDHAUSEN                                                                                                                                                                                                                                                                                                                                                                                                                                                       1                                                   00000000                                                                     
DAEFARTHUR BREDA NUNES                                15933361798S000001355547800000000SSP     199602021M110000273062869200000000000097363736ARTHUR22BN@HOTMAIL.COM      RUA ORMINDA MACHADO DUARTE EDFMEAIPE              000240               PARQUE DAS GAIVTOAS           VILA VELHA                    ES29102568BRASIL              0000002014596190000020145961902706765100015500100000201459619000000201459619ARTHUR BREDA NUNES                                                                                                                                                                                                                                                                                                                                                                                                                                                               1                                                   00000000                                                                     
DAEFBRENNO GUALTIERI DE SOUSA                         14777230724S000001330186000000000SSP     199406211M210000279910825500000000000992361031BRENNO_GUALTIERI@HOTMAIL.COMALAMEDA T                                         000012               INTERLAGOS                    VILA VELHA                    ES29100000BRASIL              0000002014611230000020146112302706765100015500100000201461123000000201461123BRENNO GUALTIERI DE SOUSA                                                                                                                                                                                                                                                                                                                                                                                                                                                        1                                                   00000000                                                                     
DIEFBRENO RANGEL SILVEIRA                             15114532731S000001337494600000000SSP     199402171M110000278142701700000000000000000000BRENOSIVEIRA1@GMAIL.COM     RUA JOAO JOAQUIM DA MOTA                          000328               PRAIA DA COSTA                VILA VELHA                    ES29101200BRASIL              0000002014613310000020146133102706765100015500100000201461331000000201461331BRENO RANGEL SILVEIRA                                                                                                                                                                                                                                                                                                                                                                                                                                                            1                                                   00000000                                                                     
DAEFBRUNA R L D F                                     14241859712S000013000404100000000SSP     199406081F110000273339667000000000000097964165BRUNARENATA94@GMAILL.COM    RUA CRISANTEMO                                    000030               BRISAMAR                      VILA VELHA                    ES29104750BRASIL              0000002014597890000020145978902706765100015500100000201459789000000201459789BRUNA RENATA LEMOS DE FREITAS                                                                                                                                                                                                                                                                                                                                                                                                                                                    1                                                   00000000                                                                     
DAEFBRUNA RIBEIRO FIEN                                10698754735S000001199859100000000SSP     198601011F210000270000000000000000000092674130BRUNAFIENI@GMAIL.COM        RUA VINTE E SETE                                  000002               VILA NOVA                     VILA VELHA                    ES29105470BRASIL              0000002014613240000020146132402706765100015500100000201461324000000201461324BRUNA RIBEIRO FIEN                                                                                                                                                                                                                                                                                                                                                                                                                                                               1                                                   00000000                                                                     
DAEFBRUNA TOMAZ OLIVEIRA                              12886738760S000001301433700000000SSP     199512191F110000273349293800000000000998634344BRUNA.TOMAZ.OLIVEIRA@HOTMAILRUA GARDENIA                                      000213               JARDIM ASTECA                 VILA VELHA                    ES29104510BRASIL              0000002014601740000020146017402706765100015500100000201460174000000201460174BRUNA TOMAZ OLIVEIRA                                                                                                                                                                                                                                                                                                                                                                                                                                                             1                                                   00000000                                                                     
DAEFBRUNA V SUCUPIRA                                  15484551722S000001343472400000000SSP     199607121F110000273349268700000000000099306931BRSUCUPIRA@GMAIL.COM        RUA 28                                            000005               VILA NOVA                     VILA VELHA                    ES29105163BRASIL              0000002014599770000020145997702706765100015500100000201459977000000201459977BRUNA VASCONCELOS SUCUPIRA                                                                                                                                                                                                                                                                                                                                                                                                                                                       1                                                   00000000                                                                     
DAEFBRUNO LORENZONI RUY                               13523526728S000001223972600000000SSP     199205181M110000273299239100000000000999109696BRUNO.RUY@HOTMAIL.COM       RUA DESEMBARGADOR AUGUSTO BOTELHO                 000610               PRAIA DA COSTA                VILA VELHA                    ES29101110BRASIL              0000002014601560000020146015602706765100015500100000201460156000000201460156BRUNO LORENZONI RUY                                                                                                                                                                                                                                                                                                                                                                                                                                                              1                                                   00000000                                                                     
DAEFBRUNO P R L CALASANS                              11092655735S000001349850400000000SSP     199606071M110000273329974600000000000098668276BRUNOPRLCALASANS@HOTMAIL.COMRUA MARIA AMALIA - 716                            000716               ILHA DOS AIRES                VILA VELHA                    ES29106685BRASIL              0000002014607450000020146074502706765100015500100000201460745000000201460745BRUNO POLTRONIERI RIBEIRO LACERDA CALASANS                                                                                                                                                                                                                                                                                                                                                                                                                                       1                                                   00000000                                                                     
DIEFCAMILA LOSS                                       14684692744S000001330745900000000SSP     199505101F210000273013734500000000000999486585LOSS.CAMILA@HOTMAIL.COM     RUA ALMIRANTE TAMANDARE                           000083               SOTECO                        VILA VELHA                    ES29106220BRASIL              0000002014616030000020146160302706765100015500100000201461603000000201461603CAMILA LOSS                                                                                                                                                                                                                                                                                                                                                                                                                                                                      1                                                   00000000                                                                     
DAEFCARLOS A R RIBEIRO                                11962297756S000001213273500000000SSP     198808301M110000273361389000000000000998793008CARLOS_ROCHARR@HOTMAIL.COM  RUA ANTONIO GERMANO DA SILVA                      000341               ITAPEBUSSU                    GUARAPARI                     ES29210170BRASIL              0000002014609570000020146095702706765100015500100000201460957000000201460957CARLOS AUGUSTO ROCHA RIBEIRO                                                                                                                                                                                                                                                                                                                                                                                                                                                     1                                                   00000000                                                                     
DAEFCAROLINE OLIVEIRA DUARTE                          14537722789S000001333525800000000SSP     199306061F210000273219848700000000000997820449CAROL.DUARTE06@HOTMAIL.COM  RUA DR CECILIANO ABEL DE ALMEIDA                  001195               GUARANHUNS                    VILA VELHA                    ES29103620BRASIL              0000002014612280000020146122802706765100015500100000201461228000000201461228CAROLINE OLIVEIRA DUARTE                                                                                                                                                                                                                                                                                                                                                                                                                                                         1                                                   00000000                                                                     
DAEFCRISTIANO A BREMENKAMP                            16302396743S000001358153000000000SSP     199610151M110000279976074900000000000000000000CRISTIANO_BREMENKAMP@OUTLOOK.MRUA BIRIRICAS DE CIMA                           000000               ZONA RURAL                    DOMINGOS MARTINS              ES29260000BRASIL              0000002014610360000020146103602706765100015500100000201461036000000201461036CRISTIANO ASDRUBAL BREMENKAMP                                                                                                                                                                                                                                                                                                                                                                                                                                                    1                                                   00000000                                                                     
DAEFDAIANNA ROCHA BORGES                              14434358723S000001308022400000000SSP     199107251F210000273244815200000000000998883827DAIANNARBORGES.DRB@GMAIL.COMRUA MAXIMILIANO FERRARI                           000038               ULISSES GUIMARAES             VILA VELHA                    ES29124236BRASIL              0000002014590100000020145901002706765100015500100000201459010000000201459010DAIANNA ROCHA BORGES                                                                                                                                                                                                                                                                                                                                                                                                                                                             1                                                   00000000                                                                     
DAEFDAVI N T D CARVALHO                               13275669745S000001333364700000000SSP     199505151M110000273239446500000000000992474629DAVINILOTX@GMAIL.COM        RUA ARARIBOIA                                     000010               CENTRO                        VILA VELHA                    ES29100340BRASIL              0000002014608160000020146081602706765100015500100000201460816000000201460816DAVI NILO TEIXEIRA DE CARVALHO                                                                                                                                                                                                                                                                                                                                                                                                                                                   1                                                   00000000                                                                     
DAEFDAVI ROEPKE VIANA                                 12590475713S000001189495600000000SSP     198901281M210000273223653400000000000000000000DAVIVIANA@HOTMAIL.COM       RUA PERNAMBUCO                                    000120               PRAIA DA COSTA                VILA VELHA                    ES29101335BRASIL              0000002014614500000020146145002706765100015500100000201461450000000201461450DAVI ROEPKE VIANA                                                                                                                                                                                                                                                                                                                                                                                                                                                                1                                                   00000000                                                                     
DAEFDIEGO INACIO SILVA PINTO                          11066236739S000001221124900000000SSP     198703061M110000273075266500000000000998530489INACIO_DIEGO@HOTMAIL.COM    RUA AMERICO BERNARDES                             000356               VILA BATISTA                  VILA VELHA                    ES29116150BRASIL              0000002014611290000020146112902706765100015500100000201461129000000201461129DIEGO INACIO SILVA PINTO                                                                                                                                                                                                                                                                                                                                                                                                                                                         1                                                   00000000                                                                     
DAEFDIEGO MARQUES BIANCHI                             14853308741S000001331553600000000SSP     199603041M110000279823516900000000000030639135DBIANCHI@BENEVIX.COM.BR     RUA TOBIAS BARRETO                                000705               BOA VISTA 2                   VILA VELHA                    ES29107354BRASIL              0000002014599680000020145996802706765100015500100000201459968000000201459968DIEGO MARQUES BIANCHI                                                                                                                                                                                                                                                                                                                                                                                                                                                            1                                                   00000000                                                                     
DIEFDYANNA L S D OLIVEIRA                             13270102755S000001311215000000000SSP     199104171F210000273299575300000000000081229912DYANNALOPES@HOTMAIL.COM     RUA JOAO JOAQUIM DA MOTA                          000328               PRAIA DA COSTA                VILA VELHA                    ES29101200BRASIL              0000002014616070000020146160702706765100015500100000201461607000000201461607DYANNA LOPES SANTOS DE OLIVEIRA                                                                                                                                                                                                                                                                                                                                                                                                                                                  1                                                   00000000                                                                     
DAEFEDLA K O SANTOS                                   14235908723S000001322494700000000SSP     199404261F110000273316070100000000000996333164EKAROLINYOS@GMAIL.COM       RUA CAJAMAR                                       000542               JARDIM MARILANDIA             VILA VELHA                    ES29112200BRASIL              0000002014592050000020145920502706765100015500100000201459205000000201459205EDLA KAROLINY OLIVEIRA SANTOS                                                                                                                                                                                                                                                                                                                                                                                                                                                    1                                                   00000000                                                                     
DAEFEDUARDA D S L BARBOSA                             14580207700S000001338114500000000SSP     199508151F210000273063603200000000000098437287DUDA.SLB@HOTMAIL.COM        RUA ATAULFO ALVES                                 000112               ARIBIRI                       VILA VELHA                    ES20120100BRASIL              0000002014593240000020145932402706765100015500100000201459324000000201459324EDUARDA DE SOUZA LACERDA BARBOSA                                                                                                                                                                                                                                                                                                                                                                                                                                                 1                                                   00000000                                                                     
DIEFELAINE P V NEVES                                  08882818705S000001301572800000000SSP     198111021F210000273421459700000000000097500393ELAINE.P.VIANA@GMAIL.COM    AV FERNANDO ANTONIO DA SILVEIRA                   000182               SANTA RITA                    VILA VELHA                    ES29118450BRASIL              0000002014614810000020146148102706765100015500100000201461481000000201461481ELAINE PINHEIRO VIANA NEVES                                                                                                                                                                                                                                                                                                                                                                                                                                                      1                                                   00000000                                                                     
DAEFERIKA C S C MARQUES                               08917071740S000112563101000000000SSP     198103011F210000273055187400000000000988353283IMOBILIARIAPEDROMARQUES@GMAICOMRUA ORMINDA MACHADO DUARTE                     000105               GAIVOTAS                      VILA VELHA                    ES29102568BRASIL              0000002014599320000020145993202706765100015500100000201459932000000201459932ERIKA CRISTINA SILVA COELHO MARQUES                                                                                                                                                                                                                                                                                                                                                                                                                                              1                                                   00000000                                                                     
DAEFFABIO VITOR VENTURINI                             10303131721S000001186147700000000SSP     198410051M110000273289206400000000000099636257FABIOVITOR84@GMAIL.COM      RUA BENEDITO DAS NEVES                            000184               SANTA INES                    VILA VELHA                    ES29108031BRASIL              0000002014592430000020145924302706765100015500100000201459243000000201459243FaBIO VITOR VENTURINI                                                                                                                                                                                                                                                                                                                                                                                                                                                            1                                                   00000000                                                                     
DIEFFELIPE D H ALENCAR                                14389871706S000001308940300000000SSP     199209251M210000273329218400000000000099469480FELIPE.HOLLANDA@HOTMAIL.COM RUA SAO PAULO                                     002100               PRAIA DA COSTA                VILA VELHA                    ES29101300BRASIL              0000002014592770000020145927702706765100015500100000201459277000000201459277FELIPE DE HOLLANDA ALENCAR                                                                                                                                                                                                                                                                                                                                                                                                                                                       1                                                   00000000                                                                     
DIEFFELIPE MARCIANO DE SOUZA                          14719580785S000001329017300000000SSP     199403011M210000273359201200000000000000000000FILIPEMARCIANODESOUZA@GMAIL.MRUA LEOPOLDINA                                   000534               SAO TORQUATO                  VILA VELHA                    ES29114230BRASIL              0000002014617760000020146177602706765100015500100000201461776000000201461776FELIPE MARCIANO DE SOUZA                                                                                                                                                                                                                                                                                                                                                                                                                                                         1                                                   00000000                                                                     
DAEFFELIPE PORTILHO SOARES                            04608568124S000141483004000000000SSP     199401161M210000278161181700000000000000000000FELIPEPORTILHO@BOL.COM.BR   RUA SANTA CATARINA                                000255               PRAIA DE ITAPOA               VILA VELHA                    ES29101545BRASIL              0000002014608110000020146081102706765100015500100000201460811000000201460811FELIPE PORTILHO SOARES                                                                                                                                                                                                                                                                                                                                                                                                                                                           1                                                   00000000                                                                     
DIEFGABRIEL A C D SOUZA                               14293746757S000001310112900000000SSP     199307241M110000273229704200000000000009981500GADAME02@GMAIL.COM          AV ANTONIO GIL VELOSO                             000977               PRAIA DA COSTA                VILA VELHA                    ES29101010BRASIL              0000002014616090000020146160902706765100015500100000201461609000000201461609GABRIEL ADAME CARVALHO DE SOUZA                                                                                                                                                                                                                                                                                                                                                                                                                                                  1                                                   00000000                                                                     
DAEFGABRIEL EFFIGEN PEREIRA                           13884516701S000001347250500000000SSP     199502171M210000273229624600000000000097059405ROCKBIEL66@HOTMAIL.COM      RUA CRISTOVAO COLOMBO                             000730               CRISTOVAO COLOMBO             VILA VELHA                    ES91065595BRASIL              0000002014604350000020146043502706765100015500100000201460435000000201460435GABRIEL EFFIGEN PEREIRA                                                                                                                                                                                                                                                                                                                                                                                                                                                          1                                                   00000000                                                                     
DAEFGABRIEL GARCIA DA CUNHA                           11742660746S000001373637800000000SSP     199512171M110000272730738800000000000000000000GABRIIELPL@HOTMAIL.COM      RUA RIO BRANCO                                    000208               PRAIA DA COSTA                VILA VELHA                    ES29101130BRASIL              0000002014610620000020146106202706765100015500100000201461062000000201461062GABRIEL GARCIA DA CUNHA                                                                                                                                                                                                                                                                                                                                                                                                                                                          1                                                   00000000                                                                     
DIEFGABRIEL LYRA VIEIRA                               14288425786S000001318874000000000SSP     199606121M210000273340280800000000000999040740GABRIELLV_1@HOTMAIL.COM     RUA ITAPEBA                                       000025               PRAIA DE ITAPARICA            VILA VELHA                    ES29102240BRASIL              0000002014594680000020145946802706765100015500100000201459468000000201459468GABRIEL LYRA VIEIRA                                                                                                                                                                                                                                                                                                                                                                                                                                                              1                                                   00000000                                                                     
DAEFGABRIELA F D OLIVEIRA                             14469478741S000001324679000000000SSP     199402181F110000279957049400000000000000000000GABRIELA_OI@HOTMAIL.COM     RUA ROSA BRANCA                                   000010               NOVO MEXICO                   VILA VELHA                    ES29104180BRASIL              0000002014606140000020146061402706765100015500100000201460614000000201460614GABRIELA FIGUEREDO DE OLIVEIRA                                                                                                                                                                                                                                                                                                                                                                                                                                                   1                                                   00000000                                                                     
DIEFGABRIELA PEREIRA SILVA                            12832166717S000001228813500000000SSP     199604091F210000273339712400000000000097560826GABRIELAP78@GMAIL.COM       RUA DOS LARANJAIS                                 000006               ILHA DOS BENTOS               VILA VELHA                    ES29104350BRASIL              0000002014606590000020146065902706765100015500100000201460659000000201460659GABRIELA PEREIRA SILVA                                                                                                                                                                                                                                                                                                                                                                                                                                                           1                                                   00000000                                                                     
DIEFGABRIELA P C                                      13448368792S000001302808800000000SSP     199107131F210000273208290300000000000092719038GAB_CASSALI@HOTMAIL.COM     R RIO BRANCO                                      000208               PRAIA DA COSTA                VILA VELHA                    ES29101130BRASIL              0000002014616610000020146166102706765100015500100000201461661000000201461661GABRIELA PIMENTEL CASSALI                                                                                                                                                                                                                                                                                                                                                                                                                                                        1                                                   00000000                                                                     
DAEFGABRIELI SARTORI                                  15744279709S000001315404000000000SSP     199406281F110000273389366000000000000998882806GABI.SARTORII@HOTMAIL.COM   AV ESTUDANTE JOSE JULIO DE SOUZA                  002800               PRAIA DE ITAPARICA            VILA VELHA                    ES29102010BRASIL              0000002014600530000020146005302706765100015500100000201460053000000201460053GABRIELI SARTORI                                                                                                                                                                                                                                                                                                                                                                                                                                                                 1                                                   00000000                                                                     
DAEFGABRIELLA B D S GUISSO                            11492116793S000001193569900000000SSP     198705221F210000273075350200000000000998046563GABRIELLABELLUCIO@GMAIL.COM RUA DR MARIO RIBERIO                              000007               ILHA DAS FLORES               VILA VELHA                    ES29115000BRASIL              0000002014613360000020146133602706765100015500100000201461336000000201461336GABRIELLA BELLUCIO DA SILVA GUISSO                                                                                                                                                                                                                                                                                                                                                                                                                                               1                                                   00000000                                                                     
DAEFGIDEAO MACHADO DUARTE                             11637635605S000000000001000000000SSP     199207091M110000273031313700000000000999680071MACHADOGIDEAO@GMAIL.COM     RUA HUMBERTO LORENZETTI                           000115               NOSSA SENHORA DA PENHA        VILA VELHA                    ES29110180BRASIL              0000002014607310000020146073102706765100015500100000201460731000000201460731GIDEaO MACHADO DUARTE                                                                                                                                                                                                                                                                                                                                                                                                                                                            1                                                   00000000                                                                     
DIEFGISELY DA SILVA VIEIRA                            15498567740S000001342986600000000SSP     199607011F210000273516952100000000000993066960GISELY-SV@HOTMAIL.COM       GUARAPARI                                         000030               VISTA LINDA                   CARIACICA                     ES29141358BRASIL              0000002014617520000020146175202706765100015500100000201461752000000201461752GISELY DA SILVA VIEIRA                                                                                                                                                                                                                                                                                                                                                                                                                                                           1                                                   00000000                                                                     
DIEFGISLAINE MONICA DA SILVA                          11860173683S000011873786800000000SSP     199309121F110000273082036900000000000995020594GISLAINEMONICA.GM@HOTMAIL.COTRAVESSA JARDIM PIO X                             000296               ARIBIRI                       VILA VELHA                    ES29120135BRASIL              0000002014591760000020145917602706765100015500100000201459176000000201459176GISLAINE MONICA DA SILVA                                                                                                                                                                                                                                                                                                                                                                                                                                                         1                                                   00000000                                                                     
DIEFGLEIZIELLY L D SILVA                              13009429754S000001224724000000000SSP     199104041F210000273229735700000000000988523822GLEIZIELLY_LS@HOTMAIL.COM   RUA TIRADENTES                                    000210               BRISAMAR                      VILA VELHA                    ES29104755BRASIL              0000002014617640000020146176402706765100015500100000201461764000000201461764GLEIZIELLY LOUREIRO DA SILVA                                                                                                                                                                                                                                                                                                                                                                                                                                                     1                                                   00000000                                                                     
DAEFGUILHERME A D O ALVES                             13451655799S000001230166200000000SSP     199009211M210000273314403400000000000098357002ALVES.IT@GMAIL.COM          AV RUY BRAGA RIBEIRO                              000949               SANTA INES                    VILA VELHA                    ES29108041BRASIL              0000002014612580000020146125802706765100015500100000201461258000000201461258GUILHERME AUGUSTO DE OLIVEIRA ALVES                                                                                                                                                                                                                                                                                                                                                                                                                                              1                                                   00000000                                                                     
DIEFGUSTAVO ANECHINNO ABREU                           05752576792S000110082355800000000SSP     199209011M210000273229686700000000000098466421GANECK@HOTMAIL.COM          RUA PEDRO PALACIOS                                000044               CENTRO                        VILA VELHA                    ES29100190BRASIL              0000002014614830000020146148302706765100015500100000201461483000000201461483GUSTAVO ANECHINNO ABREU                                                                                                                                                                                                                                                                                                                                                                                                                                                          1                                                   00000000                                                                     
DAEFGUSTAVO A R SIQUEIRA                              14047441775S000130229279900000000SSP     199404231M210000273219366300000000000000000000GUSTAVO_FORCAJOVEM@HOTMAIL.CRUA JOSE DE ALENCAR                               000120               ATAIDE                        VILA VELHA                    ES29119340BRASIL              0000002014608550000020146085502706765100015500100000201460855000000201460855GUSTAVO AUGUSTO ROCON SIQUEIRA                                                                                                                                                                                                                                                                                                                                                                                                                                                   1                                                   00000000                                                                     
DAEFGUSTAVO SOUZA TRIGO LOPES                         14212060728S000001350181200000000SSP     199408271M210000273329327900000000000992282317GUSTAVINHOFC@HOTMAIL.COM    ANESIO ALVARENGA                                  000285               PRAIA DA COSTA                VILA VELHA                    ES29101230BRASIL              0000002014610810000020146108102706765100015500100000201461081000000201461081GUSTAVO SOUZA TRIGO LOPES                                                                                                                                                                                                                                                                                                                                                                                                                                                        1                                                   00000000                                                                     
DAEFHENRIQUE MENEZES COUTINHO                         07430536646S000011467910000000000SSP     199209101M110000273208348100000000000999525065HENRIQUECOUTINHO92@HOTMAIL.CRUA DA AMEIXEIRA                                  000017               PRAIA DE ITAPOA               VILA VELHA                    ES29101751BRASIL              0000002014614000000020146140002706765100015500100000201461400000000201461400HENRIQUE MENEZES COUTINHO                                                                                                                                                                                                                                                                                                                                                                                                                                                        1                                                   00000000                                                                     
DIEFHICARO D N G D SA                                 14000177770S000011633136500000000SSP     199204011F210000273032675500000000000099565082HICARONGS@GMAIL.COM         RUA MONTE SINAI                                   000175               VALE ENCANTADO                VILA VELHA                    ES29113240BRASIL              0000002014604940000020146049402706765100015500100000201460494000000201460494HICARO DO NASCIMENTO GONYALVES DE Sa                                                                                                                                                                                                                                                                                                                                                                                                                                             1                                                   00000000                                                                     
DAEFHORTENCIA L V D ALCANTARA                         13404257774S000001301800000000000SSP     199204111F210000270000000000000000000999294246LEH_BREMER@HOTMAIL.COM      RUA ESMERALDA                                     000360               SAO GERALDO                   CARIACICA                     ES29146721BRASIL              0000002014611070000020146110702706765100015500100000201461107000000201461107HORTENCIA LETICIA VENANCIO DE ALCANTARA                                                                                                                                                                                                                                                                                                                                                                                                                                          1                                                   00000000                                                                     
DAEFIGOR AVELAR MOZINE                                14373965773S000001367967700000000SSP     199510071M210000273389113700000000000992965000MOZINEMARCELO@IG.COM.BR     RUA ALECRIM                                       000133               NOVO MEXICO                   VILA VELHA                    ES29104100BRASIL              0000002014594820000020145948202706765100015500100000201459482000000201459482IGOR AVELAR MOZINE                                                                                                                                                                                                                                                                                                                                                                                                                                                               1                                                   00000000                                                                     
DAEFIGOR PESSOA DAMASCENO                             098717219S00000012469731100000000SSP     199601061M210000279752814200000000002798010696IGOR96_SD@HOTMAIL.COM       RUA GOIANIA 100                                   000033               ITAPOA                        VILA VELHA                    ES29101780BRASIL              0000002014594450000020145944502706765100015500100000201459445000000201459445IGOR PESSOA DAMASCENO                                                                                                                                                                                                                                                                                                                                                                                                                                                            1                                                   00000000                                                                     
DAEFJEANE G C D ALMEIDA                               14424840719S000001336872200000000SSP     199509031F110000273063132300000000000096346761JE.GREG.ALMEIDA@GMAIL.COM   RUA QUATRO                                        000054               SANTA MONICA                  VILA VELHA                    ES91052240BRASIL              0000002014598380000020145983802706765100015500100000201459838000000201459838JEANE GREGoRIO CALDEIRA DE ALMEIDA                                                                                                                                                                                                                                                                                                                                                                                                                                               1                                                   00000000                                                                     
DAEFJESSICA L D S CRISTO                              02503324185S000001556573600000000SSP     199304131F110000273062722000000000000999139943JESSICA.LSC@GMAIL.COM       RUA QUATRO                                        000010               COCAL                         VILA VELHA                    ES29126325BRASIL              0000002014604580000020146045802706765100015500100000201460458000000201460458JESSICA LEITE DE SIQUEIRA CRISTO                                                                                                                                                                                                                                                                                                                                                                                                                                                 1                                                   00000000                                                                     
DAEFJESSIKA R M D CASTRO                              14231826773S000001322644400000000SSP     199110231F110000273061582100000000000998729116JESSIKARMCASTRO@HOTMAIL.COM CONJUNTO COQUEIRAL DE ITAPARICA (QUINTA ETAPA)    000000               COQUEIRAL DE ITAPARICA        VILA VELHA                    ES29102205BRASIL              0000002014608470000020146084702706765100015500100000201460847000000201460847JESSIKA ROCHA MOREIRA DE CASTRO                                                                                                                                                                                                                                                                                                                                                                                                                                                  1                                                   00000000                                                                     
DAEFJHONATAS RANGEL DA SILVA                          13385813760S000001305580100000000SSP     199201101M210000273359377100000000000096184744JHONATAS_JHN@HOTMAIL.COM    RUA MARIA DO AMOR DIVINO                          000240               PLANALTO                      VILA VELHA                    ES29118420BRASIL              0000002014601750000020146017502706765100015500100000201460175000000201460175JHONATAS RANGEL DA SILVA                                                                                                                                                                                                                                                                                                                                                                                                                                                         1                                                   00000000                                                                     
DIEFJOAO P F D NEVES                                  13757982789S000001309509900000000SSP     199411221M210000273329499800000000000098486126JPBILA@HOTMAIL.COM          AV HUGO MUSSO                                     001554               ITAPOA                        VILA VELHA                    ES29101934BRASIL              0000002014615560000020146155602706765100015500100000201461556000000201461556JOaO PAULO FARIA DAS NEVES                                                                                                                                                                                                                                                                                                                                                                                                                                                       1                                                   00000000                                                                     
DAEFJOICE SILVEIRA VASSOLER                           16957251748S001733060002900000000SSP     199512301F110000283520405500000000000999065258JOYCE_VASSOLER@HOTMAIL.COM  RUA JOAO ROMAO FARIAS                             000004               NITEROI                       PIUMA                         ES29285000BRASIL              0000002014613150000020146131502706765100015500100000201461315000000201461315JOICE SILVEIRA VASSOLER                                                                                                                                                                                                                                                                                                                                                                                                                                                          1                                                   00000000                                                                     
DAEFJULIA V V D MELLO                                 15373758736S000001348276400000000SSP     199603171F110000273319328700000000000088636524JULIA.VOLPI@HOTMAIL.COM     AV SANTA LEOPOLDINA                               000218               COQUEIRAL DE ITAPARICA        VILA VELHA                    ES29102903BRASIL              0000002014599520000020145995202706765100015500100000201459952000000201459952JULIA VOLPI VIEIRA DE MELLO                                                                                                                                                                                                                                                                                                                                                                                                                                                      1                                                   00000000                                                                     
DIEFKALINI MAGALHAES FABIANI                          14004618711S000000000001000000000SSP     199401111F110000273239577900000000000999292425KALINI.MAGALHAES@HOTMAIL.COMAV NOSSA SENHORA DA PENHA                         000009               IBES                          VILA VELHA                    ES29108330BRASIL              0000002014593680000020145936802706765100015500100000201459368000000201459368KALINI MAGALHaES FABIANI                                                                                                                                                                                                                                                                                                                                                                                                                                                         1                                                   00000000                                                                     
DAEFKIZZY PEREIRA ROSA                                13844703799S000001308694600000000SSP     199001311F110000273340123900000000000988543990KYSSY1L@HOTMAIL.COM         RUA ALDA SIQUEIRA MOTA                            000089               CENTRO                        VILA VELHA                    ES29100440BRASIL              0000002014614650000020146146502706765100015500100000201461465000000201461465KIZZY PEREIRA ROSA                                                                                                                                                                                                                                                                                                                                                                                                                                                               1                                                   00000000                                                                     
DAEFKLEYTON N D ROSARIO                               13499665760S000001312283500000000SSP     199205301M210000273289499200000000000000000000KLEYTIIN_@HOTMAIL.COM       RUA GOVERNADOR FLORENTINO AVIDOS                  000173               IBES                          VILA VELHA                    ES29108530BRASIL              0000002014613110000020146131102706765100015500100000201461311000000201461311KLEYTON NASCIMENTO DO ROSARIO                                                                                                                                                                                                                                                                                                                                                                                                                                                    1                                                   00000000                                                                     
DAEFLARA FERREIRA SOARES                              12506898727S000001231805900000000SSP     198905121F210000273289878700000000000098227161LARA.FERREIRAS@GMAIL.COM    RUA MARANHAO                                      000199               PRAIA DA COSTA                VILA VELHA                    ES29101340BRASIL              0000002014606120000020146061202706765100015500100000201460612000000201460612LARA FERREIRA SOARES                                                                                                                                                                                                                                                                                                                                                                                                                                                             1                                                   00000000                                                                     
DAEFLEONARDO F D A SANTOS                             13452646742S001153526726700000000SSP     199208011M110000273208628500000000000097647127LEO_ICM3@HOTMAIL.COM        RUA COPO DE LEITE                                 000330               NOVO MEXICO                   VILA VELHA                    ES29104095BRASIL              0000002014589840000020145898402706765100015500100000201458984000000201458984LEONARDO FRANCISCO DE ARAUJO SANTOS                                                                                                                                                                                                                                                                                                                                                                                                                                              1                                                   00000000                                                                     
DAEFLEONI M BOASQUEVISQUE                             16340351786S000001371882500000000SSP     199604021M110000273349836200000000000998800701LEONI_MONGIN@HOTMAIL.COM    AV DOUTOR OLIVIO LIRA - LADO PAR                  000081               CENTRO                        VILA VELHA                    ES29100450BRASIL              0000002014607630000020146076302706765100015500100000201460763000000201460763LEoNI MONGIN BOASQUEVISQUE                                                                                                                                                                                                                                                                                                                                                                                                                                                       1                                                   00000000                                                                     
DIEFLIANA M G ALMEIDA                                 75014653391S001950040074500000000SSP     196903201F210000273034273900000000000099095592LIANAMARCIA2@HOTMAIL.COM    RUA CAROLINA LEAL                                 000331               JABURUNA                      VILA VELHA                    ES29123220BRASIL              0000002014599180000020145991802706765100015500100000201459918000000201459918LIANA MARCIA GOMES ALMEIDA                                                                                                                                                                                                                                                                                                                                                                                                                                                       1                                                   00000000                                                                     
DAEFLILIAN ROMANHA PEREIRA                            08190863711S000001148441700000000SSP     198005021F210000273063003600000000000999103720LILINHAROMANHA@HOTMAIL.COM  RUA EMANUEL                                       000013               RESID. COQUEIRAL              VILA VELHA                    ES29102843BRASIL              0000002014597110000020145971102706765100015500100000201459711000000201459711LILIAN ROMANHA PEREIRA                                                                                                                                                                                                                                                                                                                                                                                                                                                           1                                                   00000000                                                                     
DAEFLORENA FIALHO CALVI                               14772521771S000001328891000000000SSP     199608021F210000273208673300000000000000000000LORENA@CALVI.COM.BR         RUA SAO PAULO                                     002255               ITAPOA                        VILA VELHA                    ES29101715BRASIL              0000002014611570000020146115702706765100015500100000201461157000000201461157LORENA FIALHO CALVI                                                                                                                                                                                                                                                                                                                                                                                                                                                              1                                                   00000000                                                                     
DIEFLORENNA A B MENDONYA                              16712813735S000001361876600000000SSP     199603071F110000273339191700000000000096213081LORENNA_AVANCINI@HOTMAIL.COMAV SANTA LEOPOLDINA                               000000               PRAIA DE ITAPARICA            VILA VELHA                    ES29102040BRASIL              0000002014604950000020146049502706765100015500100000201460495000000201460495LORENNA AVANCINI BARRETO MENDONYA                                                                                                                                                                                                                                                                                                                                                                                                                                                1                                                   00000000                                                                     
DAEFLUCAS D S C R                                     14595385790S000001327100300000000SSP     199411101M110000279742775900000000000000000000LUCAS-DA-SILVA-CEZAR-REIS@HOAIL.COMRUA AZALEIA                                000169               JARDIM COLORADO               VILA VELHA                    ES29104640BRASIL              0000002014614560000020146145602706765100015500100000201461456000000201461456LUCAS DA SILVA CEZAR REIS                                                                                                                                                                                                                                                                                                                                                                                                                                                        1                                                   00000000                                                                     
DAEFLUCAS ROCHA DE CARVALHO                           12627105701S000001360094500000000SSP     199403071M210000273329384700000000000088052751GIGOLAELUCAS@HOTMAIL.COM    RUA PORTO ALEGRE                                  000784               PRAIA DE ITAPOA               VILA VELHA                    ES29101680BRASIL              0000002014596580000020145965802706765100015500100000201459658000000201459658LUCAS ROCHA DE CARVALHO                                                                                                                                                                                                                                                                                                                                                                                                                                                          1                                                   00000000                                                                     
DIEFLUCIANA R  G FERREIRA                             08924367781S000001173173400000000SSP     198108011F210000273389392600000000000996880998LUCIANA@VIABRASILIMOBILIARIAOMAV CHAMPAGNAT - ATE 620 - LADO PAR              003300               PRAIA DA COSTA                VILA VELHA                    ES29100010BRASIL              0000002014616320000020146163202706765100015500100000201461632000000201461632LUCIANA RANGEL  GAMBINE FERREIRA                                                                                                                                                                                                                                                                                                                                                                                                                                                 1                                                   00000000                                                                     
DAEFLUCIANA TOFFOLI LEMOS LUZ                         10791549658S000011849520500000000SSP     199603201F110000333244155400000000000091340022LUCIANATOFFOLI@OUTLOOK.COM  RUA PEREIRA SETE                                  000171               CENTRO                        GOVERNADOR VALADARES          MG35250000BRASIL              0000002014590230000020145902302706765100015500100000201459023000000201459023LUCIANA TOFFOLI LEMOS LUZ                                                                                                                                                                                                                                                                                                                                                                                                                                                        1                                                   00000000                                                                     
DAEFLUISA DE FREITAS MATOS                            13738171789S000001333508100000000SSP     199506191F210000279939259800000000000279939259LUFREITASMATOS@GMAIL.COM.BR BECO SAO LUIZ                                     000416               ARIBIRI                       VILA VELHA                    ES29120312BRASIL              0000002014593070000020145930702706765100015500100000201459307000000201459307LUISA DE FREITAS MATOS                                                                                                                                                                                                                                                                                                                                                                                                                                                           1                                                   00000000                                                                     
DAEFMACIELLE C S                                      11859686796S000001213526600000000SSP     198812111F210000279760084400000000000000000000MACIELLESOBRINHO@GMAIL.COM  BECO LUCIANO DAS NEVES                            003128               ITAPOA                        VILA VELHA                    ES29100206BRASIL              0000002014612110000020146121102706765100015500100000201461211000000201461211MACIELLE CRISTINE SOBRINHO                                                                                                                                                                                                                                                                                                                                                                                                                                                       1                                                   00000000                                                                     
DAEFMARCIANA D S MOLINAROLI                           12112572741S000001216731100000000SSP     199005171F110000273062305100000000000099251341CIANE_MOLINA@HOTMAIL.COM    RUA DOM AMERICO                                   000277               BARRAMARES                    VILA VELHA                    ES29124323BRASIL              0000002014602520000020146025202706765100015500100000201460252000000201460252MARCIANA DE SOUZA MOLINAROLI                                                                                                                                                                                                                                                                                                                                                                                                                                                     1                                                   00000000                                                                     
DIEFMARIAH TAVARES NETTO                              10979378796S000001347013900000000SSP     199406121F110000273347246300000000000000000000MARIIIIAH2009@HOTMAIL.COM   RUA AURORA DE AGUIAR FERREIRA                     000090               JARDIM CAMBURI                VITORIA                       ES29090915BRASIL              0000002014605340000020146053402706765100015500100000201460534000000201460534MARIAH TAVARES NETTO                                                                                                                                                                                                                                                                                                                                                                                                                                                             1                                                   00000000                                                                     
DAEFMARIANA N S                                       13164820739S000001300177400000000SSP     199504041F210000273319094800000000000096962232MARIANA-NASCIMENTOSANTOS@HOTRUA TENENTE ADILSON                               000054               SOTECO                        VILA VELHA                    ES91062260BRASIL              0000002014591830000020145918302706765100015500100000201459183000000201459183MARIANA NASCIMENTO SANTOS                                                                                                                                                                                                                                                                                                                                                                                                                                                        1                                                   00000000                                                                     
DAEFMARIANNA GAMA OISON                               13996195788S000001330747800000000SSP     199210151F210000279900881900000000000000000000MARIANNAHOYNE@GMAIL.COM     RUA MOACIR AVIDOS                                 000165               PRAIA DO CANTO                VITORIA                       ES29055350BRASIL              0000002014607930000020146079302706765100015500100000201460793000000201460793MARIANNA GAMA OISON                                                                                                                                                                                                                                                                                                                                                                                                                                                              1                                                   00000000                                                                     
DAEFMATEUS ANDRADE GONYALVES                          17037609722S000001337918200000000SSP     199604081M210000273361379900000000000000000000MATEUSAG@HOTMAIL.COM        AV BEIRA MAR                                      000160               PRAIA DO MORRO                GUARAPARI                     ES92007740BRASIL              0000002014593930000020145939302706765100015500100000201459393000000201459393MATEUS ANDRADE GONYALVES                                                                                                                                                                                                                                                                                                                                                                                                                                                         1                                                   00000000                                                                     
DIEFMATHEUS M Q S                                     16750093760S000012111482000000000SSP     199506061M210000273219661400000000000096378336MATHEUSMONTEIRO.1@HOTMAIL.CORUA ANA PESTANA                                   000062               IBES                          VILA VELHA                    ES29108460BRASIL              0000002014614790000020146147902706765100015500100000201461479000000201461479MATHEUS MONTEIRO QUAGGIO SILVA                                                                                                                                                                                                                                                                                                                                                                                                                                                   1                                                   00000000                                                                     
DAEFMATHEUS MUNIZ NOGUEIRINHA                         14632239780S000001328420600000000SSP     199308031M110000273242377400000000000998662423MMNOGUEIRINHA@GMAIL.COM     RUA ALTAIR ROCHA COSTA                            000450               PONTA DA FRUTA                VILA VELHA                    ES29129370BRASIL              0000002014614510000020146145102706765100015500100000201461451000000201461451MATHEUS MUNIZ NOGUEIRINHA                                                                                                                                                                                                                                                                                                                                                                                                                                                        1                                                   00000000                                                                     
DAEFMATHEUS NEVES SACRAMENTO                          16255734722S000001354053400000000SSP     199607061M110000272733398688000000000099106144MN.SACRAMENTO@GMAIL.COM     R ANA NERI 247                                    000247               ARIBIRI                       VILA VELHA                    ES29120630BRASIL              0000002014599240000020145992402706765100015500100000201459924000000201459924MATHEUS NEVES SACRAMENTO                                                                                                                                                                                                                                                                                                                                                                                                                                                         1                                                   00000000                                                                     
DIEFMILENA RIBEIRO RODRIGUES                          15993978708S000001360400200000000SSP     199604191F110000273062552800000000000098226716MILENA_RIBEIRO5@HTOMAIL.COM RUA GONYALVES DIAS                                000301               BOA VISTA                     VILA VELHA                    ES29102740BRASIL              0000002014614770000020146147702706765100015500100000201461477000000201461477MILENA RIBEIRO RODRIGUES                                                                                                                                                                                                                                                                                                                                                                                                                                                         1                                                   00000000                                                                     
DAEFNATALI D A S BALDSON                              05479950754S000001160898200000000SSP     198205141F210000270000000000000000000099031210NABALDSON@HOTMAIL.COM       RUA RIO DE JANEIRO                                000095               JOCKEY DE ITAPARICA           VILA VELHA                    ES29103885BRASIL              0000002014602730000020146027302706765100015500100000201460273000000201460273NATaLI DE ANDRADE SOARES BALDSON                                                                                                                                                                                                                                                                                                                                                                                                                                                 1                                                   00000000                                                                     
DAEFNATHALIA C D REIS                                 02004416637S000011995140700000000SSP     199502101F110000339150924700000000000000000000NATHYREIS12@HOTMAIL.COM     RUA TUIUTI                                        000028               JARDIM GUADALAJARA            VILA VELHA                    ES29109020BRASIL              0000002014611680000020146116802706765100015500100000201461168000000201461168NATHALIA CAROLINA DOS REIS                                                                                                                                                                                                                                                                                                                                                                                                                                                       1                                                   00000000                                                                     
DAEFNATHALIA L IGREJA                                 13465990765S000001184770700000000SSP     199103281F21000027328932100000000000099751100891NATHLI@GMAIL.COM          RUA MARIA AMALIA DE FREITAS CALDEIRAS             000015               SANTOS DUMONT                 VILA VELHA                    ES29109570BRASIL              0000002014593980000020145939802706765100015500100000201459398000000201459398NATHaLIA LORENZUTTI IGREJA                                                                                                                                                                                                                                                                                                                                                                                                                                                       1                                                   00000000                                                                     
DAEFNICOLAS BARBOSA DE LIMA                           15815772739S000001335797500000000SSP     199610201M110000278806805000000000002788757871NICOLAS.BARBOSA96@HOTMAIL.CORUA TOBIAS BARRETO                                000707               BOA VISTA                     VILA VELHA                    ES29102620BRASIL              0000002014594840000020145948402706765100015500100000201459484000000201459484NiCOLAS BARBOSA DE LIMA                                                                                                                                                                                                                                                                                                                                                                                                                                                          1                                                   00000000                                                                     
DIEFRAFAEL PENNA BERTOLI                              14223966731S000001317517100000000SSP     199208131M110000273035414100000000000996872089RAFAEL.BERTOLI@HOTMAIL.COM  AV ANTONIO GIL VELOSO - ATE 11171118              000240               PRAIA DA COSTA                VILA VELHA                    ES29101010BRASIL              0000002014601830000020146018302706765100015500100000201460183000000201460183RAFAEL PENNA BERTOLI                                                                                                                                                                                                                                                                                                                                                                                                                                                             1                                                   00000000                                                                     
DAEFRAQUEL SOARES OLIVEIRA                            09589365604S000011807423100000000SSP     199605171F110000273316879000000000000099105585QUELSOARESO@GMAIL.COM       RUA AUGUSTA CAMPOS                                000488               JARDIM DE ALAH                CARIACICA                     ES29142535BRASIL              0000002014593060000020145930602706765100015500100000201459306000000201459306RAQUEL SOARES OLIVEIRA                                                                                                                                                                                                                                                                                                                                                                                                                                                           1                                                   00000000                                                                     
DIEFRAYANE MARCONI CARNEIRO                           13597921710S000001304128900000000SSP     199104071F210000279983771700000000000000000000LOGISTICA@SALEIOTRANSPORTES.M.BRRUA ESTRELA DALVA                             000316               ALVORADA                      VILA VELHA                    ES29117330BRASIL              0000002014613000000020146130002706765100015500100000201461300000000201461300RAYANE MARCONI CARNEIRO                                                                                                                                                                                                                                                                                                                                                                                                                                                          1                                                   00000000                                                                     
DAEFRIANE C B MARQUES                                 12804078752S000001363373400000000SSP     198910291F210000273205720000000000000988830488RIANEBARCELOS@GMAIL.COM     RUA EDUARDO MANETH                                000083               BARRA DO JUCU                 VILA VELHA                    ES29125038BRASIL              0000002014607390000020146073902706765100015500100000201460739000000201460739RIANE CARDOSO BARCELOS MARQUES                                                                                                                                                                                                                                                                                                                                                                                                                                                   1                                                   00000000                                                                     
