H027067651000155N00000220140228112441NPSOCIDADE EDUCACIONAL DO ESPIRITO SANTO            00103300100010000000000000AV COMISSARIO JOSE DANTAS DE MELO                 000021                    BOA VISTA II        VILA VELHA          ES291029020027212227000000000000000000000000                                                                     000000000000000000000000000000                                                                                                                                                                                                                                                                                                                                                                                                                                                                                                                                                                                                                                                  
DAEFJEFFERSON TEIXEIRA BESSA                          12420745701S000001230932400000000SSP   ES198801291M1100273299464400000000000998995594JEFFBESSA@GMAIL.COM           RUA INACIO HIGINO                                 000998               PRAIA DA COSTA                VILA VELHA                    ES29101430BRASIL              0000002012532140000120125321402706765100015500100001201253214000000201253214JEFFERSON TEIXEIRA BESSA                                                                                                                                                                                                                                                                                                                                                                                                                                                         1                                                   00000000ENGENHARIA CIVIL                                                     
DAEFLUCAS LIMA MAGESKI                                08798534688S000011470624100000000SSP   MG198706161M1100273245091600000000000000000000L2MAGESKI@YAHOO.COM.BR        AVENIDA SANTA LEOPOLDINA                          002200               COQUEIRAL DE ITAPARICA        VILA VELHA                    ES29102200BRASIL              0000002010409300000120104093002706765100015500100001201040930000000201040930LUCAS LIMA MAGESKI                                                                                                                                                                                                                                                                                                                                                                                                                                                               1                                                   00000000ENGENHARIA DE PETROLEO                                               
DAEFJOSUE DE LACERDA SILVA                            08110615740S000001141666600000000SSP   ES197812041M1100273244386500000000000988168808JOSUELACERDA@HOTMAIL.COM      AV RIO BRANCO                                     000491               BARRA MARES                   VILA VELHA                    ES29124382BRASIL              0000002006192800000120061928002706765100015500100001200619280000000200619280JOSUE DE LACERDA SILVA                                                                                                                                                                                                                                                                                                                                                                                                                                                           1                                                   00000000SISTEMA DE INFORMACAO                                                
DAEFCARLOS DIAS SANTOS NASCIMENTO                     01292472600S009472289052520131212DETRANES198602081M2200273421203400000000000998225191LUCAS.CORADINI@GMAIL.COM      RUA HUMBERTO SERRANO                              001542               ITAPUA                        VILA VELHA                    ES29101928BRASIL              0000000000021350000000110213502706765100015500100000001102135000000000002135CARLOS DIAS SANTOS NASCIMENTO                                                                                                                                                                                                                                                                                                                                                                                                                                                    3                                                   00000000                                                                     
DAEFLUCAS SPERANDIO CORADINI                          86364561772S009323521423820080611DETRANES198411231M1200273421203400000000000999327874CARLOS.NASCIMENTO@UVV.BR      RUA ORMINDA MACHADO DUARTE                        000066               PRAIA DAS GAIVOTAS            VILA VELHA                    ES29102568BRASIL              0000000000026370000000110263702706765100015500100000001102637000000000002637LUCAS SPERANDIO CORADINI                                                                                                                                                                                                                                                                                                                                                                                                                                                         3                                                   00000000                                                                     
T000005                                                                                                                                                                                                                                                                                                                                                                                                                                                                                                                                                                                                                                                                                                                                                                                                                                                                                                                                                                                                                                 
