H027067651000155N00000820140228112441NPSOCIDADE EDUCACIONAL DO ESPIRITO SANTO            00103300100010000000000000AV COMISSARIO JOSE DANTAS DE MELO                 000021                    BOA VISTA II        VILA VELHA          ES291029020027212227000000000000000000000000                                                                     000000000000000000000000000000                                                                                                                                                                                                                                                                                                                                                                                                                                                                                                                                                                                                                                                  
DIEFABEL DE BARROS RIOS                               10859057720S000011764076200000000SSP   MG198909031M1100273754102000000000000092391666ABELBRIOS@MSN.COM             AV ANTONIO PAULINO                                000842               CENTRO                        MONTANHA                      ES29890000BRASIL              0000002009339580000020093395802706765100015500100000200933958000000200933958ABEL DE BARROS RIOS                                                                                                                                                                                                                                                                                                                                                                                                                                                              1                                                   00000000                                                                     
DIEFADENIS FAUSTINI TAQUETI                           13665563720S000001307582100000000SSP   ES199002181M1100273239196200000000000999710547ADENIS.FT@HOTMAIL.COM         RUA ACRE                                          000050               PRAIA DA COSTA                VILA VELHA                    ES29101230BRASIL              0000002012508230000020125082302706765100015500100000201250823000000201250823ADENIS FAUSTINI TAQUETI                                                                                                                                                                                                                                                                                                                                                                                                                                                          1                                                   00000000                                                                     
DIEFADRIANA CRISTIAN MACIEL                           04231220700S000001104630800000000SSP   ES197502231F1100273339268500000000000096291714ADRIANACMACIEL@IG.COM.BR      NOSSA SENHORA DO ROSARIO                          000333               SANTA PAULA II                VILA VELHA                    ES29126250BRASIL              0000002014617590000020146175902706765100015500100000201461759000000201461759ADRIANA CRISTIAN MACIEL                                                                                                                                                                                                                                                                                                                                                                                                                                                          1                                                   00000000                                                                     
DIEFADRIANA CRUZ DA SILVA                             10539813761S000001185613700000000SSP   ES198512221F1100273033755600000000000999784384DRIKASILVINHA@GMAIL.COM       RUA VIANA                                         000006               BOA VISTA 1                   VILA VELHA                    ES29102690BRASIL              0000002012498180000020124981802706765100015500100000201249818000000201249818ADRIANA CRUZ DA SILVA                                                                                                                                                                                                                                                                                                                                                                                                                                                            1                                                   00000000                                                                     
DIEFADRIANA SANTOS DE SOUZA                           14721673760S000001343240000000000SSP   ES199402221F1100273361120700000000000098170443ADRIANA_BENEZATH@HOTMAIL.COM  RUA JOAO MORAES                                   000035               ITAPEBUSSU                    GUARAPARI                     ES29210250BRASIL              0000002011442740000020114427402706765100015500100000201144274000000201144274ADRIANA SANTOS DE SOUZA                                                                                                                                                                                                                                                                                                                                                                                                                                                          1                                                   00000000                                                                     
DIEFADRIANO H S PEREIRA                               14380441784S000001317955200000000SSP   ES199312031M1100270000000000000000000097858211ADRIANOHENRIQUE181@GMAIL.COM  RUA MUQUI DO NORTE                                000942               RIVIERA DA BARRA              VILA VELHA                    ES29126064BRASIL              0000002013581320000020135813202706765100015500100000201358132000000201358132ADRIANO H S PEREIRA                                                                                                                                                                                                                                                                                                                                                                                                                                                              1                                                   00000000                                                                     
DIEFADRIANO W D ALMEIDA                               00293994757S000000193324100000000SSP   ES196910231M1100273349309300000000000097483122ADRIANOWANDERMUREM@YAHOO.COM.BRRUA DOUTOR JAIRO MATTOS PEREIRA                  000007               SANTOS DUMONT                 VILA VELHA                    ES29109430BRASIL              0000002009371540000020093715402706765100015500100000200937154000000200937154ADRIANO W D ALMEIDA                                                                                                                                                                                                                                                                                                                                                                                                                                                              1                                                   00000000                                                                     
DIEFADRIELE ARAUJO FELBERG                            05756279725S000001192073700000000SSP   ES198603281F1100278119592100000000000081195921ADRIELEFELBERG@GMAIL.COM      RUA GUIMARAES ROSA                                000008               BOA VISTA I                   VILA VELHA                    ES29102611BRASIL              0000002008302530000020083025302706765100015500100000200830253000000200830253ADRIELE ARAUJO FELBERG                                                                                                                                                                                                                                                                                                                                                                                                                                                           1                                                   00000000                                                                     
DIEFAERTH LIRIO COPPO                                 12663092762S000001198534000000000SSP   ES198805221M1100270000000000000000000998060903AERTHCOPPO@GMAIL.COM          RUA ROMA                                          000038               ARAYAS                        VILA VELHA                    ES29103045BRASIL              0000002014612340000020146123402706765100015500100000201461234000000201461234AERTH LIRIO COPPO                                                                                                                                                                                                                                                                                                                                                                                                                                                                1                                                   00000000                                                                     
DIEFALAN DIEGO LIMA BETTCHER                          04957566526S001126191417100000000SSP   ES199006021M1100278159939300000000000033144013ALAN_BETTCHER@HOTMAIL.COM     RUA SERGIO MURILO FRANYA SOUZA                    000105               PONTAL DE CAMBURI             VITORIA                       ES29062080BRASIL              0000002012520370000020125203702706765100015500100000201252037000000201252037ALAN DIEGO LIMA BETTCHER                                                                                                                                                                                                                                                                                                                                                                                                                                                         1                                                   00000000                                                                     
DIEFALAN K R COSTA                                    10180566709S000001185598500000000SSP   ES198306091M1100279943395600000000000099433956ALANKRC@HOTMAIL.COM           RUA FRANCISCO EUGENIO MUSSIELO                    000170               JARDIM DA PENHA               VITORIA                       ES29060290BRASIL              0000002012522950000020125229502706765100015500100000201252295000000201252295ALAN K R COSTA                                                                                                                                                                                                                                                                                                                                                                                                                                                                   1                                                   00000000                                                                     
DIEFALAN MOFARDINI RAMOS                              10421002760S000001204147800000000SSP   ES198307161M1100273244973000000000000988026460ECRESISEN@HOTMAIL.COM         RUA SEREIA                                        000601               SAO CONRADO                   VILA VELHA                    ES29124090BRASIL              0000002014617620000020146176202706765100015500100000201461762000000201461762ALAN MOFARDINI RAMOS                                                                                                                                                                                                                                                                                                                                                                                                                                                             1                                                   00000000                                                                     
DIEFALAN REISEN CARDOZO                               12962045707S000001230745200000000SSP   ES199002181M1100273339543400000000000099452198ALANRCSOAD@HOTMAIL.COM        RUA ALMIRANTE TAMANDARE                           000394               SOTECO                        VILA VELHA                    ES29106220BRASIL              0000002014618950000020146189502706765100015500100000201461895000000201461895ALAN REISEN CARDOZO                                                                                                                                                                                                                                                                                                                                                                                                                                                              1                                                   00000000                                                                     
DIEFALESSANDRA A PAGANINI                             02267654741S000000100000000000000SSP   ES198512171F1100270000000000000000000000000000                              RUA REGENTE FEIJO                                 000014               NOSSA SENHORA DA PENHA        VILA VELHA                    ES29110160BRASIL              0000002013586600000020135866002706765100015500100000201358660000000201358660ALESSANDRA A PAGANINI                                                                                                                                                                                                                                                                                                                                                                                                                                                            1                                                   00000000                                                                     
DIEFALESSANDRA D S FLORIANO                           05195805750S000000100000000000000SSP   ES198209231F1100273339536900000000000000000000ALEKEROLAYNE@HOTMAIL.COM      RUA LUIZ GAMA                                     000391               CRISTOVAO COLOMBO             VILA VELHA                    ES29106590BRASIL              0000002013578560000020135785602706765100015500100000201357856000000201357856ALESSANDRA D S FLORIANO                                                                                                                                                                                                                                                                                                                                                                                                                                                          1                                                   00000000                                                                     
DIEFALESSANDRA PINHEIRO                               01537888609S011295050609900000000SSP   ES198601291F1200273041616100000000000000000000LOGISTICA.AP@HOTMAIL.COM      RUA JUNDIAI                                       000403               ALVORADA                      VILA VELHA                    ES29100000BRASIL              0000002014616340000020146163402706765100015500100000201461634000000201461634ALESSANDRA PINHEIRO                                                                                                                                                                                                                                                                                                                                                                                                                                                              1                                                   00000000                                                                     
DIEFALESSANDRA P S S MEYERFREUND                      03141751641S000001751386400000000SSP   MG197612041F1100273329501400000000000000000000ALEPMEYER@GMAIL.COM           AV ANTONIO GIL VELOSO                             002300               PRAIA DE ITAPUA               VILA VELHA                    ES29101735BRASIL              0000002014618660000020146186602706765100015500100000201461866000000201461866ALESSANDRA P S S MEYERFREUND                                                                                                                                                                                                                                                                                                                                                                                                                                                     1                                                   00000000                                                                     
DIEFALESSANDRA Z D NASCIMENTO                         01516101774S000001126002500000000SSP   ES197201011F1100273200475500000000000099575264ALE.Z.N@HOTMAIL.COM           R IVAM NEIVA NEVES                                000023               RESIDENCIAL DE COQUEIRAL      VILA VELHA                    ES29102850BRASIL              0000002001007340000020010073402706765100015500100000200100734000000200100734ALESSANDRA Z D NASCIMENTO                                                                                                                                                                                                                                                                                                                                                                                                                                                        1                                                   00000000                                                                     
DIEFALESSANDRO FERREIRA LEMOS                         01695670523S000188167267000000000SSP   BA198602041M1100273298343400000000000098978167LELECOLEMOS66@GMAIL.COM       RUA FRANCISCO EUGENIO MUSSIELLO                   001105               JARDIM DA PENHA               VITORIA                       ES29060290BRASIL              0000002012506830000020125068302706765100015500100000201250683000000201250683ALESSANDRO FERREIRA LEMOS                                                                                                                                                                                                                                                                                                                                                                                                                                                        1                                                   00000000                                                                     
DIEFALEX DE ARAUJO VALLS                              13300538777S000001308221400000000SSP   ES199012211M1100273299598700000000000099897446ALEXVALLS@YMAIL.COM           AVENIDA ANTONIO GIL VELOSO                        000210               PRAIA DA COSTA                VILA VELHA                    ES29101010BRASIL              0000002010433380000020104333802706765100015500100000201043338000000201043338ALEX DE ARAUJO VALLS                                                                                                                                                                                                                                                                                                                                                                                                                                                             1                                                   00000000                                                                     
DIEFALEX S F D S COTA                                 01731331770S000000184216700000000SSP   ES197203231M1100273223851200000000000999915884ALEXSANDERCOTA@GMAIL.COM      RUA LUDWIK MACAL                                  000289               JARDIM DA PENHA               VITORIA                       ES29060030BRASIL              0000002014619290000020146192902706765100015500100000201461929000000201461929ALEX S F D S COTA                                                                                                                                                                                                                                                                                                                                                                                                                                                                1                                                   00000000                                                                     
DIEFALEXANDRE D S Z BONETTI                           13578641758S000001317017300000000SSP   ES199201101M1100270000000000000000000097823147ALEXSZB@HOTMAIL.COM           RUA HUMBERTO SERRANO                              000099               PRAIA DA COSTA                VILA VELHA                    ES29101460BRASIL              0000002009334520000020093345202706765100015500100000200933452000000200933452ALEXANDRE D S Z BONETTI                                                                                                                                                                                                                                                                                                                                                                                                                                                          1                                                   00000000                                                                     
DIEFALEXANDRE O GRANATO                               07995794673S000001364535400000000SSP   ES199301291M1100270000000000000000000000000000ALEXANDRE.GRANATO.BH@HOTMAIL.COMRUA                                             000000               PRAIA DA COSTA                VILA VELHA                    ES29100000BRASIL              0000002014619780000020146197802706765100015500100000201461978000000201461978ALEXANDRE O GRANATO                                                                                                                                                                                                                                                                                                                                                                                                                                                              1                                                   00000000                                                                     
DIEFALEXON DA SILVA MOREIRA                           03158035766S000001117947500000000SSP   ES197310031M1100273218623800000000000000000000                              RUA C                                             000012               CARAPINA GRANDE               SERRA                         ES29160321BRASIL              0000002014615460000020146154602706765100015500100000201461546000000201461546ALEXON DA SILVA MOREIRA                                                                                                                                                                                                                                                                                                                                                                                                                                                          1                                                   00000000                                                                     
DIEFALFREDO D B OLIVEIRA                              13245661754S000001337064900000000SSP   ES199304221M1100273329217000000000000099277396JRLOST@HOTMAIL.COM            RUA HUGO MUSSO                                    000566               PRAIA DA COSTA                VILA VELHA                    ES29101280BRASIL              0000002012515780000020125157802706765100015500100000201251578000000201251578ALFREDO D B OLIVEIRA                                                                                                                                                                                                                                                                                                                                                                                                                                                             1                                                   00000000                                                                     
DIEFALINE NUNES DOS SANTOS                            11970809701S000001218494300000000SSP   ES198910011F1100273339424400000000000996287802ALINENDS1@HOTMAIL.COM         RUA SAO LUIZ                                      000248               IBES                          VILA VELHA                    ES29108160BRASIL              0000002014614430000020146144302706765100015500100000201461443000000201461443ALINE NUNES DOS SANTOS                                                                                                                                                                                                                                                                                                                                                                                                                                                           1                                                   00000000                                                                     
DIEFALINE PEREIRA SAMPAIO                             12139426754S000001165887100000000SSP   ES198705031F1100273281591800000000000096280140ALINESAMPAIO97@HOTMAIL.COM    RUA PEQUI                                         000256               JOSE DE ANCHIETA              SERRA                         ES29162342BRASIL              0000002005109540000020051095402706765100015500100000200510954000000200510954ALINE PEREIRA SAMPAIO                                                                                                                                                                                                                                                                                                                                                                                                                                                            1                                                   00000000                                                                     
DIEFALINE SANT ANNA EMMERICK                          05761912724S000011366219800000000SSP   ES199010281F1100273545291600000000000000000000ALINEEMMERICK@GMAIL.COM       AV JOSE LUIZ DE CASTRO                            000803               VILA NOVA                     IUNA                          ES29390000BRASIL              0000002010385990000020103859902706765100015500100000201038599000000201038599ALINE SANT ANNA EMMERICK                                                                                                                                                                                                                                                                                                                                                                                                                                                         1                                                   00000000                                                                     
DIEFALINE VIDAL DA ROCHA                              07814572703S000001150120000000000SSP   ES197912111F1300279987906880000000000000000000ALINE.ROCHA@VALE.COM          AVENIDA MANOEL NUNES DO AMARAL PEREIRA            000341               JARDIM CAMBURI                VITORIA                       ES29069690BRASIL              0000002009352380000020093523802706765100015500100000200935238000000200935238ALINE VIDAL DA ROCHA                                                                                                                                                                                                                                                                                                                                                                                                                                                             1                                                   00000000                                                                     
DIEFALINE WANDEKOLKEN HELMER                          12670945759S000001217721900000000SSP   ES199305281F1100273341719800000000000097831365ALINE__WH@HOTMAIL.COM         RUA CARAVELAS                                     000101               MARING                        SERRA                         ES29168318BRASIL              0000002011447180000020114471802706765100015500100000201144718000000201144718ALINE WANDEKOLKEN HELMER                                                                                                                                                                                                                                                                                                                                                                                                                                                         1                                                   00000000                                                                     
DIEFALLAN SALES TEODORO                               03226889575S001133519481900000000SSP   BA198708241M1300279297763200000000000992421525ALLAN.SALES@HOTMAIL.COM       AV DOUTOR WERWAN MODENESI WANDERLEY               000161               JARDIM CAMBURI                VITORIA                       ES29090640BRASIL              0000002014619210000020146192102706765100015500100000201461921000000201461921ALLAN SALES TEODORO                                                                                                                                                                                                                                                                                                                                                                                                                                                              1                                                   00000000                                                                     
DIEFALLISSON CAMPOS MURI                              13328907769S000001229631600000000SSP   ES199101151M1100273339048800000000000000000000ALLISSONCM_15@YAHOO.COM.BR    AV SERGIO CARDOSO                                 001834               ARAYAS                        VILA VELHA                    ES29103295BRASIL              0000002010409210000020104092102706765100015500100000201040921000000201040921ALLISSON CAMPOS MURI                                                                                                                                                                                                                                                                                                                                                                                                                                                             1                                                   00000000                                                                     
DIEFALOISIO BRUSKE                                    12012987761S000001217839600000000SSP   ES199203091M1200273268319700000000000099328275ALOISIOBRUSKE@GMAIL.COM       RUA CAMINHO VALE DA ESTAYAO                       000000               SANTA ISABEL                  DOMINGOS MARTINS              ES29260000BRASIL              0000002013565330000020135653302706765100015500100000201356533000000201356533ALOISIO BRUSKE                                                                                                                                                                                                                                                                                                                                                                                                                                                                   1                                                   00000000                                                                     
DIEFAMANDA CAROLINA RIBEIRO                           12168166706S000001221738400000000SSP   ES198901031F1300273340887900000000000099186601AMANDAOVIVO@HOTMAIL.COM       RUA CORNELIO CALDAS CARVALHO                      001151               GUARANHUNS                    VILA VELHA                    ES29103630BRASIL              0000002012500560000020125005602706765100015500100000201250056000000201250056AMANDA CAROLINA RIBEIRO                                                                                                                                                                                                                                                                                                                                                                                                                                                          1                                                   00000000                                                                     
DIEFAMANDA COSTA PAIXAO                               09001705731S000001144340200000000SSP   ES197811171F1200273149501300000000000081383713SUB.GERENCIA@CONDOMINIUS-ES.COM.BRAV SANTA LEOPOLDINA                           001200               COQUEIRAL DE ITAPARICA        VILA VELHA                    ES29102901BRASIL              0000002014604640000020146046402706765100015500100000201460464000000201460464AMANDA COSTA PAIXAO                                                                                                                                                                                                                                                                                                                                                                                                                                                              1                                                   00000000                                                                     
DIEFAMANDA DALVI TRANCOSO                             14187784780S000001302301200000000SSP   ES199112141F1100273252337700000000000992620872AMANDATRANCOSO@HOTMAIL.COM    RUA MARANHAO                                      000301               JACARAIPE                     SERRA                         ES29175291BRASIL              0000002014620540000020146205402706765100015500100000201462054000000201462054AMANDA DALVI TRANCOSO                                                                                                                                                                                                                                                                                                                                                                                                                                                            1                                                   00000000                                                                     
DIEFAMANDA FERREIRA FURTADO                           10087695766S000001218576200000000SSP   ES198811161F1100279981740700000000000000000000AMANDA.FFURTADO@HOTMAIL.COM   AVENIDA HUGO MUSSO                                000953               PRAIA DA COSTA                VILA VELHA                    ES29101287BRASIL              0000002008313600000020083136002706765100015500100000200831360000000200831360AMANDA FERREIRA FURTADO                                                                                                                                                                                                                                                                                                                                                                                                                                                          1                                                   00000000                                                                     
DIEFAMANDA MARTINS ZENI                               12118217730S000001146561600000000SSP   ES199105221F1100273207154900000000000088031565AMANDITA_ZENI@YAHOO.COM.BR    RUA OZIAS SARMENTO RODRIGUES                      000219               JOANA DARC                    VITORIA                       ES29048170BRASIL              0000002009351960000020093519602706765100015500100000200935196000000200935196AMANDA MARTINS ZENI                                                                                                                                                                                                                                                                                                                                                                                                                                                              1                                                   00000000                                                                     
DIEFAMANDA PRATES DE JESUS                            16133950781S000001355301400000000SSP   ES199603141F1100273288413500000000000081678458AMANDAPRATES96@HOTMAIL.COM    SITIO BEIRA RIO KM 72                             000000               VICTOR HUGO                   VITORIA                       ES29255000BRASIL              0000002014618250000020146182502706765100015500100000201461825000000201461825AMANDA PRATES DE JESUS                                                                                                                                                                                                                                                                                                                                                                                                                                                           1                                                   00000000                                                                     
DIEFAMANDA SANYAO DOS REIS                            15213884741S000001337720100000000SSP   ES199506101F1100273326615800000000000098763595AMANDASANSAO@HOTMAIL.COM      RUA DA ASSEMBLEIA                                 000001               CASTELO BRANCO                CARIACICA                     ES29140782BRASIL              0000002014614850000020146148502706765100015500100000201461485000000201461485AMANDA SANYAO DOS REIS                                                                                                                                                                                                                                                                                                                                                                                                                                                           1                                                   00000000                                                                     
DIEFAMERICO J R S COSTA                               05907922702S000161797256700000000SSP   MG199202271F1100270000000000000000000099253090APLAYSSON@HOTMAIL.COM         RUA MATO GROSSO                                   000080               PRAIA DA COSTA                VILA VELHA                    ES29101121BRASIL              0000002012532350000020125323502706765100015500100000201253235000000201253235AMERICO J R S COSTA                                                                                                                                                                                                                                                                                                                                                                                                                                                              1                                                   00000000                                                                     
DIEFANA CARLA FERREIRA SILVA                          14096174750S000011883876700000000SSP   MG199202071F1100270000000000000000000999524426ANACARLA_CC@HOTMAIL.COM       AV ADELIO SILVA BRITTO                            000650               COQUEIRAL DE ITAPARICA        VILA VELHA                    ES29000100BRASIL              0000002014618510000020146185102706765100015500100000201461851000000201461851ANA CARLA FERREIRA SILVA                                                                                                                                                                                                                                                                                                                                                                                                                                                         1                                                   00000000                                                                     
DIEFANA C M SEGRINI                                   14665376719S000001329705300000000SSP   ES199204101F1100279251494800000000000000000000ANACAROLINASEGRINI@GMAIL.COM  RUA ALAMEDA F                                     000007               INTERLAGOS                    VILA VELHA                    ES29129676BRASIL              0000002010425640000020104256402706765100015500100000201042564000000201042564ANA C M SEGRINI                                                                                                                                                                                                                                                                                                                                                                                                                                                                  1                                                   00000000                                                                     
DIEFANA C S D AZEVEDO                                 05949113705S000000189876000000000SSP   ES199401171F1100273329495300000000000099880761CAROL_LOL5@HOTMAIL.COM        AV ANTONIO GIL VELOSO                             002290               ITAPUA                        VILA VELHA                    ES29101735BRASIL              0000002012532780000020125327802706765100015500100000201253278000000201253278ANA C S D AZEVEDO                                                                                                                                                                                                                                                                                                                                                                                                                                                                1                                                   00000000                                                                     
DIEFANA CAROLINA SEGUI MIRAI                          12343592780S000011394871400000000SSP   MG198905051F1100273361228200000000000988543749CAROL_VTM@HOTMAIL.COM         AV OCEANICA                                       001918               PRAIA DO MORRO                GUARAPARI                     ES29216080BRASIL              0000002009364250000020093642502706765100015500100000200936425000000200936425ANA CAROLINA SEGUI MIRAI                                                                                                                                                                                                                                                                                                                                                                                                                                                         1                                                   00000000                                                                     
DIEFANA C D A PEREIRA                                 00965054780S000000120683000000000SSP   ES196801041F1100273229471000000000000998050894MCAVATI@IG.COM.BR             RUA JOFREDO NOVAIS                                000091               PRAIA DA COSTA                VILA VELHA                    ES29101470BRASIL              0000002012501390000020125013902706765100015500100000201250139000000201250139ANA C D A PEREIRA                                                                                                                                                                                                                                                                                                                                                                                                                                                                1                                                   00000000                                                                     
DIEFANA C V DALFIOR                                   03192559721S000001186598800000000SSP   ES197502071F1100273317581300000000000098414353ACAJEVIC@HOTMAIL.COM          RUA JOSE MARTINS DELAZARI                         000145               JOANA DARC                    VITORIA                       ES29048075BRASIL              0000002011466040000020114660402706765100015500100000201146604000000201146604ANA C V DALFIOR                                                                                                                                                                                                                                                                                                                                                                                                                                                                  1                                                   00000000                                                                     
DIEFANA K S D NASCIMENTO                              14418829792S000001315357700000000SSP   ES199405081F1100273244680000000000000996065595KAROLZINHA_LOVEPINK@HOTMAIL.COMRUA BAIXO GUANDU                                 000178               RIVIERA DA BARRA              VILA VELHA                    ES29126072BRASIL              0000002014620270000020146202702706765100015500100000201462027000000201462027ANA K S D NASCIMENTO                                                                                                                                                                                                                                                                                                                                                                                                                                                             1                                                   00000000                                                                     
DIEFANA LUIZA SANCHES E SILVA                         10571343767S000011529658200000000SSP   MG198512241F1100279920050400000000000081452404ANALUSANCHES@HOTMAIL.COM      AV SANTA LEOPOLDINA                               001649               COQUEIRAL DE ITAPARICA        VILA VELHA                    ES29102385BRASIL              0000002012513470000020125134702706765100015500100000201251347000000201251347ANA LUIZA SANCHES E SILVA                                                                                                                                                                                                                                                                                                                                                                                                                                                        1                                                   00000000                                                                     
DIEFANA P D S R SIEPIERSKI                            08408818783S000001161171500000000SSP   ES198105121F1100273242280100000000000088546746RODRIGUESIEPIERSKI@HOTMAIL.COMRUA CHUCHUZEIRO                                   000030               ATAIDE                        VILA VELHA                    ES29119250BRASIL              0000002014619710000020146197102706765100015500100000201461971000000201461971ANA P D S R SIEPIERSKI                                                                                                                                                                                                                                                                                                                                                                                                                                                           1                                                   00000000                                                                     
DIEFANA PAULA MENDES PEREIRA                          10421382732S000011340166100000000SSP   MG198403071F1100270000000000000000000998477065ANAPAULP1@GMAIL.COM           TRAVESSA DO SOL                                   000002               ALVORADA                      VILA VELHA                    ES29117170BRASIL              0000002014617540000020146175402706765100015500100000201461754000000201461754ANA PAULA MENDES PEREIRA                                                                                                                                                                                                                                                                                                                                                                                                                                                         1                                                   00000000                                                                     
DIEFANA P P CUSTODIO                                  07399069760S000001131495400000000SSP   ES197804211F1100273062266200000000000000000000PAULINHAPAND@YAHOO.COM.BR     RUA ANTONIO ATAIDE                                001033               CENTRO                        VILA VELHA                    ES29100295BRASIL              0000002010402140000020104021402706765100015500100000201040214000000201040214ANA P P CUSTODIO                                                                                                                                                                                                                                                                                                                                                                                                                                                                 1                                                   00000000                                                                     
DIEFANA PAULA PRETTI BOLONHA                          06095018790S000000100000000000000SSP   ES199212291F1100273229423100000000000088258009PAULINHA_PRETTI@HOTMAIL.COM   RUA C  3Y ETAPA                                   000000               COQUEIRAL DE ITAPARICA        VITORIA                       ES29102903BRASIL              0000002014604650000020146046502706765100015500100000201460465000000201460465ANA PAULA PRETTI BOLONHA                                                                                                                                                                                                                                                                                                                                                                                                                                                         1                                                   00000000                                                                     
DIEFANA PAULA ROSA                                    08613305792S000001316174700000000SSP   ES198007301F1100273075705900000000000997574302ANINHA.PAULAROSA@GMAIL.COM    RUA CINCO                                         000248               SANTA MONICA                  VILA VELHA                    ES29105250BRASIL              0000002014610600000020146106002706765100015500100000201461060000000201461060ANA PAULA ROSA                                                                                                                                                                                                                                                                                                                                                                                                                                                                   1                                                   00000000                                                                     
DIEFANA P P D SANTOS                                  14917240727S000001307865300000000SSP   ES199408281F1100273219356200000000000099252649PAULINHA_P.SANTOS@HOTMAIL.COM RUA MANOEL DIAS VIANA                             000006               SANTA INES                    VILA VELHA                    ES29108180BRASIL              0000002012506370000020125063702706765100015500100000201250637000000201250637ANA P P D SANTOS                                                                                                                                                                                                                                                                                                                                                                                                                                                                 1                                                   00000000                                                                     
DIEFANABEATRIZ D A BANDEIRA                           14513136758S000001306232200000000SSP   ES199407031F1100273039248300000000000096056859MISSBLUEBERRY7@HOTMAIL.COM    AVENIDA ESTUDANTE JOSE JULIO DE SOUZA             003120               PRAIA DE ITAPARICA            VILA VELHA                    ES91020010BRASIL              0000002014618670000020146186702706765100015500100000201461867000000201461867ANABEATRIZ D A BANDEIRA                                                                                                                                                                                                                                                                                                                                                                                                                                                          1                                                   00000000                                                                     
DIEFANACAROLINA D A BANDEIRA                          14586417757S000001349461800000000SSP   ES199609191F1100279756516500000000000279756516CAROLBANDEIRA@ICLOUD.COM      AVENIDA ESTUDANTE JOSE JULIO DE SOUZA             003120               PRAIA DE ITAPARICA            VILA VELHA                    ES29102010BRASIL              0000002014598860000020145988602706765100015500100000201459886000000201459886ANACAROLINA D A BANDEIRA                                                                                                                                                                                                                                                                                                                                                                                                                                                         1                                                   00000000                                                                     
DIEFANAIS NOGUEIRA HENRIQUES                          14753462714S000001307711700000000SSP   ES199309151F1100273337108300000000000096043008ANAISHENRIQUES@HOTMAIL.COM    AVENIDA JOSE MARTINS RATO                         000156               NOSSA SENHORA DE FTIMA        SERRA                         ES29160790BRASIL              0000002012494230000020124942302706765100015500100000201249423000000201249423ANAIS NOGUEIRA HENRIQUES                                                                                                                                                                                                                                                                                                                                                                                                                                                         1                                                   00000000                                                                     
DIEFANATIELY JUNCA DA SILVA                           14265327761S000001329006600000000SSP   ES199305251F1300279862035700000000000098620357NATHY_LSC@HOTMAIL.COM         AVENIDA ESCELSA                                   000004               ALTO LAGE                     CARIACICA                     ES29151110BRASIL              0000002011455950000020114559502706765100015500100000201145595000000201145595ANATIELY JUNCA DA SILVA                                                                                                                                                                                                                                                                                                                                                                                                                                                          1                                                   00000000                                                                     
DIEFANDRE A D O COSTA                                 13409047727S000001301297100000000SSP   ES199606021M1100273341449800000000000000000000ANDRE.COSTAOC@HOTMAIL.COM     RUA MAUES                                         000047               BARCELONA                     SERRA                         ES29100000BRASIL              0000002014616720000020146167202706765100015500100000201461672000000201461672ANDRE A D O COSTA                                                                                                                                                                                                                                                                                                                                                                                                                                                                1                                                   00000000                                                                     
DIEFANDRE CATERINGER GOMES                            13926258748S000001343421100000000SSP   ES199405021M1100279922588600000000000099225886ANDREGCATERINGER@HOTMAIL.COM  SAO JOSE DAS TRES PONTES                          000000               ZONA RURAL                    IUNA                          ES29392990BRASIL              0000002013541140000020135411402706765100015500100000201354114000000201354114ANDRE CATERINGER GOMES                                                                                                                                                                                                                                                                                                                                                                                                                                                           1                                                   00000000                                                                     
DIEFANDRE CICILIOTI GUERRA                            13614682706S000001308405700000000SSP   ES199002191M1100273534112900000000000098867400ANDRE_GUERRA1990@HOTMAIL.COM  AVENIDA DON MELCERIO                              000000               IRIRI                         ANCHIETA                      ES29230000BRASIL              0000002013570360000020135703602706765100015500100000201357036000000201357036ANDRE CICILIOTI GUERRA                                                                                                                                                                                                                                                                                                                                                                                                                                                           1                                                   00000000                                                                     
DIEFANDRE DA SILVA                                    12166439705S000001219294600000000SSP   ES198904141M1100273336968600000000000988009635SHIONMU@GMAIL.COM             RUA CLARICIO ALVES RIBEIRO                        000135               ITANGU                        CARIACICA                     ES29149800BRASIL              0000002014619180000020146191802706765100015500100000201461918000000201461918ANDRE DA SILVA                                                                                                                                                                                                                                                                                                                                                                                                                                                                   1                                                   00000000                                                                     
DIEFANDRE D D S PINHEIRO                              10193576732S000001197549300000000SSP   ES198407111M1100273229740200000000000000000000ANDRE_DSP@HOTMAIL.COM         R PIAUI                                           000135               P. DA COSTA                   VILA VELHA                    ES29101320BRASIL              0000002013580750000020135807502706765100015500100000201358075000000201358075ANDRE D D S PINHEIRO                                                                                                                                                                                                                                                                                                                                                                                                                                                             1                                                   00000000                                                                     
DIEFANDRE L M ENCARNAYAO                              14182361792S000001300775400000000SSP   ES198908091M1100273299062800000000000998744073ANDRE_ACBT@HOTMAIL.COM        AV JOSE JULIO DE SOUZA                            001000               ITAPARICA                     VILA VELHA                    ES29102010BRASIL              0000002009375380000020093753802706765100015500100000200937538000000200937538ANDRE L M ENCARNAYAO                                                                                                                                                                                                                                                                                                                                                                                                                                                             1                                                   00000000                                                                     
DIEFANDRE LUIS PERIM MARTINS                          12742911782S000001303255900000000SSP   ES199007221M1100273339804100000000000099332356ANDRE.ARQUI@HOTMAIL.COM       RUA AYUCENA                                       000180               NOVO MEXICO                   VILA VELHA                    ES29104120BRASIL              0000002009375360000020093753602706765100015500100000200937536000000200937536ANDRE LUIS PERIM MARTINS                                                                                                                                                                                                                                                                                                                                                                                                                                                         1                                                   00000000                                                                     
DIEFANDRE LUIZ LOPES DA SILVA                         11642478750S000001221911700000000SSP   ES198707131M1100270000000000000000000097455464ANDRE.MCD@HOTMAIL.COM         RUA B5                                            000200               DE FATIMA                     SERRA                         ES29160307BRASIL              0000002013548170000020135481702706765100015500100000201354817000000201354817ANDRE LUIZ LOPES DA SILVA                                                                                                                                                                                                                                                                                                                                                                                                                                                        1                                                   00000000                                                                     
DIEFANDRE MOREIRA DE CASTRO                           10814747779S000001218630800000000SSP   ES198606261M1300273386049400000000000097017425QUIMICANDRE@GMAIL.COM         SETE DE SETEMBRO                                  000027               ROSA DA PENHA                 CARIACICA                     ES29143315BRASIL              0000002009341250000020093412502706765100015500100000200934125000000200934125ANDRE MOREIRA DE CASTRO                                                                                                                                                                                                                                                                                                                                                                                                                                                          1                                                   00000000                                                                     
DIEFANDRE RODRIGUES SERAFIM                           12923676793S000001306777600000000SSP   ES198901261M1100273063203500000000000096975398ANDRE_SERAFIM16@HOTMAIL.COM   RUA FRANCISCO RODRIGUES PINTO                     000061               PRAIA DAS GAIVOTAS            VILA VELHA                    ES29102582BRASIL              0000002012525950000020125259502706765100015500100000201252595000000201252595ANDRE RODRIGUES SERAFIM                                                                                                                                                                                                                                                                                                                                                                                                                                                          1                                                   00000000                                                                     
DIEFANDRE TENES MACHADO                               07416692776S000001122271600000000SSP   ES197608091M1200273227192000000000000097909805ATMACHADO@GMAIL.COM           RUA FREDERICO OZANAN                              000523               SANTA TEREZA                  VITORIA                       ES29026846BRASIL              0000002011482750000020114827502706765100015500100000201148275000000201148275ANDRE TENES MACHADO                                                                                                                                                                                                                                                                                                                                                                                                                                                              1                                                   00000000                                                                     
DIEFANDRE THIAGO MAGALHAES                            09624574774S000001183769300000000SSP   ES198304251M1100273205700000000000000999124825ANDREDP3@HOTMAIL.COM          RUA JUNDIAI                                       000361               ALVORADA                      VILA VELHA                    ES29117420BRASIL              0000002014618810000020146188102706765100015500100000201461881000000201461881ANDRE THIAGO MAGALHAES                                                                                                                                                                                                                                                                                                                                                                                                                                                           1                                                   00000000                                                                     
DIEFANDREA CATARINO BRAGA                             08280302786S000001154940600000000SSP   ES197701311F1100273090308400000000000999540993DEA.BRAGA@OI.COM.BR           RUA FRANCISCO LADISLAU                            000021               CAMPO GRANDE                  CARIACICA                     ES29146250BRASIL              0000002003011550000020030115502706765100015500100000200301155000000200301155ANDREA CATARINO BRAGA                                                                                                                                                                                                                                                                                                                                                                                                                                                            1                                                   00000000                                                                     
DIEFANDREA DE PAULA SANTOS                            09925094755S000001168434000000000SSP   ES198101301F1100273289735500000000000988344108FINANCEIRO@IBGLORIA.COM       RUA FUNDIYAO                                      000032               ATAIDE                        VILA VELHA                    ES29119325BRASIL              0000002014604670000020146046702706765100015500100000201460467000000201460467ANDREA DE PAULA SANTOS                                                                                                                                                                                                                                                                                                                                                                                                                                                           1                                                   00000000                                                                     
DIEFANDREA RODRIGUES PEREIRA                          09894573703S000001155369900000000SSP   ES198110091F1100273241353900000000000099134340ALEGRIA.ANDREA@GMAIL.COM      RUA QUINZE                                        000005               ANDRE CARLONI                 SERRA                         ES29160010BRASIL              0000002013553890000020135538902706765100015500100000201355389000000201355389ANDREA RODRIGUES PEREIRA                                                                                                                                                                                                                                                                                                                                                                                                                                                         1                                                   00000000                                                                     
DIEFANDREW CARVALHO MARILY                            14122927781S000001320667300000000SSP   ES199202141M1100273389768100000000000092543855ANDREW_DUSURF@HOTMAIL.COM     RUA PIRATININGA                                   000000                                                                                                         0000000000000000000000000000002706765100015500100000000000000000000000000000ANDREW CARVALHO MARILY                                                                                                                                                                                                                                                                                                                                                                                                                                                           1                                                   00000000                                                                     
DIEFANGELA C D A F FIGUEIREDO                         09745283746S000112711917000000000IFP   RJ198210031F1300273208355500000000000088810375ANGELINA.FIGUEIREDO@HOTMAIL.COMRUA TRINTA                                       000243               SANTA MONICA                  VILA VELHA                    ES29105500BRASIL              0000002013556740000020135567402706765100015500100000201355674000000201355674ANGELA C D A F FIGUEIREDO                                                                                                                                                                                                                                                                                                                                                                                                                                                        1                                                   00000000                                                                     
DIEFANGELICA DA SILVA BAIOCO                          13362988717S000001326906500000000SSP   ES199110081F1300270000000000000000000097828260ANGELICABAIOCO@HOTMAIL.COM    RUA GRAYA ARANHA                                  000019               BOA VISTA                     VILA VELHA                    ES29102720BRASIL              0000002013551870000020135518702706765100015500100000201355187000000201355187ANGELICA DA SILVA BAIOCO                                                                                                                                                                                                                                                                                                                                                                                                                                                         1                                                   00000000                                                                     
DIEFANGELICA LOPES SANTOS                             14537579706S001158593847500000000SSP   ES199104011F1100273244447000000000000997748581ANGELICALOPESS91HOTMAIL.COM   AVENIDA RUY BRAGA RIBEIRO                         000250               SANTA INES                    VILA VELHA                    ES29108041BRASIL              0000002014618920000020146189202706765100015500100000201461892000000201461892ANGELICA LOPES SANTOS                                                                                                                                                                                                                                                                                                                                                                                                                                                            1                                                   00000000                                                                     
DIEFANGELICA POTON LOUREIRO                           12214275711S000001219773600000000SSP   ES199008131F1300273261576400000000000099739350ANGELICA.LOUREIRO15@HOTMAIL.COMITAPARICA MAR                                    000401               COQUEIRAL DE ITAPARICA        VILA VELHA                    ES29102903BRASIL              0000002008286970000020082869702706765100015500100000200828697000000200828697ANGELICA POTON LOUREIRO                                                                                                                                                                                                                                                                                                                                                                                                                                                          1                                                   00000000                                                                     
DIEFANNA C L N D SANTOS                               15133932782S000001338305000000000SSP   ES199504211F1100273735220200000000000097037050CAROL_LAMAS@OUTLOOK.COM       RUA ARMANDO PEREIRA DA ANUNCIAYAO                 000173               GRAMA                         AFONSO CLAUDIO                ES29600000BRASIL              0000002014618230000020146182302706765100015500100000201461823000000201461823ANNA C L N D SANTOS                                                                                                                                                                                                                                                                                                                                                                                                                                                              1                                                   00000000                                                                     
DIEFANNA Y M MURAYAMA                                 12924080738S000001233254700000000SSP   ES199003251F1100273340212900000000000097763393ANNAYUMIM@YAHOO.COM.BR        RUA C                                             000000               COQUEIRAL DE ITAPARICA        VILA VELHA                    ES29102903BRASIL              0000002009383060000020093830602706765100015500100000200938306000000200938306ANNA Y M MURAYAMA                                                                                                                                                                                                                                                                                                                                                                                                                                                                1                                                   00000000                                                                     
DIEFANNE C S MOZINE                                   13838902777S000001214583200000000SSP   ES199005191F1100273349983900000000000099426286ANNE_MOZINE@HOTMAIL.COM       AV ANTONIO GIL VELOSO                             001453               PRAIA DA COSTA                VILA VELHA                    ES29101011BRASIL              0000002010404570000020104045702706765100015500100000201040457000000201040457ANNE C S MOZINE                                                                                                                                                                                                                                                                                                                                                                                                                                                                  1                                                   00000000                                                                     
DIEFANSELMO D C N JUNIOR                              12920785702S000124197756000000000IFP   RJ198804101M1100273299935100000000000099726668BLASTBEAT1@HOTMAIL.COM        RUA 17                                            000005               VILA NOVA                     VILA VELHA                    ES29105130BRASIL              0000002013586370000020135863702706765100015500100000201358637000000201358637ANSELMO D C N JUNIOR                                                                                                                                                                                                                                                                                                                                                                                                                                                             1                                                   00000000                                                                     
DIEFANSELMO MILBRATZ                                  13904084771S000001177216500000000SSP   ES198910051M1100273314089200000000000096076390ANSELMILBRATZ@HOTMAIL.COM     RUA THEREZA ZANONI CASER                          000200               JARDIM DA PENHA               VITORIA                       ES29060800BRASIL              0000002010429710000020104297102706765100015500100000201042971000000201042971ANSELMO MILBRATZ                                                                                                                                                                                                                                                                                                                                                                                                                                                                 1                                                   00000000                                                                     
DIEFARIEL DA SILVEIRA TRIGO                           14602516793S000011553903200000000SSP   MG199103031M1100270000000000000000000096084368A.SILVEIRATRIGO@GMAIL.COM     RUA GUANABARA                                     001490               PRAIA DE ITAPOA               VILA VELHA                    ES29101770BRASIL              0000002014619320000020146193202706765100015500100000201461932000000201461932ARIEL DA SILVEIRA TRIGO                                                                                                                                                                                                                                                                                                                                                                                                                                                          1                                                   00000000                                                                     
DIEFARISTOBULO BARBOSA                                12351173759S000138225187800000000SSP   ES198907171M1300279755550600000000000081198802ARISTOBULO.BARBOSA@HOTMAIL.COMRUA OLAVO BILAC                                   000447               SANTA RITA                    VILA VELHA                    ES29118480BRASIL              0000002011477190000020114771902706765100015500100000201147719000000201147719ARISTOBULO BARBOSA                                                                                                                                                                                                                                                                                                                                                                                                                                                               1                                                   00000000                                                                     
DIEFARMINDO ABAPINTE TE                               06082972759S000000100000000000000SSP   ES198501031M1100270000000000000000000081736098AMIJU20@HOTMAIL.COM           AVENIDA CAPIXABA                                  000013               SOTECO                        VILA VELHA                    ES29106092BRASIL              0000002009362970000020093629702706765100015500100000200936297000000200936297ARMINDO ABAPINTE TE                                                                                                                                                                                                                                                                                                                                                                                                                                                              1                                                   00000000                                                                     
DIEFARNUZIA CAMPOS DIAS                               00834587513S001091456401300000000SSP   BA198402151F110027978444800000000000(27)978444ARNUZIAC@HOTMAIL.COM          RUA DRIO MENDES FERREIRA                          000371               ITAPOA                        VILA VELHA                    ES29102050BRASIL              0000002011452840000020114528402706765100015500100000201145284000000201145284ARNUZIA CAMPOS DIAS                                                                                                                                                                                                                                                                                                                                                                                                                                                              1                                                   00000000                                                                     
DIEFARTHUR CARNEIRO RANGEL                            13954600781S000001229528200000000SSP   ES199111141M1100273034054500000000000098576448ARTHURCARNEIRORANGEL@GMAIL.COMRUA ROSA VERMELHA                                 000109               NOVO MEXICO                   VILA VELHA                    ES29104030BRASIL              0000002009372500000020093725002706765100015500100000200937250000000200937250ARTHUR CARNEIRO RANGEL                                                                                                                                                                                                                                                                                                                                                                                                                                                           1                                                   00000000                                                                     
DIEFARTHUR PEREIRA DOS SANTOS                         12282528743S000001625367900000000IFP   RJ198706301M1100273062708300000000000996873491ARTHURSPAWN@HOTMAIL.COM       RUA MACHADO DE ASSIS                              000020               BOA VISTA 1                   VILA VELHA                    ES29102730BRASIL              0000002014617050000020146170502706765100015500100000201461705000000201461705ARTHUR PEREIRA DOS SANTOS                                                                                                                                                                                                                                                                                                                                                                                                                                                        1                                                   00000000                                                                     
DIEFBARBARA ALVES NETO                                38518165873S000147808145500000000SSP   ES199004251F1100273039344700000000000000000000BARBARA250490@HOTMAIL.COM     AVENIDA SAO PUALO                                 003036               ITAPOA                        VILA VELHA                    ES4307100BRASIL               0000002014620100000020146201002706765100015500100000201462010000000201462010BARBARA ALVES NETO                                                                                                                                                                                                                                                                                                                                                                                                                                                               1                                                   00000000                                                                     
DIEFBARBARA A ROMUALDO                                11567153690S000011819908500000000SSP   MG199310131F1100273345301800000000000081548692BARBARACHARLLOT@HOTMAIL.COM   RUA VIRGINOPOLIS                                  000304               DIVINO ESPIRITO SANTO         VITORIA                       ES29107295BRASIL              0000002013569540000020135695402706765100015500100000201356954000000201356954BARBARA A ROMUALDO                                                                                                                                                                                                                                                                                                                                                                                                                                                               1                                                   00000000                                                                     
DIEFBRBARA CARNEIRO KUSTER                            11203835795S000001307855000000000SSP   ES198906131F1100273347016800000000000098266540KUSTER_BARBARA@HOTMAIL.COM    RUA ELZIRA VIVACQUA                               000060               JARDIM CAMBURI                VITORIA                       ES29090350BRASIL              0000002008320440000020083204402706765100015500100000200832044000000200832044BRBARA CARNEIRO KUSTER                                                                                                                                                                                                                                                                                                                                                                                                                                                           1                                                   00000000                                                                     
DIEFBRBARA DONATTI                                    16781443712S000001363753800000000SSP   ES199507271F1100273075188100000000000099142430BABIDONATTI@HOTMAIL.COM       RUA ITAOCA                                        000020               ITAPARICA                     VILA VELHA                    ES29102305BRASIL              0000002013546680000020135466802706765100015500100000201354668000000201354668BRBARA DONATTI                                                                                                                                                                                                                                                                                                                                                                                                                                                                   1                                                   00000000                                                                     
DIEFBRBARA LAYA TRINDADE                              11535523700S000001201713100000000SSP   ES198611301F1100273252408600000000000081287192BARBARALAYA@YAHOO.COM.BR      RUA SANTA RITA                                    000000               JACARAIPE                     SERRA                         ES29173690BRASIL              0000002006208530000020062085302706765100015500100000200620853000000200620853BRBARA LAYA TRINDADE                                                                                                                                                                                                                                                                                                                                                                                                                                                             1                                                   00000000                                                                     
DIEFBRBARA NUNES GAMA VIEIRA                          12791728783S000001230673300000000SSP   ES198911111F1100273371484300000000000099352421BAH.GAMAV@GMAIL.COM           RUA AUGUSTO DE CARVALHO                           001797               CENTRO                        LINHARES                      ES29900153BRASIL              0000002008323050000020083230502706765100015500100000200832305000000200832305BRBARA NUNES GAMA VIEIRA                                                                                                                                                                                                                                                                                                                                                                                                                                                         1                                                   00000000                                                                     
DIEFBRBARA R P BARROS                                 05937571738S000001211114800000000SSP   ES198901231F1100273222705100000000000099926059BARBARARPB@HOTMAIL.COM        RUA HENRIQUE COUTINHO                             000068               CENTRO                        VITORIA                       ES29018260BRASIL              0000002009349960000020093499602706765100015500100000200934996000000200934996BRBARA R P BARROS                                                                                                                                                                                                                                                                                                                                                                                                                                                                1                                                   00000000                                                                     
DIEFBRBARA SOUZA GOMES                                13342595779S000000100000000000000SSP   ES199203051F1100273229194200000000000092433858BINHA_BABYSG@HOTMAIL.COM      RUALUIS FERNANDES REIS                            000585               PRAIA DA COSTA                VILA VELHA                    ES29101120BRASIL              0000002010388980000020103889802706765100015500100000201038898000000201038898BRBARA SOUZA GOMES                                                                                                                                                                                                                                                                                                                                                                                                                                                               1                                                   00000000                                                                     
