H027067651000155N00001020140422112441NPSOCIDADE EDUCACIONAL DO ESPIRITO SANTO            00103300100010000000000000AV COMISSARIO JOSE DANTAS DE MELO                 000021                    BOA VISTA II        VILA VELHA          ES291029020027212227000000000000000000000000                                                                     000000000000000000000000000000                                                                                                                                                                                                                                                                                                                                                                                                                                                                                                                                                                                                                                                  
DIEFADILSON LAMOUNIER FILHO                           03055136640S000021904114900000000UAT   ES197608061M1100273299400800000000000000000000ADILSON.FILHO@UVV.BR          RUA CEARA                                         000067               PRAIA DA COSTA                VILA VELHA                    ES29000000BRASIL              0000000000026140000000110261402706765100015500100000001102614000000000002614ADILSON LAMOUNIER FILHO                                                                                                                                                                                                                                                                                                                                                                                                                                                          2                                                   00000000                                                                     
DIEFADRIANA CANAL DAS VIRGENS                         06849506773S000002427371500000000UAT   ES197412071F1100273340762200000000000000000000ADRIANA.VIRGENS@UVV.BR        AVPERIMETRAL  ED PITOMBA                          000000               COQUEIRAL DE ITAPARICA        VILA VELHA                    ES29102385BRASIL              0000000000032150000000110321502706765100015500100000001103215000000000003215ADRIANA CANAL DAS VIRGENS                                                                                                                                                                                                                                                                                                                                                                                                                                                        2                                                   00000000                                                                     
DIEFADRIANA S R GASPARINI                             00233771786S000002765371100000000UAT   ES197005311F1100273340095000000000000000000000ADRIGONI@UVV.BR               R CONSTANTE SODRE                                 000941               PRAIA DO CANTO                VITORIA                       ES29000000BRASIL              0000000000008350000000110083502706765100015500100000001100835000000000000835ADRIANA S R GASPARINI                                                                                                                                                                                                                                                                                                                                                                                                                                                            2                                                   00000000                                                                     
DIEFADRIANA VIEIRA CARDOZO                            01516557743S000000247964500000000UAT   ES196805171F2100273224517800000000000000000000ADRIANA.CARDOZO@UVV.BR        AVFRANCISCO GENEROSO DA FONSECA                   000991               JARDIM DA PENHA               VITORIA                       ES29000000BRASIL              0000000000023270000000110232702706765100015500100000001102327000000000002327ADRIANA VIEIRA CARDOZO                                                                                                                                                                                                                                                                                                                                                                                                                                                           2                                                   00000000                                                                     
DIEFADRIANI GERALDA RIBEIRO                           93046804768S000000294012600000000UAT   ES196706111F2100279957466400000000000000000000ADRIANI.RIBEIRO@UVV.BR        RUA MILTON MANOEL DOS SANTOS                      000370               JARDIM CAMBURI                VITORIA                       ES29090230BRASIL              0000000000027330000000110273302706765100015500100000001102733000000000002733ADRIANI GERALDA RIBEIRO                                                                                                                                                                                                                                                                                                                                                                                                                                                          2                                                   00000000                                                                     
DIEFADRIANNA M MENEGUELLI                             96159456768S000254364000000000000UAT   ES196710291F2100273207763000000000000000000000ADRIANNA.ROS@UVV.BR           AV SATURNINO RANGEL MAURO                         000498               FRADINHOS                     VITORIA                       ES29043160BRASIL              0000000000031290000000110312902706765100015500100000001103129000000000003129ADRIANNA M MENEGUELLI                                                                                                                                                                                                                                                                                                                                                                                                                                                            2                                                   00000000                                                                     
DIEFAFONSO C E TAKEMOTO                               87328518804S000029369857700000000UAT   ES195709261M2100273324038000000000000000000000AFONSO.TAKEMOTO@UVV.BR        AV SATURNINO DE BRITO                             000447               PRAIA DO CANTO                VITORIA                       ES29000000BRASIL              0000000000024240000000110242402706765100015500100000001102424000000000002424AFONSO C E TAKEMOTO                                                                                                                                                                                                                                                                                                                                                                                                                                                              2                                                   00000000                                                                     
DIEFAGNELO LEITE DA SILVA                             80322395100S000000285251200000000UAT   ES197712141M2100273235473100000000000000000000AGNELO.SILVA@UVV.BR           RUA CARIJOS                                       000140               JARDIM DA PENHA               VITORIA                       ES29000000BRASIL              0000000000024250000000110242502706765100015500100000001102425000000000002425AGNELO LEITE DA SILVA                                                                                                                                                                                                                                                                                                                                                                                                                                                            2                                                   00000000                                                                     
DIEFALANA ROCHA PUPPIM FRAGA                          07761024782S000002650661700000000UAT   ES197906011F2100273389373000000000000000000000ALANA.FRAGA@UVV.BR            AV ESTUDANTE JOSE JULIO DE SOUZA                  001200               ITAPARICA                     VILA VELHA                    ES29102240BRASIL              0000000000024090000000110240902706765100015500100000001102409000000000002409ALANA ROCHA PUPPIM FRAGA                                                                                                                                                                                                                                                                                                                                                                                                                                                         2                                                   00000000                                                                     
DIEFALCEU MAURICIO JUNIOR                             84385413720S000236871000200000000UAT   ES196701251M2100273019654000000000000000000000ALCEU.MAURICIO@UVV.BR         RUA MOACIR AVIDOS                                 000617               PRAIA DO CANTO                VITORIA                       ES29000000BRASIL              0000000000032320000000110323202706765100015500100000001103232000000000003232ALCEU MAURICIO JUNIOR                                                                                                                                                                                                                                                                                                                                                                                                                                                            2                                                   00000000                                                                     
DIEFALCIDES E V SARDINHA                              72698845791S000002661851000000000UAT   ES195901221M2100273389000300000000000000000000                              AV DES AUGUSTO BOTELHO                            000300               PRAIA DA COSTA                VILA VELHA                    ES29000440BRASIL              0000000000019630000000110196302706765100015500100000001101963000000000001963ALCIDES E V SARDINHA                                                                                                                                                                                                                                                                                                                                                                                                                                                             4                                                   00000000                                                                     
DIEFALCY M F JUNIOR                                   07829250731S000002595001800000000UAT   ES197810301M1100273322255400000000000000000000ALCY.JUNIOR@UVV.BR            RUA JOSE BITTENCOURT                              000051               CARATOIRA                     VITORIA                       ES29000000BRASIL              0000000000020810000000110208102706765100015500100000001102081000000000002081ALCY M F JUNIOR                                                                                                                                                                                                                                                                                                                                                                                                                                                                  2                                                   00000000                                                                     
DIEFALDA PEREIRA DOS SANTOS                           86255312704S000000218158500000000UAT   ES195907141F2100273339534200000000000000000000ALDA.SANTOS@UVV.BR            RUA FELISBERTO PINTO VIEIRA                       000028               SOTECO                        VILA VELHA                    ES29106010BRASIL              0000000000026450000000110264502706765100015500100000001102645000000000002645ALDA PEREIRA DOS SANTOS                                                                                                                                                                                                                                                                                                                                                                                                                                                          3                                                   00000000                                                                     
DIEFALDO D A V M JUNIOR                               00233842713S000000221575800000000UAT   ES196804221M4100273329004800000000000000000000ALDOJR@UVV.BR                 RODOVIA DO SOL                                    002950               PRAIA DAS GARCAS              VILA VELHA                    ES29102020BRASIL              0000000000022070000000130220702706765100015500100000001302207000000000002207ALDO D A V M JUNIOR                                                                                                                                                                                                                                                                                                                                                                                                                                                              2                                                   00000000                                                                     
DIEFALESSANDRA FERRI CASINI                           07047309799S000002387001300000000UAT   ES197508291F2100273315107900000000000000000000ALESSANDRA.CASINI@UVV.BR      AV NOSSA SENHORA DOS NAVEGANTES                   000581               ENSEADA DO SUA                VITORIA                       ES29050900BRASIL              0000000000026290000000110262902706765100015500100000001102629000000000002629ALESSANDRA FERRI CASINI                                                                                                                                                                                                                                                                                                                                                                                                                                                          2                                                   00000000                                                                     
DIEFALESSANDRA TESCH DA SILVA                         00985513705S000002213941000000000UAT   ES197005041F2100273347059900000000000000000000ATESCH@UVV.BR                 RUA RUY PINTO BANDEIRA  APTO 101                  000901               JARDIM CAMBURI                VITORIA                       ES29090230BRASIL              0000000000015940000000110159402706765100015500100000001101594000000000001594ALESSANDRA TESCH DA SILVA                                                                                                                                                                                                                                                                                                                                                                                                                                                        2                                                   00000000                                                                     
DIEFALESSANDRO A E DIAS                               03194920790S000002706972400000000UAT   ES197410111M2100273229095200000000000000000000ALESSANDRO.DIAS@UVV.BR        RUA FORTALEZA                                     001500               ITAPUA                        VILA VELHA                    ES29100000BRASIL              0000000000025850000000120258502706765100015500100000001202585000000000002585ALESSANDRO A E DIAS                                                                                                                                                                                                                                                                                                                                                                                                                                                              2                                                   00000000                                                                     
DIEFALEXANDRE S M D SANTOS                            01699805709S000211529000100000000UAT   ES197107251M2100279989735800000000000000000000ALEXANDRE.SANTOS@UVV.BR       RUA GOIAS                                         000180               ITAPOA                        VILA VELHA                    ES29101350BRASIL              0000000000032100000000110321002706765100015500100000001103210000000000003210ALEXANDRE S M D SANTOS                                                                                                                                                                                                                                                                                                                                                                                                                                                           2                                                   00000000                                                                     
DIEFALEXSANDRA S F GAUDIO                             00297972766S000002670921600000000UAT   ES196910161F2100273299881600000000000000000000ALEXSANDRA@UVV.BR             R AMOR PERFEITO                                   000265               NOVO MEXICO                   VILA VELHA                    ES29000000BRASIL              0000000000008990000000110089902706765100015500100000001100899000000000000899ALEXSANDRA S F GAUDIO                                                                                                                                                                                                                                                                                                                                                                                                                                                            3                                                   00000000                                                                     
DIEFALEXSANDRO R NEGRELLI                             01995799700S000249821000100000000UAT   ES197502251M6100273254197300000000000000000000ALEXSANDRO.NEGRELLI@UVV.BR    RUA ONZE                                          000005               PROLAR II                     CARIACICA                     ES29154829BRASIL              0000000000031380000000110313802706765100015500100000001103138000000000003138ALEXSANDRO R NEGRELLI                                                                                                                                                                                                                                                                                                                                                                                                                                                            2                                                   00000000                                                                     
DIEFALICE PIGNATON NASERI                             08058315761S000298505002200000000UAT   ES197811191F1100273314069800000000000000000000ALICE.NASERI@UVV.BR           RUA DR DIDO FONTES                                000209               JARDIM DA PENHA               VITORIA                       ES29000000BRASIL              0000000000028570000000110285702706765100015500100000001102857000000000002857ALICE PIGNATON NASERI                                                                                                                                                                                                                                                                                                                                                                                                                                                            2                                                   00000000                                                                     
DIEFANA CRISTINA RODRIGUES                            00039158675S000002254836900000000UAT   ES197302201F5100279253425200000000000000000000ANACRISTINA@UVV.BR            RUA SEIS                                          000004               COCAL                         VILA VELHA                    ES29105720BRASIL              0000000000014680000000110146802706765100015500100000001101468000000000001468ANA CRISTINA RODRIGUES                                                                                                                                                                                                                                                                                                                                                                                                                                                           3                                                   00000000                                                                     
DIEFANA D S SOUZA                                     09762164776S000279648000200000000UAT   ES198205271F2100273022626800000000000000000000ANA.SOUZA@UVV.BR              AV CEZAR HILAL                                    001405               SANTA LUCIA                   VITORIA                       ES29055420BRASIL              0000000000031950000000110319502706765100015500100000001103195000000000003195ANA D S SOUZA                                                                                                                                                                                                                                                                                                                                                                                                                                                                    2                                                   00000000                                                                     
DIEFANA P A D P GOMES                                 09937394740S000266703000200000000UAT   ES198408021F2100273062540500000000000000000000ANA.PRADO@UVV.BR              RUA SAO SALVADOR                                  000484               ATAIDE                        VILA VELHA                    ES29108400BRASIL              0000000000033380000000110333802706765100015500100000001103338000000000003338ANA P A D P GOMES                                                                                                                                                                                                                                                                                                                                                                                                                                                                3                                                   00000000                                                                     
DIEFANA P B VIEIRA                                    24899045824S000026530120500000000UAT   ES197310311F2100273329553500000000000000000000ANABORTOLOIA@UVV.BR           AVHUGO MUSSO                                      000953               PRAIA DA COSTA                VILA VELHA                    ES29000440BRASIL              0000000000026030000000110260302706765100015500100000001102603000000000002603ANA P B VIEIRA                                                                                                                                                                                                                                                                                                                                                                                                                                                                   2                                                   00000000                                                                     
DIEFANA P C V FONTES                                  07191647701S000216108000200000000UAT   ES197802011F2100273389013900000000000000000000ANA.FONTES@UVV.BR             RUA PERNAMBUCO                                    000081               PRAIA DA COSTA                VILA VELHA                    ES29000000BRASIL              0000000000028010000000110280102706765100015500100000001102801000000000002801ANA P C V FONTES                                                                                                                                                                                                                                                                                                                                                                                                                                                                 2                                                   00000000                                                                     
DIEFANA PAULA RABELLO LYRA                            00291885713S000023776062200000000UAT   ES197103021F1100273227030800000000000000000000ANA.LYRA@UVV.BR               RUA PERNANBUCO                                    001147               PRAIA DA COSTA                VILA VELHA                    ES29000000BRASIL              0000000000023880000000110238802706765100015500100000001102388000000000002388ANA PAULA RABELLO LYRA                                                                                                                                                                                                                                                                                                                                                                                                                                                           2                                                   00000000                                                                     
DIEFANDRE GONCALVES DE LIMA                           00905085647S000233359006800000000UAT   ES197702141M2100273207695700000000000000000000ANDRE.LIMA@UVV.BR             RUA JULIA LACOURT PENNA                           000175               JARDIM CAMBURI                VITORIA                       ES29090230BRASIL              0000000000033580000000110335802706765100015500100000001103358000000000003358ANDRE GONCALVES DE LIMA                                                                                                                                                                                                                                                                                                                                                                                                                                                          2                                                   00000000                                                                     
DIEFANDRE GUSTAVO ALVES NUNES                         01699707790S000002843762200000000UAT   ES197204251M2100273322904300000000000000000000ANDREALVESFOT@TERRA.COM.BR    RUA ENGY PINTO HOMEM DE AZEVEDO                   000106               JUCUTUQUARA                   VITORIA                       ES29000000BRASIL              0000000000021390000000110213902706765100015500100000001102139000000000002139ANDRE GUSTAVO ALVES NUNES                                                                                                                                                                                                                                                                                                                                                                                                                                                        2                                                   00000000                                                                     
DIEFANDRE SANTOS ROHR                                 07850108744S000000248531500000000UAT   ES197903061M2100279991001200000000000000000000ANDREROHR@UVV.BR              AV MIMOSO DO SUL                                  000130               ITAPARICA                     VILA VELHA                    ES29102240BRASIL              0000000000020520000000110205202706765100015500100000001102052000000000002052ANDRE SANTOS ROHR                                                                                                                                                                                                                                                                                                                                                                                                                                                                2                                                   00000000                                                                     
DIEFANDREA FERREIRA SOUTO                             04790041700S000029136910500000000UAT   ES197404031F2100273329663100000000000000000000ANDREA.SOUTO@UVV.BR           RUA FORTALEZA                                     001549               ITAPUA                        VILA VELHA                    ES29100000BRASIL              0000000000026170000000120261702706765100015500100000001202617000000000002617ANDREA FERREIRA SOUTO                                                                                                                                                                                                                                                                                                                                                                                                                                                            2                                                   00000000                                                                     
DIEFANDREA SARMENTO ARAUJO                            00789582708S000002848401300000000UAT   ES196908061F5100273289160200000000000000000000ARAUJO@UVV.BR                 AVENIDA JERONIMO MONTEIRO                         001029               JABURUNA                      VILA VELHA                    ES29123130BRASIL              0000000000017780000000120177802706765100015500100000001201778000000000001778ANDREA SARMENTO ARAUJO                                                                                                                                                                                                                                                                                                                                                                                                                                                           3                                                   00000000                                                                     
DIEFANDREIA COUTINHO E SILVA                          05511211737S000002200472300000000UAT   ES198011111F1100273229005300000000000000000000ANDREIA.SILVA@UVV.BR          RUA GOIAS                                         000131               ITAPOA                        VILA VELHA                    ES29101350BRASIL              0000000000026820000000110268202706765100015500100000001102682000000000002682ANDREIA COUTINHO E SILVA                                                                                                                                                                                                                                                                                                                                                                                                                                                         2                                                   00000000                                                                     
DIEFANDREOTTE NORBIM LANES                            04236131706S002350324002000000000UAT   ES197606251M2100273327552900000000000000000000ANDREOTTE.LANES@UVV.BR        RUA CARLOS MARTINS                                000235               JARDIM CAMBURI                VITORIA                       ES29090230BRASIL              0000000000032900000000110329002706765100015500100000001103290000000000003290ANDREOTTE NORBIM LANES                                                                                                                                                                                                                                                                                                                                                                                                                                                           2                                                   00000000                                                                     
DIEFANDRESSA G D S TITO                               10613084721S000002503252100000000UAT   ES198501081F2100273399713200000000000000000000ANDRESSASOUZA@UVV.BR          RUA OLAVO BILAC                                   000010               SANTOS DUMONT                 VILA VELHA                    ES29109190BRASIL              0000000000020280000000110202802706765100015500100000001102028000000000002028ANDRESSA G D S TITO                                                                                                                                                                                                                                                                                                                                                                                                                                                              3                                                   00000000                                                                     
DIEFANDRESSA Z NATHANAILIDIS                          05517124739S000289642000200000000UAT   ES198010141F1100273325196500000000000000000000ANDRESSAN@UVV.BR              RUA ALOISIO SIMOES                                000467               BENTO FERREIRA                VITORIA                       ES29050670BRASIL              0000000000028850000000120288502706765100015500100000001202885000000000002885ANDRESSA Z NATHANAILIDIS                                                                                                                                                                                                                                                                                                                                                                                                                                                         2                                                   00000000                                                                     
DIEFANSELMO H S NASCIMENTO                            00958916764S000028694801100000000UAT   ES197503131M1100273322467600000000000000000000ANSELMO.NASCIMENTO@UVV.BR     RUA MANOEL BANDEIRA                               000530               ATAIDE                        VILA VELHA                    ES29108400BRASIL              0000000000032880000000110328802706765100015500100000001103288000000000003288ANSELMO H S NASCIMENTO                                                                                                                                                                                                                                                                                                                                                                                                                                                           2                                                   00000000                                                                     
DIEFANTONIO C F D NEVES                               81439547734S000000260642100000000UAT   ES196503071M2100273235165700000000000000000000                              AV N SENHORA DA PENHA                             000565               PRAIA DO CANTO                VITORIA                       ES29000000BRASIL              0000000000035850000000110358502706765100015500100000001103585000000000003585ANTONIO C F D NEVES                                                                                                                                                                                                                                                                                                                                                                                                                                                              2                                                   00000000                                                                     
DIEFANTONIO F MADDALON                                25206966720S000021178326100000000UAT   ES195202221M2100273339421100000000000000000000ANTONIO.MADALON@UVV.BR        TRAVESSA DAS PALMEIRAS                            000022               ARIBIRI                       VILA VELHA                    ES29100000BRASIL              0000000000022600000000110226002706765100015500100000001102260000000000002260ANTONIO F MADDALON                                                                                                                                                                                                                                                                                                                                                                                                                                                               3                                                   00000000                                                                     
DIEFARILDA DOS SANTOS                                 76269981700S000000291074200000000UAT   ES196206031F1100273399765000000000000000000000ARILDA.SANTOS@UVV.BR          RUA ROSA VERMELHA                                 000481               NOVO MEXICO                   VILA VELHA                    ES29000000BRASIL              0000000000005520000000120055202706765100015500100000001200552000000000000552ARILDA DOS SANTOS                                                                                                                                                                                                                                                                                                                                                                                                                                                                3                                                   00000000                                                                     
DIEFARNALDO PATERLINE TOGNERI                         00327403799S000294644000000000000UAT   ES196908201M2100273343636200000000000000000000ARNALDO.TOGNERI@UVV.BR        RUA DARIO BELTRAME                                000109               VERA CRUZ                     CARIACICA                     ES29146750BRASIL              0000000000029900000000110299002706765100015500100000001102990000000000002990ARNALDO PATERLINE TOGNERI                                                                                                                                                                                                                                                                                                                                                                                                                                                        2                                                   00000000                                                                     
DIEFAUGUSTO DE ANDRADE MANSUR                         08364596799S000000257041700000000UAT   ES197901271M2100273229769000000000000000000000AUGUSTO.MANSUR@UVV.BR         AV HUGO MUSSO                                     000658               PRAIA DA COSTA                VILA VELHA                    ES29000000BRASIL              0000000000031770000000110317702706765100015500100000001103177000000000003177AUGUSTO DE ANDRADE MANSUR                                                                                                                                                                                                                                                                                                                                                                                                                                                        2                                                   00000000                                                                     
DIEFAYRTON FAIER MACHADO                              00292016751S000274948000000000000UAT   ES197002021M1100273229815500000000000000000000                              RUA DR ANNOR DA SILVA                             000605               BOA VISTA I                   VILA VELHA                    ES29102690BRASIL              0000000000035700000000110357002706765100015500100000001103570000000000003570AYRTON FAIER MACHADO                                                                                                                                                                                                                                                                                                                                                                                                                                                             2                                                   00000000                                                                     
DIEFBEATRIZ S M KROHLING                              50290924804S000029191522000000000UAT   ES194912021F2100273329226200000000000000000000BEATRIZ.MARTINS@UVV.BR        AV ANTONIO GIL VELOSO                             001800               PRAIA DA COSTA                VILA VELHA                    ES29000000BRASIL              0000000000022170000000110221702706765100015500100000001102217000000000002217BEATRIZ S M KROHLING                                                                                                                                                                                                                                                                                                                                                                                                                                                             2                                                   00000000                                                                     
DIEFBERNABE ALFREDO SANJOMBI                          01201995647S0002126014A0100000000UAT   ES196809073M2100279857349800000000000000000000BERNABE.SANJOMBI@UVV.BR       RUA COMISSARIO OCTAVIO QUEIROZ                    000905               JARDIM DA PENHA               VITORIA                       ES29000000BRASIL              0000000000033010000000110330102706765100015500100000001103301000000000003301BERNABE ALFREDO SANJOMBI                                                                                                                                                                                                                                                                                                                                                                                                                                                         2                                                   00000000                                                                     
DIEFBETHANIA A C ZANDOMINEGUE                         08518702798S000282848000100000000UAT   ES197807031F2100273227757600000000000000000000BETHANIA.COSTA@UVV.BR         RUA RONALDO SCAMPINI                              000440               BAIRRO DA PENHA               VITORIA                       ES29047230BRASIL              0000000000030310000000110303102706765100015500100000001103031000000000003031BETHANIA A C ZANDOMINEGUE                                                                                                                                                                                                                                                                                                                                                                                                                                                        2                                                   00000000                                                                     
DIEFBIANCA G BUSTAMANTE                               13335818741S000002966766200000000UAT   ES199210091F1100273389082900000000000000000000BIANCA.BUSTAMANTE@UVV.BR      RUA ACACIA                                        000260               JARDIM ASTECA                 VILA VELHA                    ES29104550BRASIL              0000000000027940000000110279402706765100015500100000001102794000000000002794BIANCA G BUSTAMANTE                                                                                                                                                                                                                                                                                                                                                                                                                                                              3                                                   00000000                                                                     
DIEFBIANCA P L VALDO                                  02865148777S000023099910800000000UAT   ES197209091F2100273062877200000000000000000000BIANCA.LANZETTA@UVV.BR        RUA CASTELO BRANCO                                000150               PRAIA DA COSTA                VILA VELHA                    ES29000000BRASIL              0000000000032980000000110329802706765100015500100000001103298000000000003298BIANCA P L VALDO                                                                                                                                                                                                                                                                                                                                                                                                                                                                 2                                                   00000000                                                                     
DIEFBRUNA DE SOUZA NUNES                              13294724705S024635711002000000000UAT   ES199002041F1100273208972300000000000000000000BRUNA.NUNES@UVV.BR            ED ALFAZEMA AP 201                                000000               COQUEIRAL DE ITAPARICA        VILA VELHA                    ES29102385BRASIL              0000000000032760000000110327602706765100015500100000001103276000000000003276BRUNA DE SOUZA NUNES                                                                                                                                                                                                                                                                                                                                                                                                                                                             3                                                   00000000                                                                     
DIEFBRUNO A G KLIPPEL                                 09030814748S000283719000200000000UAT   ES198012301M2100273225724400000000000000000000BRUNO.KLIPPEL@UVV.BR          RUA AGENOR AMARO DOS SANTOS                       001141               JARDIM CAMBURI                VITORIA                       ES29090230BRASIL              0000000000031960000000110319602706765100015500100000001103196000000000003196BRUNO A G KLIPPEL                                                                                                                                                                                                                                                                                                                                                                                                                                                                2                                                   00000000                                                                     
DIEFBRUNO BIRRO COUTINHO                              06852098737S000002544421300000000UAT   ES197506161M2100273215495100000000000000000000BRUNO.COUTINHO@UVV.BR         RUA CARIJOS                                       001034               JARDIM DA PENHA               VITORIA                       ES29000000BRASIL              0000000000025950000000110259502706765100015500100000001102595000000000002595BRUNO BIRRO COUTINHO                                                                                                                                                                                                                                                                                                                                                                                                                                                             2                                                   00000000                                                                     
DIEFCAMILO JOSE D AVILA COUTO                         00282613722S000254185000000000000UAT   ES197104301M2100273340808400000000000000000000CAMILO.COUTO@UVV.BR           AV JOSE JULIO DE SOUZA                            001270               ITAPARICA                     VILA VELHA                    ES29102240BRASIL              0000000000032910000000110329102706765100015500100000001103291000000000003291CAMILO JOSE D AVILA COUTO                                                                                                                                                                                                                                                                                                                                                                                                                                                        2                                                   00000000                                                                     
DIEFCARLA T J K SILVA                                 05535652733S000025909000200000000UAT   ES198302071F2100273239117800000000000000000000CARLA.SILVA@UVV.BR            RUA LUIZ FERNANDES REIS                           000252               PRAIA DA COSTA                VILA VELHA                    ES29000000BRASIL              0000000000033490000000110334902706765100015500100000001103349000000000003349CARLA T J K SILVA                                                                                                                                                                                                                                                                                                                                                                                                                                                                2                                                   00000000                                                                     
DIEFCARLOS A K PINHEIRO                               99817209768S000214481000000000000UAT   ES196901171M2100273349546900000000000000000000CARLOS.PINHEIRO@UVV.BR        RUA HILTON BRAGA BL 3                             000550               PARQUE DAS GAIVOTAS           VILA VELHA                    ES29000000BRASIL              0000000000032850000000110328502706765100015500100000001103285000000000003285CARLOS A K PINHEIRO                                                                                                                                                                                                                                                                                                                                                                                                                                                              2                                                   00000000                                                                     
DIEFCARLOS G C PUPPIN                                 00777461714S000002435231400000000UAT   ES196501241M2100279989724300000000000000000000CARLOS.PUPPIN@UVV.BR          AV ANTONIO GIL VELOSO                             000588               PRAIA DA COSTA                VILA VELHA                    ES29000000BRASIL              0000000000010000000000110100002706765100015500100000001101000000000000001000CARLOS G C PUPPIN                                                                                                                                                                                                                                                                                                                                                                                                                                                                2                                                   00000000                                                                     
DIEFCELSO RODRIGUES SIMOES                            91361958715S000233036005100000000UAT   ES196702201M2100273314327900000000000000000000                              RUA JOSE PINTO DA SILVA                           000091               MATA DA PRAIA                 VITORIA                       ES29065450BRASIL              0000000000035970000000110359702706765100015500100000001103597000000000003597CELSO RODRIGUES SIMOES                                                                                                                                                                                                                                                                                                                                                                                                                                                           4                                                   00000000                                                                     
DIEFCHARLES G D SOARES                                68920180687S000024250665200000000UAT   ES197010181M2100313329416800000000000000000000CDUCA@UVV.BR                  RUA EROTHILDES PENNA MEDINA                       000301               PRAIA DA COSTA                VILA VELHA                    ES29000000BRASIL              0000000000026410000000110264102706765100015500100000001102641000000000002641CHARLES G D SOARES                                                                                                                                                                                                                                                                                                                                                                                                                                                               2                                                   00000000                                                                     
DIEFCHARLES SOUZA DA SILVA                            03145936751S000021721563300000000UAT   ES197301081M2100273345489700000000000000000000CHARLES.SILVA@UVV.BR          AV CARLOS MOREIRA LIMA                            000460               BENTO FERREIRA                VITORIA                       ES29050670BRASIL              0000000000026610000000110266102706765100015500100000001102661000000000002661CHARLES SOUZA DA SILVA                                                                                                                                                                                                                                                                                                                                                                                                                                                           2                                                   00000000                                                                     
DIEFCHRISTIANE A D AZEREDO                            07223941790S000247022002000000000UAT   ES197806241F4100273345344600000000000000000000                              P WOLGHANO NETTO                                  000020               JARDIM DA PENHA               VITORIA                       ES29000000BRASIL              0000000000035550000000110355502706765100015500100000001103555000000000003555CHRISTIANE A D AZEREDO                                                                                                                                                                                                                                                                                                                                                                                                                                                           4                                                   00000000                                                                     
DIEFCHRISTIANE S D MATTOS                             06894505756S000000218271500000000UAT   ES197412221F5100273299337600000000000000000000CHRISTIANE.MATTOS@UVV.BR      RUA GOIAS                                         000071               ITAPUA                        VILA VELHA                    ES29100000BRASIL              0000000000023460000000110234602706765100015500100000001102346000000000002346CHRISTIANE S D MATTOS                                                                                                                                                                                                                                                                                                                                                                                                                                                            3                                                   00000000                                                                     
DIEFCINTIA COELHO DIAS                                01712019732S022754784004000000000UAT   ES197009101F2100273225432800000000000000000000                              RUA ULISSES SARMENTO                              000450               PRAIA DE STA HELENA           VITORIA                       ES29055070BRASIL              0000000000035940000000110359402706765100015500100000001103594000000000003594CINTIA COELHO DIAS                                                                                                                                                                                                                                                                                                                                                                                                                                                               4                                                   00000000                                                                     
DIEFCINTIA RIBEIRO MUNOZ                              28260935848S000026601126700000000UAT   ES197909131F2100273229752800000000000000000000CINTIA.MUNOZ@UVV.BR           RUA GOIAS                                         000131               ITAPUA                        VILA VELHA                    ES29100000BRASIL              0000000000025050000000110250502706765100015500100000001102505000000000002505CINTIA RIBEIRO MUNOZ                                                                                                                                                                                                                                                                                                                                                                                                                                                             2                                                   00000000                                                                     
DIEFCLARISSE SIMOES COELHO                            03809563730S000021239811600000000UAT   ES197406141F2100273299590900000000000000000000CLARISSE.COELHO@UVV.BR        RUA RIO BRANCO                                    000415               PRAIA DA COSTA                VILA VELHA                    ES29000000BRASIL              0000000000026050000000110260502706765100015500100000001102605000000000002605CLARISSE SIMOES COELHO                                                                                                                                                                                                                                                                                                                                                                                                                                                           2                                                   00000000                                                                     
DIEFCLAUDIA REGINA FRAGA                              00517877767S000000232729800000000UAT   ES197001271F1100273033380000000000000000000000CLAUDIAR@UVV.BR               RUA 03                                            000022               SANTA MONICA                  VILA VELHA                    ES29105200BRASIL              0000000000014410000000110144102706765100015500100000001101441000000000001441CLAUDIA REGINA FRAGA                                                                                                                                                                                                                                                                                                                                                                                                                                                             3                                                   00000000                                                                     
DIEFCLAUDIO HILARIO                                   41696581753S000002210851200000000UAT   ES195701281M4100273299184000000000000000000000CLAUDIO.HILARIO@UVV.BR        RUA RAUL POMPEIA                                  000305               BOA VISTA II                  VILA VELHA                    ES29102770BRASIL              0000000000026900000000110269002706765100015500100000001102690000000000002690CLAUDIO HILARIO                                                                                                                                                                                                                                                                                                                                                                                                                                                                  3                                                   00000000                                                                     
DIEFCLECIO J M D A LEMOS                              10062591711S000295971000200000000UAT   ES198306121M1100279888263500000000000000000000CLECIO.LEMOS@UVV.BR           RUA BEGONIA                                       000212               JARDIM PLANALTO               COLATINA                      ES29701710BRASIL              0000000000032180000000110321802706765100015500100000001103218000000000003218CLECIO J M D A LEMOS                                                                                                                                                                                                                                                                                                                                                                                                                                                             2                                                   00000000                                                                     
DIEFCLOVIS A D F CUNHA                                92632653720S000000232873600000000UAT   ES196501181M1100273229102500000000000000000000CLOVIS.AQUINO@UVV.BR          RUA VINICIUS TORRES                               000352               PRAIA DA COSTA                VILA VELHA                    ES29000440BRASIL              0000000000024870000000110248702706765100015500100000001102487000000000002487CLOVIS A D F CUNHA                                                                                                                                                                                                                                                                                                                                                                                                                                                               2                                                   00000000                                                                     
DIEFCRISTIANO BIANCARDI                               07449619717S000002743631500000000UAT   ES197712201M1100273327055200000000000000000000CBIANC@UVV.BR                 RUA IVAN NEIVA NEVES                              000580               ITAPARICA                     VILA VELHA                    ES29102240BRASIL              0000000000020250000000110202502706765100015500100000001102025000000000002025CRISTIANO BIANCARDI                                                                                                                                                                                                                                                                                                                                                                                                                                                              2                                                   00000000                                                                     
DIEFCRISTIANO V D BARROS                              07915447700S000238501000200000000UAT   ES197712221M2100273340124600000000000000000000CRISTIANO.BARROS@UVV.BR       RUA JOSE PENA MEDINA                              000150               PRAIA DA COSTA                VILA VELHA                    ES29000000BRASIL              0000000000029300000000110293002706765100015500100000001102930000000000002930CRISTIANO V D BARROS                                                                                                                                                                                                                                                                                                                                                                                                                                                             2                                                   00000000                                                                     
DIEFCRISTINA A F LANGONI                              47149922791S000029138540000000000UAT   ES195704281F2100289880308800000000000000000000CRISTINA@FONTESLANGONI.COM.BR RUA JULIO DA SILVA ROCHA                          000004               IBC                           CACHOEIRO DO ITAPEMIRIM       ES29312010BRASIL              0000000000035950000000110359502706765100015500100000001103595000000000003595CRISTINA A F LANGONI                                                                                                                                                                                                                                                                                                                                                                                                                                                             4                                                   00000000                                                                     
DIEFCYNTHIA M L SANTOS                                06892220762S000225502000100000000UAT   ES197606111F2100273181049200000000000000000000CYNTHIA.SANTOS@UVV.BR         PRACA CRISTOVAO JAQUES                            000065               PRAIA DE STA HELENA           VITORIA                       ES29055070BRASIL              0000000000028060000000110280602706765100015500100000001102806000000000002806CYNTHIA M L SANTOS                                                                                                                                                                                                                                                                                                                                                                                                                                                               2                                                   00000000                                                                     
DIEFDAHER ANTONIO QUEIROZ                             08486022770S000224969000200000000UAT   ES197909271M2100273207729700000000000000000000DAHER.QUEIROZ@UVV.BR          RUA CORONEL SCHWAB FILHO                          000075               BENTO FERREIRA                VITORIA                       ES29050670BRASIL              0000000000033260000000110332602706765100015500100000001103326000000000003326DAHER ANTONIO QUEIROZ                                                                                                                                                                                                                                                                                                                                                                                                                                                            2                                                   00000000                                                                     
DIEFDANIEL F DONADELLO                                07419305790S000214113691800000000UAT   ES197801241M1100273324145700000000000000000000DANIEL.DONADELLO@UVV.BR       RUA CIRO LOPES PEREIRA                            000330               JARDIM DA PENHA               VITORIA                       ES29000400BRASIL              0000000000023940000000110239402706765100015500100000001102394000000000002394DANIEL F DONADELLO                                                                                                                                                                                                                                                                                                                                                                                                                                                               2                                                   00000000                                                                     
DIEFDANIELA F R K S LAIGNIE                           08520549713S000266523000200000000UAT   ES198108281F2100273225956600000000000000000000DANIELA.LAIGNIER@UVV.BR       RUA DA GRECIA                                     000085               BARRO VERMELHO                VITORIA                       ES29655500BRASIL              0000000000032950000000110329502706765100015500100000001103295000000000003295DANIELA FEU ROSA KROEFF DE SOUZA LAIGNIE                                                                                                                                                                                                                                                                                                                                                                                                                                         2                                                   00000000                                                                     
DIEFDANIELA REGINA DE ALMEIDA                         85187771604S000024400007200000000UAT   ES197104101F2100273339968100000000000000000000DANIELA.ALMEIDA@UVV.BR        AV JOSE JULIO DE SOUZA                            003600               ITAPARICA                     VILA VELHA                    ES29102240BRASIL              0000000000032720000000110327202706765100015500100000001103272000000000003272DANIELA REGINA DE ALMEIDA                                                                                                                                                                                                                                                                                                                                                                                                                                                        3                                                   00000000                                                                     
DIEFDANIELLA PONTES SPERANDIO                         08379757785S000026418313700000000UAT   ES197805181F1100273215521600000000000000000000DANIELA.SPERANDIO@UVV.BR      AVENIDA ROBERT KENNEDY                            000037               ITARARE                       VITORIA                       ES29047710BRASIL              0000000000026530000000110265302706765100015500100000001102653000000000002653DANIELLA PONTES SPERANDIO                                                                                                                                                                                                                                                                                                                                                                                                                                                        3                                                   00000000                                                                     
DIEFDANIELLY C G D PAULA                              12359544713S000251217000200000000UAT   ES198810031F2100273258221200000000000000000000                              RUA DOS GATURANOS                                 000052               PORTO CANOA                   SERRA                         ES29168000BRASIL              0000000000035860000000110358602706765100015500100000001103586000000000003586DANIELLY C G D PAULA                                                                                                                                                                                                                                                                                                                                                                                                                                                             2                                                   00000000                                                                     
DIEFDEBORA BRIZON BRAGA                               08124627770S000002749071800000000UAT   ES197310081F1100279940274000000000000000000000DEBORA.BRAGA@UVV.BR           AV HUGO MUSSO                                     001555               ITAPOA                        VILA VELHA                    ES29101350BRASIL              0000000000025220000000110252202706765100015500100000001102522000000000002522DEBORA BRIZON BRAGA                                                                                                                                                                                                                                                                                                                                                                                                                                                              2                                                   00000000                                                                     
DIEFDENIS RODRIGUES DA SILVA                          09078083794S000248326000200000000UAT   ES198006091M1100273386888200000000000000000000DENIS.SILVA@UVV.BR            RUA MARCELINO RANGEL                              000083               MORADA DE CAMPO GRANDE        CARIACICA                     ES29144654BRASIL              0000000000032870000000110328702706765100015500100000001103287000000000003287DENIS RODRIGUES DA SILVA                                                                                                                                                                                                                                                                                                                                                                                                                                                         2                                                   00000000                                                                     
DIEFDENISE C R PICCIN                                 71997628791S000285499000000000000UAT   ES195701031F4100273345876400000000000000000000DENISE.ROXO@UVV.BR            RUA DA GRECIA                                     000205               BARRO VERMELHO                VITORIA                       ES29655500BRASIL              0000000000031600000000110316002706765100015500100000001103160000000000003160DENISE C R PICCIN                                                                                                                                                                                                                                                                                                                                                                                                                                                                2                                                   00000000                                                                     
DIEFDENISE COUTINHO ENDRINGER                         05213295746S000002544561300000000UAT   ES197604151F2100273063663600000000000000000000DENISE.ENDRINGER@UVV.BR       RUA MANOEL DE ABREU                               000594               GUARANHUS                     VILA VELHA                    ES29100000BRASIL              0000000000025930000000110259302706765100015500100000001102593000000000002593DENISE COUTINHO ENDRINGER                                                                                                                                                                                                                                                                                                                                                                                                                                                        2                                                   00000000                                                                     
DIEFDENISE GALVEAS TERRA                              76445747787S000000267670900000000UAT   ES196312191F2100273349889700000000000000000000DENISE.GALVEAS@TERRA.COM.BR   RUA MARANHAO                                      000095               PRAIA DA COSTA                VILA VELHA                    ES29000000BRASIL              0000000000019950000000120199502706765100015500100000001201995000000000001995DENISE GALVEAS TERRA                                                                                                                                                                                                                                                                                                                                                                                                                                                             2                                                   00000000                                                                     
DIEFDIEGO RODRIGUES FREIRE                            05735544713S000000243652300000000UAT   ES198506291M2100273326473800000000000000000000DIEGO.FREIRE@UVV.BR           RUA AGUA FRIA                                     000008               VALE ENCANTADO                VILA VELHA                    ES29100000BRASIL              0000000000020290000000120202902706765100015500100000001202029000000000002029DIEGO RODRIGUES FREIRE                                                                                                                                                                                                                                                                                                                                                                                                                                                           3                                                   00000000                                                                     
DIEFDIEGO THADEU JUVENATO                             10639304729S000288029000200000000UAT   ES198312261M1100273389154600000000000000000000DIEGO.THADEU@UVV.BR           RUA MOSCOU                                        000020               ARACAS                        VILA VELHA                    ES29000000BRASIL              0000000000029210000000120292102706765100015500100000001202921000000000002921DIEGO THADEU JUVENATO                                                                                                                                                                                                                                                                                                                                                                                                                                                            3                                                   00000000                                                                     
DIEFDOMINIK LENZ                                      06086749744S000000283694100000000UAT   ES197003203M2100273063663600000000000000000000DOMINIC.LENZ@UVV.BR           RUA MANOEL ABREU                                  000594               GUARANHUS                     VILA VELHA                    ES29100000BRASIL              0000000000026550000000110265502706765100015500100000001102655000000000002655DOMINIK LENZ                                                                                                                                                                                                                                                                                                                                                                                                                                                                     2                                                   00000000                                                                     
DIEFDOUGLAS HAESE                                     07804475730S000002167062000000000UAT   ES197711221M2100279900893800000000000000000000DOUGLAS.HAESE@UVV.BR          RUA MANOEL PINTO RIBEIRO                          000031               ITAGUARI                      CARIACICA                     ES2912001BRASIL               0000000000025080000000110250802706765100015500100000001102508000000000002508DOUGLAS HAESE                                                                                                                                                                                                                                                                                                                                                                                                                                                                    2                                                   00000000                                                                     
DIEFDULCIMAR PEREIRA                                  00805152741S000229695000000000000UAT   ES197012281F1100273340050500000000000000000000DULCIMAR.PEREIRA@UVV.BR       RUA TIRADENTES                                    000094               GLORIA                        VILA VELHA                    ES29123001BRASIL              0000000000031940000000110319402706765100015500100000001103194000000000003194DULCIMAR PEREIRA                                                                                                                                                                                                                                                                                                                                                                                                                                                                 2                                                   00000000                                                                     
DIEFEDINA M F D O.CURZIO                              33448558672S000262863005800000000UAT   ES195412041F2100273229848500000000000000000000EDINA.CURZIO@UVV.BR           AV SAO PAULO                                      002100               PRAIA DA COSTA                VILA VELHA                    ES29000000BRASIL              0000000000029560000000110295602706765100015500100000001102956000000000002956EDINA M F D O.CURZIO                                                                                                                                                                                                                                                                                                                                                                                                                                                             2                                                   00000000                                                                     
DIEFEDNILDES A O RUA                                  97451657787S000289797001200000000UAT   ES196906271F2100273349446800000000000000000000EDINILDES.DUA@UVV.BR          AV EST JOSE JULIO DE SOUZA                        001900               COQUEIRAL DE ITAPARICA        VILA VELHA                    ES29102385BRASIL              0000000000029790000000110297902706765100015500100000001102979000000000002979EDNILDES A O RUA                                                                                                                                                                                                                                                                                                                                                                                                                                                                 2                                                   00000000                                                                     
DIEFEDSON FERREIRA VIANA                              00817039708S000002543221200000000UAT   ES197710311M1100279622578300000000000000000000EDSON.VIANA@UVV.BR            RUA JACUTINGA                                     000009               PONTAL DAS GARCAS             VILA VELHA                    ES29106115BRASIL              0000000000026500000000110265002706765100015500100000001102650000000000002650EDSON FERREIRA VIANA                                                                                                                                                                                                                                                                                                                                                                                                                                                             3                                                   00000000                                                                     
DIEFEDUARDO ALVES MACHADO                             00381464792S000002237103200000000UAT   ES196409241M2100273299477600000000000000000000EDUARDO.MACHADO@UVV.BR        RUA SAO PAULO                                     001400               PRAIA DA COSTA                VILA VELHA                    ES29000000BRASIL              0000000000024330000000110243302706765100015500100000001102433000000000002433EDUARDO ALVES MACHADO                                                                                                                                                                                                                                                                                                                                                                                                                                                            2                                                   00000000                                                                     
DIEFEDUARDO IVAN PENDEK                               17125325882S000023822012900000000UAT   ES197409041M1100279860111700000000000000000000EDUARDO.PENDEK@UVV.BR         RUA ADERBAL ATAIDE GUIMARAES                      000076               SANTO ANTONIO                 VITORIA                       ES29026330BRASIL              0000000000024710000000110247102706765100015500100000001102471000000000002471EDUARDO IVAN PENDEK                                                                                                                                                                                                                                                                                                                                                                                                                                                              3                                                   00000000                                                                     
DIEFEDUARDO RAPOSO MONTEIRO                           07132612778S000026467512400000000UAT   ES197604061M6100278196669000000000000000000000EDUARDO.RAPOSO@UVV.BR         RUA QUINZE DE NOVEMBRO                            000190               PRAIA DA COSTA                VILA VELHA                    ES29000440BRASIL              0000000000025590000000110255902706765100015500100000001102559000000000002559EDUARDO RAPOSO MONTEIRO                                                                                                                                                                                                                                                                                                                                                                                                                                                          2                                                   00000000                                                                     
DIEFELAINE CORREA COLODETTI                           04379927725S000002445111400000000UAT   ES197610261F2100279962737700000000000000000000ELAINE@UVV.BR                 RUA ALFA                                          000033               ARIBIRI                       VILA VELHA                    ES29100000BRASIL              0000000000020360000000110203602706765100015500100000001102036000000000002036ELAINE CORREA COLODETTI                                                                                                                                                                                                                                                                                                                                                                                                                                                          3                                                   00000000                                                                     
DIEFELAINE FRIZZERA SIQUEIRA                          10727822780S000002472812400000000UAT   ES198508211F2100273339238700000000000000000000ELAINE.FRIZZERA@UVV.BR        RUA 11                                            000007               COCAL                         VILA VELHA                    ES29105720BRASIL              0000000000024060000000110240602706765100015500100000001102406000000000002406ELAINE FRIZZERA SIQUEIRA                                                                                                                                                                                                                                                                                                                                                                                                                                                         3                                                   00000000                                                                     
DIEFELIANA FERRAZ DE BRITO                            71141820749S000271988000000000000UAT   ES195902181F4100273340141200000000000000000000ELIANA.BRITO@UVV.BR           RUA AFONSO PENA                                   000106               PRAIA DA COSTA                VILA VELHA                    ES29000000BRASIL              0000000000032820000000110328202706765100015500100000001103282000000000003282ELIANA FERRAZ DE BRITO                                                                                                                                                                                                                                                                                                                                                                                                                                                           2                                                   00000000                                                                     
DIEFELIZABETH NADER SIMOES                            00984504761S000002291731300000000UAT   ES196812281F1100273225968700000000000000000000ENADER@UVV.BR                 RUA ALMIRANTE SOIDO                               000053               PRAIA DE STA HELENA           VITORIA                       ES29055070BRASIL              0000000000013030000000110130302706765100015500100000001101303000000000001303ELIZABETH NADER SIMOES                                                                                                                                                                                                                                                                                                                                                                                                                                                           2                                                   00000000                                                                     
DIEFELKE J B N CARDOSO                                60991984820S000023867534900000000UAT   ES194109281F3100193301203300000000000000000000EJBNCARD@USP.BR               RUA DO ROSARIO                                    001340               CENTRO                        PIRACICABA                    SP13400186BRASIL              0000000000031010000000110310102706765100015500100000001103101000000000003101ELKE J B N CARDOSO                                                                                                                                                                                                                                                                                                                                                                                                                                                               2                                                   00000000                                                                     
