H027067651000155N00000720140228112441NPSOCIDADE EDUCACIONAL DO ESPIRITO SANTO            00103300100010000000000000AV COMISSARIO JOSE DANTAS DE MELO                 000021                    BOA VISTA II        VILA VELHA          ES291029020027212227000000000000000000000000                                                                     000000000000000000000000000000                                                                                                                                                                                                                                                                                                                                                                                                                                                                                                                                                                                                                                                  
DIEFADJALME DIAS FERREIRA                             75201674704S000989105310800000000CREA  RJ196309301M1200283543133500000000000999748741ADJALMEDF@GMAIL.COM           AV SETE DE NOVEMBRO                               000040               CENTRO                        IBATIBA                       ES29395000BRASIL              0000002014608460000020146084602706765100015500100000201460846000000201460846ADJALME DIAS FERREIRA                                                                                                                                                                                                                                                                                                                                                                                                                                                            1                                                   00000000                                                                     
DIEFADORISIO LEAL ANDRADE                             01992142718S000001121785500000000PC    197410271M110000273289752500000000000099330992ADORISIO@HOTMAIL.COM          RUA JOAO ANTONIO AFONSO                           000111               SANTA INES                    VILA VELHA                    ES29108048BRASIL              0000002014619380000020146193802706765100015500100000201461938000000201461938ADORISIO LEAL ANDRADE                                                                                                                                                                                                                                                                                                                                                                                                                                                            1                                                   00000000                                                                     
DIEFALEGNA PORTES BALIANO                             11343685770S000001211105500000000SSP   ES198806041F1100273326299000000000000099332997ALEGNA.BALIANO@HOTMAIL.COM    RUA ALEXANDRINA                                   000031               SOTELANDIA                    CARIACICA                     ES29140677BRASIL              0000002014613390000020146133902706765100015500100000201461339000000201461339ALEGNA PORTES BALIANO                                                                                                                                                                                                                                                                                                                                                                                                                                                            1                                                   00000000                                                                     
DIEFALINE DE CASTRO ALVARENGA                         08581477771S000000000000100000000      198006081F120000273636256900000000000096002025ALINEALV@GMAIL.COM            RUA RACHEL VITALINO DE BRITO                      000110               HELIO FERRAZ                  SERRA                         ES29160596BRASIL              0000002014620330000020146203302706765100015500100000201462033000000201462033ALINE DE CASTRO ALVARENGA                                                                                                                                                                                                                                                                                                                                                                                                                                                        1                                                   00000000                                                                     
DIEFAMAURI GONCALVES REZENDE                          23261897791S000019251770500000000IFP   RJ194810201M1100273421225600000000000992942786AMAURI.REZENDE@UVV.BR         AVENIDA HUGO MUSSO                                000787               PRAIA DA COSTA                VILA VELHA                    ES29101280BRASIL              0000002014619760000020146197602706765100015500100000201461976000000201461976AMAURI GONCALVES REZENDE                                                                                                                                                                                                                                                                                                                                                                                                                                                         1                                                   00000000                                                                     
DIEFANDRE LUIZ PAIER BARROSO                          12700222709S000001230353900000000ES    ES198811101M1100273229205800000000000097166065ANDREPAIERB@GMAIL.COM         RUA HUMBERTO SERRANO                              001569               PRAIA DE ITAPOA               VILA VELHA                    ES29101595BRASIL              0000002014604180000020146041802706765100015500100000201460418000000201460418ANDRE LUIZ PAIER BARROSO                                                                                                                                                                                                                                                                                                                                                                                                                                                         1                                                   00000000                                                                     
DIEFANDREIA G F FRIQUES                               04030747620S000001308935600000000SSP   ES198003181F1200273325333200000000000279975580ANDREIAFRIQUES@HOTMAIL.COM    AVENIDA DANTE MICHELINE                           001857               MATA DA PRAIA                 VITORIA                       ES29066430BRASIL              0000002014596310000020145963102706765100015500100000201459631000000201459631ANDREIA G F FRIQUES                                                                                                                                                                                                                                                                                                                                                                                                                                                              1                                                   00000000                                                                     
DIEFANDRESSA D S L RODRIGUES                          08517985788S000001168309300000000SSP   ES198010111F1300273343019000000000000999452111ANDRESSASLIMA@YAHOO.COM.BR    RUA AUGUSTO SILVA                                 000004               SOTEMA                        CARIACICA                     ES29152150BRASIL              0000002014617880000020146178802706765100015500100000201461788000000201461788ANDRESSA D S L RODRIGUES                                                                                                                                                                                                                                                                                                                                                                                                                                                         1                                                   00000000                                                                     
DIEFANGELA C D S GHIZI                                36896764015S001800736960900000000SSP   RS196109241F1100273242278900000000000000000000AGHIZI@UVV.BR                 RUA DOS GOLFINHOS                                 000091               RETIRO DO CONGO               VILA VELHA                    ES29100000BRASIL              0000002014618320000020146183202706765100015500100000201461832000000201461832ANGELA C D S GHIZI                                                                                                                                                                                                                                                                                                                                                                                                                                                               1                                                   00000000                                                                     
DIEFANSELMO H S NASCIMENTO                            0958916764S0000000194440700000000SSPES ES197503131M1200273052137000000000000092561557HUDSON@MERCCATO.COM.BR        RUA MANOEL BANDEIRA                               000530               ATAIDE                        VILA VELHA                    ES29119210BRASIL              0000002014604490000020146044902706765100015500100000201460449000000201460449ANSELMO H S NASCIMENTO                                                                                                                                                                                                                                                                                                                                                                                                                                                           1                                                   00000000                                                                     
DIEFBHARBARA DELBONI STUHR                            11870402740S009445659250400000000SSP   ES199001261F1100273720134800000000000099875014                              RUA MARTINHO MAXIMO SCARDUA                       000000               CENTRO                        ITARANA                       ES29620000BRASIL              0000002014616910000020146169102706765100015500100000201461691000000201461691BHARBARA DELBONI STUHR                                                                                                                                                                                                                                                                                                                                                                                                                                                           1                                                   00000000                                                                     
DIEFCARLOS H T MATHIAS                                11999455797S000001176999500000000SPTC  ES198608271M1100273396834900000000000992999549CARLOSHENRIQUETM@GMAIL.COM    RUA EDMILSON VAREJAO                              000062               ALTO LAGE                     CARIACICA                     ES29151050BRASIL              0000002014618520000020146185202706765100015500100000201461852000000201461852CARLOS H T MATHIAS                                                                                                                                                                                                                                                                                                                                                                                                                                                               1                                                   00000000                                                                     
DIEFCARLOS MOACIR COLODETE                            07251921782S000001124813500000000SPTC  ES197804041M1300283542475300000000000099150122CARLOSCOLODETE@GMAIL.COM      RUA ROSA AMBROSIM                                 000027               SANTO AGOSTINHO               CASTELO                       ES29360000BRASIL              0000002014604440000020146044402706765100015500100000201460444000000201460444CARLOS MOACIR COLODETE                                                                                                                                                                                                                                                                                                                                                                                                                                                           1                                                   00000000                                                                     
DIEFCELIO MOREIRA LOPES                               11941831745S000001220084200000000SSP   ES199001171M1300279936884000000000000999368840CELIOMLOPES@HOTMAIL.COM       R GETULIO MIRANDA                                 000211               SANTA MARTHA                  VITORIA                       ES29046680BRASIL              0000002014611010000020146110102706765100015500100000201461101000000201461101CELIO MOREIRA LOPES                                                                                                                                                                                                                                                                                                                                                                                                                                                              1                                                   00000000                                                                     
DIEFCHRISTIANE FESTA PERDIGAO                         91312590734S000000001759900000000OAB   ES196206261F1200273434620000000000000099555983CHRISTIANE.PERDIGAO@DOCTUM.EDU.BRAV PAULO PEREIRA GOMES                         000091               MORADA DE LARANJEIRAS         SERRA                         ES29166828BRASIL              0000002014612140000020146121402706765100015500100000201461214000000201461214CHRISTIANE FESTA PERDIGAO                                                                                                                                                                                                                                                                                                                                                                                                                                                        1                                                   00000000                                                                     
DIEFCLAUDIO D C O FILHO                               07815251790S000001128357700000000SSP   ES197702191M1100273224271400000000000279995246CFILHO_01@OI.COM.BR           CHAPOT PRESVOT                                    000328               PRAIA DO CANTO                VITORIA                       ES29055410BRASIL              0000002014599260000020145992602706765100015500100000201459926000000201459926CLAUDIO D C O FILHO                                                                                                                                                                                                                                                                                                                                                                                                                                                              1                                                   00000000                                                                     
DIEFCLOVIS A D F CUNHA                                92632653720S000000158920700000000SPTC  ES196501181M1100273229102500000000000981662509CLOVISAQUINO.ART@GMAIL.COM    R VINICIUS TORRES                                 000352               PRAIA DA COSTA                VITORIA                       ES29101105BRASIL              0000002014619400000020146194002706765100015500100000201461940000000201461940CLOVIS A D F CUNHA                                                                                                                                                                                                                                                                                                                                                                                                                                                               1                                                   00000000                                                                     
DIEFDANIELE MAGRI AZEVEDO                             09451507760S000001174459600000000ES    ES198310241F1100273090099900000000000081330014DANIELEMAGRI@GMAIL.COM        RUA CORONEL OLIMPIO CUNHA                         000077               CAMPO GRANDE                  CARIACICA                     ES29146010BRASIL              0000002014605850000020146058502706765100015500100000201460585000000201460585DANIELE MAGRI AZEVEDO                                                                                                                                                                                                                                                                                                                                                                                                                                                            1                                                   00000000                                                                     
DIEFELVIS SILVARES PEREIRA                            03083087780S000000117959400000000PMES  ES197309071M1200273636990200000000000988490652ELVIS.SILVARES@HOTMAIL.COM    RUA DOS IPES                                      000312               SANTA LUZIA                   SERRA                         ES29165757BRASIL              0000002014610980000020146109802706765100015500100000201461098000000201461098ELVIS SILVARES PEREIRA                                                                                                                                                                                                                                                                                                                                                                                                                                                           1                                                   00000000                                                                     
DIEFELYSIANE SENNA DA SILVA                           13318883794S000001319611900000000ES    ES199108031F1100283536302600000000000000000000LYSI_SENNA@HOTMAIL.COM        RUA SERVULO NOGUEIRA                              000000               JUSTICA II                    ANCHIETA                      ES29230000BRASIL              0000002014598770000020145987702706765100015500100000201459877000000201459877ELYSIANE SENNA DA SILVA                                                                                                                                                                                                                                                                                                                                                                                                                                                          1                                                   00000000                                                                     
DIEFEMANUELA P SANTANNA                               10104299738S000001177313200000000SSP   ES198311131F1100000000000000000000000998006313NINA.ESTLO@BOL.COM.BR         AV SANTA LEOPOLDINA                               001200               ITAPARICA                     VILA VELHA                    ES29102906BRASIL              0000002014618930000020146189302706765100015500100000201461893000000201461893EMANUELA P SANTANNA                                                                                                                                                                                                                                                                                                                                                                                                                                                              1                                                   00000000                                                                     
DIEFEMANUELLE C QUEIROZ                               13444924798S000001304452200000000ES    ES199104181F1300273034723500000000000099839300EMANUELLE.CARNEIRO01@HOTMAIL.COMRUA ORMINDA MACHADO DUARTE                      000106               PRAIA DAS GAIVOTAS            VILA VELHA                    ES29102568BRASIL              0000002014619560000020146195602706765100015500100000201461956000000201461956EMANUELLE C QUEIROZ                                                                                                                                                                                                                                                                                                                                                                                                                                                              1                                                   00000000                                                                     
DIEFFABRICIO BORLOT SOARES                            09901017700S000000119919600000000PMES  ES198211161M1100273229339600000000000981188180FABRICIOBORLOT@HOTMAIL.COM    RUA ARACATI                                       000124               GLORIA                        VILA VELHA                    ES29122540BRASIL              0000002014610630000020146106302706765100015500100000201461063000000201461063FABRICIO BORLOT SOARES                                                                                                                                                                                                                                                                                                                                                                                                                                                           1                                                   00000000                                                                     
DIEFFELIPE MACHADO VELOSO                             13062809744S000001316808500000000SPTC  ES199112021M1100273235924100000000000981790416FELIPE.M.VELOSO@HOTMAIL.COM   RUA CARLOS EDUARDO MONTEIRO DE LEMOS              000056               JARDIM DA PENHA               VITORIA                       ES29060120BRASIL              0000002014620000000020146200002706765100015500100000201462000000000201462000FELIPE MACHADO VELOSO                                                                                                                                                                                                                                                                                                                                                                                                                                                            1                                                   00000000                                                                     
DIEFFRANCIANI D D ANDRADE                             12441507702S000011591381700000000SSP   MG198807161F1100020000000000000000000099915340ZB_FRAN@HOTMAIL.COM           DOUTOR FERNANDO SERRA                             000230               JARDIM DE INFANCIA            SAO GABRIEL DA PALHA          ES29780000BRASIL              0000002013587300000020135873002706765100015500100000201358730000000201358730FRANCIANI D D ANDRADE                                                                                                                                                                                                                                                                                                                                                                                                                                                            1                                                   00000000                                                                     
DIEFGABRIEL D C VICENTE                               13193161748S000124663053700000000IFP   RJ198908171M1100222722652500000000000000000000GABRIEL_VICENTE@HOTMAIL.COM   RUA MESSIAS URBANO DOS SANTOS                     000087               PARQUE VICENTE GONCALVES DIAS CAMPOS DOS GOYTACAZES         RJ28080225BRASIL              0000002014610270000020146102702706765100015500100000201461027000000201461027GABRIEL D C VICENTE                                                                                                                                                                                                                                                                                                                                                                                                                                                              1                                                   00000000                                                                     
DIEFGABRIELA C D CARVALHO                             09080077798S000001159575100000000SSP   ES198001281F1100270000000000000000000081166131GABRIELACHAMOUN@YAHOO.COM.BR  RUA AMELIA TARTUCE NASSER                         001020               JARDIM DA PENHA               VITORIA                       ES29060110BRASIL              0000002013583160000020135831602706765100015500100000201358316000000201358316GABRIELA C D CARVALHO                                                                                                                                                                                                                                                                                                                                                                                                                                                            1                                                   00000000                                                                     
DIEFGABRIELA OLIVEIRA GAMA                            10088048780S000001193772000000000ES    ES198607211F1100273344054300000000000097019887GABRIELA.O.GAMA@HOTMAIL.COM   RUA PLANALTO                                      000026               ELDOURADO                     VIANA                         ES29135000BRASIL              0000002014615340000020146153402706765100015500100000201461534000000201461534GABRIELA OLIVEIRA GAMA                                                                                                                                                                                                                                                                                                                                                                                                                                                           1                                                   00000000                                                                     
DIEFGISELE D A P D COSTA                              10176174737S001339446804300000000ES    ES198405231F1300278837154300000000000997342950GISELE-AP@HOTMAIL.COM         RUA DA CHACARA                                    000093               SAO PEDRO 1                   VITORIA                       ES29030160BRASIL              0000002014620320000020146203202706765100015500100000201462032000000201462032GISELE D A P D COSTA                                                                                                                                                                                                                                                                                                                                                                                                                                                             1                                                   00000000                                                                     
DIEFGLALBER D C C QUEIROZ                             10071605789S000001165536700000000SPTC  ES198304021M1200273137445700000000000098847597GLALBERQUEIROZ@GMAIL.COM      RUA JUNQUEIRA FREIRE                              000010               SOTECO                        VILA VELHA                    ES29106060BRASIL              0000002014610260000020146102602706765100015500100000201461026000000201461026GLALBER D C C QUEIROZ                                                                                                                                                                                                                                                                                                                                                                                                                                                            1                                                   00000000                                                                     
DIEFHELGA KUNDE MULLER                                79378358772S000000170421600000000SESP  ES196211171F1100273060940600000000000998902946HELGA_KUNDE@HOTMAIL.COM       RUA PARATI                                        000018               R MORADA DE LARANJEIRASSERRA                                ES29166826BRASIL              0000002014611490000020146114902706765100015500100000201461149000000201461149HELGA KUNDE MULLER                                                                                                                                                                                                                                                                                                                                                                                                                                                               1                                                   00000000                                                                     
DIEFHUGO SILVA CAVACA                                 78078105720S000000009507900000000CRB   ES196104291M1100273260165900000000000000000000HUGOCAVACA@GMAIL.COM          RUA GUIGNARD                                      000006               BARRA DO JUCU                 VILA VELHA                    ES29125079BRASIL              0000002014613510000020146135102706765100015500100000201461351000000201461351HUGO SILVA CAVACA                                                                                                                                                                                                                                                                                                                                                                                                                                                                1                                                   00000000                                                                     
DIEFISAAC SANTOS GIL                                  03379212539S000196463520800000000SSP   BA199004131M1100733295288800000000000088453098ZAK_P6@HOTMAIL.COM            RUA 21 DE ABRIL                                   000105               SAO JOAO                      ITANHEM                       BA45970000BRASIL              0000002014612260000020146122602706765100015500100000201461226000000201461226ISAAC SANTOS GIL                                                                                                                                                                                                                                                                                                                                                                                                                                                                 1                                                   00000000                                                                     
DIEFISABELA HARDT                                     31502035898S000001227940500000000SSP   ES198906151F1100273319833200000000000081694867ISAHARDT@HOTMAIL.COM          RUA GOIANIA                                       000140               PRAIA DE ITAPOA               VILA VELHA                    ES29101780BRASIL              0000002014610300000020146103002706765100015500100000201461030000000201461030ISABELA HARDT                                                                                                                                                                                                                                                                                                                                                                                                                                                                    1                                                   00000000                                                                     
DIEFJEAN PIERRE LOUZADA RAMOS                         13858290793S000001309886400000000SSP   ES199205101M1100273340842100000000000098978191JEANLOUZADA123@HOTMAIL.COM    RUA SEIS                                          000096               SANTA MONICA                  VILA VELHA                    ES29105260BRASIL              0000002014613930000020146139302706765100015500100000201461393000000201461393JEAN PIERRE LOUZADA RAMOS                                                                                                                                                                                                                                                                                                                                                                                                                                                        1                                                   00000000                                                                     
DIEFJEREMIAS DOS SANTOS                               0292792751S0000000190170000000000SSP   ES197211041M1100273223035400000000000998240231JERSANJS@YAHOO.COM.BR         RUA MOACIR AVIDOS                                 000270               PRAIA DO CANTO                VITORIA                       ES29055350BRASIL              0000002014619630000020146196302706765100015500100000201461963000000201461963JEREMIAS DOS SANTOS                                                                                                                                                                                                                                                                                                                                                                                                                                                              1                                                   00000000                                                                     
DIEFJHONATAN SILVARES LOPES                           05707165789S000001229005800000000SSP   ES198802121M1100273322903300000000000999930044JHON_120288@HOTMAIL.COM       AVENIDA SANTO ANTONIO                             000030               SANTO ANTONIO                 VITORIA                       ES29025000BRASIL              0000002014620020000020146200202706765100015500100000201462002000000201462002JHONATAN SILVARES LOPES                                                                                                                                                                                                                                                                                                                                                                                                                                                          1                                                   00000000                                                                     
DIEFJOAO MOREIRA DUTRA FILHO                          07138924712S000001136610600000000SSP   ES197705311M1100273329553800000000000988251742JMDFDR@GMAIL.COM              RUA ITAQUARI                                      000180               PRAIA DE ITAPOA               VILA VELHA                    ES29101850BRASIL              0000002014617720000020146177202706765100015500100000201461772000000201461772JOAO MOREIRA DUTRA FILHO                                                                                                                                                                                                                                                                                                                                                                                                                                                         1                                                   00000000                                                                     
DIEFJOSIMAR BARBOSA GRIPPA                            11455544744S000001210465400000000SSP   ES198703061M1300273226314300000000000000000000JOSIMAR.GRIPPA@YAHOO.COM.BR   RUA LEILA DINIZ                                   000240               NOVO MEXICO                   VILA VELHA                    ES29104070BRASIL              0000002014620390000020146203902706765100015500100000201462039000000201462039JOSIMAR BARBOSA GRIPPA                                                                                                                                                                                                                                                                                                                                                                                                                                                           1                                                   00000000                                                                     
DIEFKELLY S D EPICHIN                                 05285523761S009120130108600000000SSP   ES197610111F1100003225461900000000000099759596KELLY_EPICHIN@HOTMAIL.COM     AV MARIO CORTELETE                                000100               MATA DA PRAIA                 VITORIA                       ES29065120BRASIL              0000002014615450000020146154502706765100015500100000201461545000000201461545KELLY S D EPICHIN                                                                                                                                                                                                                                                                                                                                                                                                                                                                1                                                   00000000                                                                     
DIEFKLAUS SARMENTO FARIA                              05569715746S000001157884100000000SSP   ES198202181M1100273329003500000000000999597247KLADV@HOTMAIL.COM             AVENIDA CHAMPAGNAT                                001044               CENTRO                        VILA VELHA                    ES29100010BRASIL              0000002014610690000020146106902706765100015500100000201461069000000201461069KLAUS SARMENTO FARIA                                                                                                                                                                                                                                                                                                                                                                                                                                                             1                                                   00000000                                                                     
DIEFLARISSA C D COSTA                                 12871227799S000001141074900000000SSP   ES198710011F1100273326437100000000000099893790LARISSACORTELETTI@BIOLOGA.BIO.BRRUA FRANCISCO S CORTELETTI                      000177               NOVA AMERICA                  VILA VELHA                    ES29111070BRASIL              0000002014613370000020146133702706765100015500100000201461337000000201461337LARISSA C D COSTA                                                                                                                                                                                                                                                                                                                                                                                                                                                                1                                                   00000000                                                                     
DIEFLEIDIANE SANTANA ROCHA                            09741430736S000001177409200000000SSP   ES198312141F1100273282231300000000000998982428LEIDIANESR@HOTMAIL.COM        RUA ITABAPOANA                                    000147               ELDOURADO                     SERRA                         ES29169190BRASIL              0000002014619620000020146196202706765100015500100000201461962000000201461962LEIDIANE SANTANA ROCHA                                                                                                                                                                                                                                                                                                                                                                                                                                                           1                                                   00000000                                                                     
DIEFLETICIA BELGI BISSOLI                             12705892702S000000137322000000000SSP   ES199104121F1100273371190800000000000998260915LETICIABELGIBISSOLI@HOTMAIL.COMR PRESIDENTE EPITACIO PESSOA                     000388               NOVO HORIZONTE                LINHARES                      ES29902280BRASIL              0000002014616180000020146161802706765100015500100000201461618000000201461618LETICIA BELGI BISSOLI                                                                                                                                                                                                                                                                                                                                                                                                                                                            1                                                   00000000                                                                     
DIEFLORENA COSTA CASAGRANDE                           10821364766S000001212881700000000SSP   ES198712151F1300273236691600000000000000000000LORENACASAO@GMAIL.COM         RUA MOREIRA CAMARGO                               000007               CAMPO GRANDE                  CARIACICA                     ES29146240BRASIL              0000002014615770000020146157702706765100015500100000201461577000000201461577LORENA COSTA CASAGRANDE                                                                                                                                                                                                                                                                                                                                                                                                                                                          1                                                   00000000                                                                     
DIEFLUCIANA SIMOES GASPARINI                          10973232773S000001205430500000000SSP   ES198609121F1100273314611300000000000000000000LUCIANAGASP@YAHOO.COM.BR      RUA COMISSARIO OCTAVIO QUEIROZ                    000675               JARDIM DA PENHA               VITORIA                       ES29060270BRASIL              0000002014618470000020146184702706765100015500100000201461847000000201461847LUCIANA SIMOES GASPARINI                                                                                                                                                                                                                                                                                                                                                                                                                                                         1                                                   00000000                                                                     
DIEFLUCIENE VIEIRA DE SOUZA                           79840582704S000000014143700000000PC    ES196502281F1200273137908700000000000000000000LUCIENE.SOUZA@PC.ES.GOV.BR    RUA JOSE LUIZ GABEIRA                             000230               BARRO VERMELHO                VITORIA                       ES29057570BRASIL              0000002014612170000020146121702706765100015500100000201461217000000201461217LUCIENE VIEIRA DE SOUZA                                                                                                                                                                                                                                                                                                                                                                                                                                                          1                                                   00000000                                                                     
DIEFLUCIO A C CYPRESTE                                09936956710S000001185525200000000SSP   ES198110211M1100273534907900000000000997245159ANDRECYP@GMAIL.COM            AV CHAMPANGNAT                                    000038               PRAIA DA COSTA                VILA VELHA                    ES29101410BRASIL              0000002014620360000020146203602706765100015500100000201462036000000201462036LUCIO A C CYPRESTE                                                                                                                                                                                                                                                                                                                                                                                                                                                               1                                                   00000000                                                                     
DIEFLUIS F S P MAYORGA                                12445510740S001484128775900000000DETRANES198712011M1100273325826400000000000098629197FELIPOE.MAYORGA@GMAIL.COM     RUA CONSTANTE SODRE                               001244               PRAIA DO CANTO                VITORIA                       ES29055420BRASIL              0000002014620530000020146205302706765100015500100000201462053000000201462053LUIS F S P MAYORGA                                                                                                                                                                                                                                                                                                                                                                                                                                                               1                                                   00000000                                                                     
DIEFMAIRA L G QUINTAES                                0803445776S0000000180614000000000SSP   ES197009041F1100273260115000000000000092910485MAIRALGQ@GMAIL.COM            RUA IVAN SERPA                                    000009               BARRA DO JUCU                 VILA VELHA                    ES29125074BRASIL              0000002014612070000020146120702706765100015500100000201461207000000201461207MAIRA L G QUINTAES                                                                                                                                                                                                                                                                                                                                                                                                                                                               1                                                   00000000                                                                     
DIEFMARCELA BUCHER BINDA                              12122329769S000011691384800000000SSP   MG199005261F1100273725131300000000000999457966MARCELABINDA@HOTMAIL.COM      JOSE THEODORO DE ANDRADE                          000026               CENTRO                        ITAGUACU                      ES29690000BRASIL              0000002014615530000020146155302706765100015500100000201461553000000201461553MARCELA BUCHER BINDA                                                                                                                                                                                                                                                                                                                                                                                                                                                             1                                                   00000000                                                                     
DIEFMARCIO MAGESKI MARQUES                            11215679750S000000192306200000000SSP   ES198606031M1100273317638200000000000099055726MARCIOHERPETOLOGIA@GMAIL.COM  RUA RUY BARBOSA                                   000235               MARUIPE                       VITORIA                       ES29043790BRASIL              0000002014616960000020146169602706765100015500100000201461696000000201461696MARCIO MAGESKI MARQUES                                                                                                                                                                                                                                                                                                                                                                                                                                                           1                                                   00000000                                                                     
DIEFMARIA APARECIDA MARETO                            03089034719S000001129291700000000SSP   ES197512211F1200283511714200000000000999030049MARETOADV@TERRA.COM.BR        RUA COSTA PEREIRA                                 000076               CENTRO                        CACHOEIRO DE ITAPEMIRIM       ES29300090BRASIL              0000002014620230000020146202302706765100015500100000201462023000000201462023MARIA APARECIDA MARETO                                                                                                                                                                                                                                                                                                                                                                                                                                                           1                                                   00000000                                                                     
DIEFMARIA T M MARIANELLI                              05278566736S000001129819500000000SPTC  ES197909271F1100273207942900000000000992582926MARIATHEREZAMM@HOTMAIL.COM    RUA AMELIA TARTUCE NASSER                         000365               JARDIM DA PENHA               VITORIA                       ES29060110BRASIL              0000002014619650000020146196502706765100015500100000201461965000000201461965MARIA T M MARIANELLI                                                                                                                                                                                                                                                                                                                                                                                                                                                             1                                                   00000000                                                                     
DIEFMICHELE MOREIRA FERNANDES                         12002066736S000001308284900000000SSP   ES198901141F1100000000000000000000000095156677MICHELI.MF@HOTMAIL.COM        R RIO GRANDE DO SUL                               000008               PONTA DA FRUTA                VILA VELHA                    ES29129145BRASIL              0000002014614290000020146142902706765100015500100000201461429000000201461429MICHELE MOREIRA FERNANDES                                                                                                                                                                                                                                                                                                                                                                                                                                                        1                                                   00000000                                                                     
DIEFMIRELLA D S ADAMKOSKY                             13070890709S000001202722500000000SSP   ES198902101F1100273259621800000000000098614441                              RUA ALDEVAN FARDIM                                000000               SAO JOAO DE PETROPOLIS        SANTA TERESA                  ES29660000BRASIL              0000002014614520000020146145202706765100015500100000201461452000000201461452MIRELLA D S ADAMKOSKY                                                                                                                                                                                                                                                                                                                                                                                                                                                            1                                                   00000000                                                                     
DIEFMOISES SASSINE EL ZOGHBI                          07429931758S000001133062400000000SSP   ES197708241M1100273208751900000000000099817519MOISESPC3@HOTMAIL.COM         RUA HUMBERTO SERRANO                              000280               PRAIA DA COSTA                VILA VELHA                    ES29101460BRASIL              0000002014616000000020146160002706765100015500100000201461600000000201461600MOISES SASSINE EL ZOGHBI                                                                                                                                                                                                                                                                                                                                                                                                                                                         1                                                   00000000                                                                     
DIEFMONIQUE COMINOTE                                  13952095702S000001320827400000000SSP   ES199206021F1100273229013100000000000099081785MONIQUE_NIK_02@HOTMAIL.COM    EDMIOSOTHIS                                       000215               COQUEIRAL DE ITAPARICA        VILA VELHA                    ES29102903BRASIL              0000002014605260000020146052602706765100015500100000201460526000000201460526MONIQUE COMINOTE                                                                                                                                                                                                                                                                                                                                                                                                                                                                 1                                                   00000000                                                                     
DIEFMONIQUE DE ARAUJO LAZARO                          13023377774S000001230894200000000SSP   ES198903171F1100273340290600000000000097914064MONIQUE_LAZARO17@HOTMAIL.COM  RUA LUIZ FERNANDES REIS                           000585               PRAIA DA COSTA                VILA VELHA                    ES29101120BRASIL              0000002014603860000020146038602706765100015500100000201460386000000201460386MONIQUE DE ARAUJO LAZARO                                                                                                                                                                                                                                                                                                                                                                                                                                                         1                                                   00000000                                                                     
DIEFPAMELLA V M D S RIGONI                            72341971172S000001207916700000000SSP   DF198301181F1100273319800300000000000081496175PAMELLAMORENO@YAHOO.COM.BR    RUA JOSE CELSO CLAUDIO                            000315               PRAIA DAS GAIVOTAS            VILA VELHA                    ES29102588BRASIL              0000002014612590000020146125902706765100015500100000201461259000000201461259PAMELLA V M D S RIGONI                                                                                                                                                                                                                                                                                                                                                                                                                                                           1                                                   00000000                                                                     
DIEFPLACIELLE FIOREZI FILETE                          10137187718S009526416055000000000DETRANES199207281F1100289918564100000000000000000000PLACIELLEFIOREZI@OUTLOOK.COM  AVENIDA LUCIANO DAS NEVES                         002545               ITAPARICA                     VILA VELHA                    ES29102065BRASIL              0000002014618400000020146184002706765100015500100000201461840000000201461840PLACIELLE FIOREZI FILETE                                                                                                                                                                                                                                                                                                                                                                                                                                                         1                                                   00000000                                                                     
DIEFRAFAELA S L FUENTES                               08912486764S000001147071500000000SPTC  ES198102071F1200273223614000000000000999910873EMAIL_DA_RAFA@YAHOO.COM.BR    AVENIDA SAO PAULO                                 000031               NOVO PORTO CANOA              SERRA                         ES29167543BRASIL              0000002014619980000020146199802706765100015500100000201461998000000201461998RAFAELA S L FUENTES                                                                                                                                                                                                                                                                                                                                                                                                                                                              1                                                   00000000                                                                     
DIEFRAVEL ROCON ZORZAL                                12277903760S000001196288200000000SSP   ES198810261M1100003339552600000000000000000000RAVELZORZAL@HOTMAIL.COM       RUA MAHATMA GHANDI                                000199               SANTA INES                    VILA VELHA                    ES29108060BRASIL              0000002014619540000020146195402706765100015500100000201461954000000201461954RAVEL ROCON ZORZAL                                                                                                                                                                                                                                                                                                                                                                                                                                                               1                                                   00000000                                                                     
DIEFRENAN SILVA DE CARVALHO                           11392524709S000011454997300000000SSP   MG198807171M1100283532324500000000000999256218RENANSCVET@GMAIL.COM          AVENIDA ATLANTICA                                 000830               CENTRO                        MARATAIZES                    ES29345000BRASIL              0000002014609960000020146099602706765100015500100000201460996000000201460996RENAN SILVA DE CARVALHO                                                                                                                                                                                                                                                                                                                                                                                                                                                          1                                                   00000000                                                                     
DIEFRODOLFO QUEIROZ LATERZA                           07467104707S000111026509700000000SSP   RJ197708271M1200273235303500000000000279775760RODOLFOLATERZA@GMAIL.COM      AVENIDA JERONIMO MONTEIRO                         000784               JABURUNA                      VILA VELHA                    ES29123002BRASIL              0000002014612320000020146123202706765100015500100000201461232000000201461232RODOLFO QUEIROZ LATERZA                                                                                                                                                                                                                                                                                                                                                                                                                                                          1                                                   00000000                                                                     
DIEFROMULO JOSE RAMOS                                 08445905767S000000000000100000000      197908301M110000273043189800000000000099951656RAMOSJROMULO@YAHOO.COM.BR     AVENIDA DOS EXPEDICIONARIOS                       001185               JARDIM CAMBURI                VITORIA                       ES29090490BRASIL              0000002014608180000020146081802706765100015500100000201460818000000201460818ROMULO JOSE RAMOS                                                                                                                                                                                                                                                                                                                                                                                                                                                                1                                                   00000000                                                                     
DIEFSILMARA MENDES MARTINS                            11243871709S000001177661500000000SSP   ES199106101F1300279943724600000000000098857955SILMENDESMARTINS@HOTMAIL.COM  RUA DESEMBARGADOR VICENTE CAETANO                 000066               MATA DA PRAIA                 VITORIA                       ES29065730BRASIL              0000002014615330000020146153302706765100015500100000201461533000000201461533SILMARA MENDES MARTINS                                                                                                                                                                                                                                                                                                                                                                                                                                                           1                                                   00000000                                                                     
DIEFTACIANA ONESORGE MIRANDA                          10933782713S000001214913900000000SSP   ES198605011F1100000000000000000000000999679077TACI_MIRANDA@YAHOO.COM.BR     AV JERUSALEM                                      000071               VILA PALESTINA                CARIACICA                     ES29145620BRASIL              0000002014606530000020146065302706765100015500100000201460653000000201460653TACIANA ONESORGE MIRANDA                                                                                                                                                                                                                                                                                                                                                                                                                                                         1                                                   00000000                                                                     
DIEFTHAIS SOUZA VARGAS                                13641244757S009475776027000000000DETRANES199106071F1100273349569300000000000099923745THAISSVARGAS@HOTMAIL.COM      AVENIDA ESTUDANTE JOSE JULIO DE SOUZA             001596               PRAIA DE ITAPARICA            VILA VELHA                    ES29102010BRASIL              0000002014614310000020146143102706765100015500100000201461431000000201461431THAIS SOUZA VARGAS                                                                                                                                                                                                                                                                                                                                                                                                                                                               1                                                   00000000                                                                     
DIEFTHATIANE CORONA BORLINI                           12063337748S000001219337100000000SSP   ES198906031F1100273339372000000000000099684149THATIANEBORLINI@HOTMAIL.COM   AV DOS IPES LT13 QD H                             000000               MORADA DO SOL                 VILA VELHA                    ES29128445BRASIL              0000002014619960000020146199602706765100015500100000201461996000000201461996THATIANE CORONA BORLINI                                                                                                                                                                                                                                                                                                                                                                                                                                                          1                                                   00000000                                                                     
DIEFTHIAGO ANDRADE DOS SANTOS                         05571686782S000001177171500000000SSP   ES198309161M1200279981237800000000000988023811THIAGO.SANTOS@PC.ES.GOV.BR    RUA PINHO                                         000125               COLINA DE LARANJEIRAS         SERRA                         ES29167142BRASIL              0000002014619820000020146198202706765100015500100000201461982000000201461982THIAGO ANDRADE DOS SANTOS                                                                                                                                                                                                                                                                                                                                                                                                                                                        1                                                   00000000                                                                     
DIEFTULIO GAVA MONTEIRO                               13083648731S000001225677800000000SSP   ES198903231M1100273299342500000000000099890024TULIOGAVA@HOTMAIL.COM         RUA AFONSO PENA                                   000050               PRAIA DA COSTA                VILA VELHA                    ES29101450BRASIL              0000002014604220000020146042202706765100015500100000201460422000000201460422TULIO GAVA MONTEIRO                                                                                                                                                                                                                                                                                                                                                                                                                                                              1                                                   00000000                                                                     
DIEFUMBERTINO A D C N                                 12078582778S000000119860200000000SSP   ES198701281M1100283532324500000000000999541970CARVALHO_NETO156@YAHOO.COM.BR RUA CELSO BASTOS COUTO                            000286               PRAIA DO MORRO                GUARAPARI                     ES29216110BRASIL              0000002014619770000020146197702706765100015500100000201461977000000201461977UMBERTINO A D C N                                                                                                                                                                                                                                                                                                                                                                                                                                                                1                                                   00000000                                                                     
DIEFVANDERLEA BIGOSSI ARAGAO                          98770713715S000000000000100000000SSP   ES196804121F1100273361518400000000000000000000VANDERLEABA@PITAGORAS.COM.BR  RUA FRANCISCO VIEIRA PASSOS                       001902               MUQUICABA                     GUARAPARI                     ES29215440BRASIL              0000002014608580000020146085802706765100015500100000201460858000000201460858VANDERLEA BIGOSSI ARAGAO                                                                                                                                                                                                                                                                                                                                                                                                                                                         1                                                   00000000                                                                     
DIEFVITO BENO VERVLOET                                96833572704S000000181872500000000SSP   ES196906151M1100273340462000000000000000000000ADVOCACIAVERVLOET@HOTMAIL.COM RUA IVAN NEIVA NEVES                              000029               RESIDENCIAL COQUEIRAL         VILA VELHA                    ES29102850BRASIL              0000002014611500000020146115002706765100015500100000201461150000000201461150VITO BENO VERVLOET                                                                                                                                                                                                                                                                                                                                                                                                                                                               1                                                   00000000                                                                     
DIEFVIVIANE RAPOSO FORTUNATO                          12488919705S009475639478200000000DETRANES198910231F1100273341025800000000000099730696VIVIANERAPOSO@HOTMAIL.COM     AVENIDA BELO HORIZONTE                            001256               NOVA CARAPINA                 SERRA                         ES29170038BRASIL              0000002014615350000020146153502706765100015500100000201461535000000201461535VIVIANE RAPOSO FORTUNATO                                                                                                                                                                                                                                                                                                                                                                                                                                                         1                                                   00000000                                                                     
T000076                                                                                                                                                                                                                                                                                                                                                                                                                                                                                                                                                                                                                                                                                                                                                                                                                                                                                                                                                                                                                                 
