H027067651000155N00000620140228112441NPSOCIDADE EDUCACIONAL DO ESPIRITO SANTO            00103300100010000000000000AV COMISSARIO JOSE DANTAS DE MELO                 000021                    BOA VISTA II        VILA VELHA          ES291029020027212227000000000000000000000000                                                                     000000000000000000000000000000                                                                                                                                                                                                                                                                                                                                                                                                                                                                                                                                                                                                                                                  
DIEFADEMIR TON                                        68176732753S000000151164900000000SSP   ES196110051M1100279941033500000000000097983405ADEMIRTON@CENTROUNIVERSO.COM.BRR JOSE CELSO CLUDIO                              000029               PRAIA DAS GAIVOTAS            VILA VELHA                    ES29102588BRASIL              0000002012536660000020125366602706765100015500100000201253666000000201253666ADEMIR TON                                                                                                                                                                                                                                                                                                                                                                                                                                                                       1                                                   00000000                                                                     
DIEFADJALME DIAS FERREIRA                             75201674704S000189105310800000000SSP   ES196309301M2100273543133500000000000999748741ADJALMEDF@GMAIL.COM           AV SETE DE NOVEMBRO                               000040               CENTRO                        IBATIBA                       ES29395000BRASIL              0000002014608460000020146084602706765100015500100000201460846000000201460846ADJALME DIAS FERREIRA                                                                                                                                                                                                                                                                                                                                                                                                                                                            1                                                   00000000                                                                     
DIEFADOLPHO M D S BISPO                               13065992701S000001229522000000000SSP   ES198908281M1100273239386900000000000081142832ADOLPHO.MESSNER@GMAIL.COM     TRAVESSA LIBERALINO LIMA                          000011               CENTRO                        VILA VELHA                    ES29100060BRASIL              0000002013580830000020135808302706765100015500100000201358083000000201358083ADOLPHO MESSNER DA SILVA BISPO                                                                                                                                                                                                                                                                                                                                                                                                                                                   1                                                   00000000                                                                     
DIEFADRIANA GOMES DO AMARAL                           09315223748S000001177083500000000SSP   ES198207191F1100273327054200000000000033276182NANA_SALE@YAHOO.COM.BR        R PROF RENATO RIBEIRO DOS SANTOS                  000094               MARIA ORTIZ                   VITORIA                       ES00000000BRASIL              0000002008310810000020083108102706765100015500100000200831081000000200831081ADRIANA GOMES DO AMARAL                                                                                                                                                                                                                                                                                                                                                                                                                                                          1                                                   00000000                                                                     
DIEFADRIANO MELGACO PINTO                             03591680788S000001123061600000000SSP   ES197708011M1100279919311600000000000000000000ADRIANOMELGACO@GMAIL.COM      AV CORONEL JOSE MARTINS DE FIGUEIREDO             000265               MARUIPE                       VITORIA                       ES29043060BRASIL              0000002013573830000020135738302706765100015500100000201357383000000201357383ADRIANO MELGAcO PINTO                                                                                                                                                                                                                                                                                                                                                                                                                                                            1                                                   00000000                                                                     
DIEFADRIELLY FIORESE SANTANNA                         13603581709S000001209794700000000SSP   ES199105271F1100278896719600000000000099250029TRIELE_@HOTMAIL.COM           R SETE                                            000170               PRAIA DE ITAPARICA            VILA VELHA                    ES29102195BRASIL              0000002013564260000020135642602706765100015500100000201356426000000201356426ADRIeLLY FIORESE SANTANNA                                                                                                                                                                                                                                                                                                                                                                                                                                                        1                                                   00000000                                                                     
DIEFALCELIA BARBOSA VIEIRA                            03055658426S000001242292900000000SSP   PB197802231F1100273239249000000000000008173043CELIAVIEIRA35@HOTMAIL.COM     R AYRTON SENNA                                    000303               ITAPUA                        VILA VELHA                    ES29101692BRASIL              0000002013586410000020135864102706765100015500100000201358641000000201358641ALCELIA BARBOSA VIEIRA                                                                                                                                                                                                                                                                                                                                                                                                                                                           1                                                   00000000                                                                     
DIEFALDO D A V M JUNIOR                               00233842713S000000156877500000000SSP   ES196804221M1100273340620600000000000099820127ALDOMACHADOJR@HOTMAIL.COM     AV FRANCISCO LACERDA DE AGUIAR                    002950               PRAIA DE ITAPARICA            VILA VELHA                    ES29102020BRASIL              0000002013566630000020135666302706765100015500100000201356663000000201356663ALDO DE ALMEIDA VIEIRA MACHADO JuNIOR                                                                                                                                                                                                                                                                                                                                                                                                                                            1                                                   00000000                                                                     
DIEFALEGNA PORTES BALIANO                             11343685770S000001211105500000000SSP   ES198806041F1100273326299000000000000099332997ALEGNA.BALIANO@HOTMAIL.COM    R ALEXANDRINA                                     000031               SOTELANDIA                    CARIACICA                     ES29140677BRASIL              0000002014613390000020146133902706765100015500100000201461339000000201461339ALEGNA PORTES BALIANO                                                                                                                                                                                                                                                                                                                                                                                                                                                            1                                                   00000000                                                                     
DIEFALESSANDER C RIBEIRO                              07814414717S000001149669800000000SSP   ES197709251M1100273022091300000000000092512580ALESSANDER.RIBEIRO@YAHOO.COM.BRR DIONYSIO ABAURRE                               000543               JARDIM CAMBURI                VITORIA                       ES00000000BRASIL              0000002012537130000020125371302706765100015500100000201253713000000201253713ALESSANDER CARVALHO RIBEIRO                                                                                                                                                                                                                                                                                                                                                                                                                                                      1                                                   00000000                                                                     
DIEFALESSANDRA R C ZANELLA                            06904414600S000011289544600000000SSP   MG198612261F1100273349090200000000000081273641ALESSANDRARCZANELLA@GMAIL.COM R DEZOITO                                         000069               COCAL                         VILA VELHA                    ES29105680BRASIL              0000002011465990000020114659902706765100015500100000201146599000000201146599ALESSANDRA RODRIGUES COELHO ZANELLA                                                                                                                                                                                                                                                                                                                                                                                                                                              1                                                   00000000                                                                     
DIEFALESSANDRO A E DIAS                               03194920790S000001118640200000000SSP   ES197410111M1100273229095200000000000099110478ALESSANDROELLER@HOTMAIL.COM   R FORTALEZA                                       001500               PRAIA DE ITAPUA               VILA VELHA                    ES29108360BRASIL              0000002010408560000020104085602706765100015500100000201040856000000201040856ALESSANDRO ADRELLE ELLER DIAS                                                                                                                                                                                                                                                                                                                                                                                                                                                    1                                                   00000000                                                                     
DIEFALESSANDRO B D LIMA                               82718075104S000000000001000000000SSP   GO197711011M1100273333597900000000000088181694ALESSANDRO.BARBOSA@CVRD.COM.BRR FRANCISCO DOMINGOS RAMOS                        000100               PARQUE DAS GAIVOTAS           VILA VELHA                    ES29102581BRASIL              0000002012537390000020125373902706765100015500100000201253739000000201253739ALESSANDRO BARBOSA DE LIMA                                                                                                                                                                                                                                                                                                                                                                                                                                                       1                                                   00000000                                                                     
DIEFALEXANDRA C D S VERONEZ                           13395384748S000001232047000000000SSP   ES198906231F1100273339050700000000000098399108ALEXANDRA_VERONEZ@HOTMAIL.COM R CRAVO ROXO                                      000006               NOVO MEXICO                   VILA VELHA                    ES29104160BRASIL              0000002011451440000020114514402706765100015500100000201145144000000201145144ALEXANDRA CAROLINE DA SILVA VERONEZ                                                                                                                                                                                                                                                                                                                                                                                                                                              1                                                   00000000                                                                     
DIEFALEXANDRA FROSSARD                                09408473701S000001168672500000000SSP   ES198103051F1100279818297000000000000098182970XANDFROSSARD@YAHOO.COM.BR     R ORMINDA MACHADO DUARTE                          000240               PRAIA DAS GAIVOTAS            VILA VELHA                    ES29102568BRASIL              0000002013570870000020135708702706765100015500100000201357087000000201357087ALEXANDRA FROSSARD                                                                                                                                                                                                                                                                                                                                                                                                                                                               1                                                   00000000                                                                     
DIEFALEXANDRE M D SILVA                               35232329880S000135425332300000000SSP   SP198805161M1100273349330800000000000098898763XANDAO88@GMAIL.COM            AV JOAO MENDES                                    001000               SANTA MONICA                  VILA VELHA                    ES29105200BRASIL              0000002012534900000020125349002706765100015500100000201253490000000201253490ALEXANDRE MOREIRA DA SILVA                                                                                                                                                                                                                                                                                                                                                                                                                                                       1                                                   00000000                                                                     
DIEFALEXANDRO DEGAN LIRA                              11176065890S000012473889700000000SSP   ES197505231M1100273299071300000000000032004100DEGANLIRA@YAHOO.COM.BR        R VICENTE DE CARVALHO                             000501               BOA VISTA II                  VILA VELHA                    ES29102600BRASIL              0000002012537660000020125376602706765100015500100000201253766000000201253766ALEXANDRO DEGAN LIRA                                                                                                                                                                                                                                                                                                                                                                                                                                                             1                                                   00000000                                                                     
DIEFALEXSANDER P D V                                  02773760760S000000181904000000000SSP   ES197302191M1100273263150400000000000099466003ALEXSANDER.VITORIA@YAHOO.COM.BRR GUILHERME FLEGLER                              000310               VILA NOVA                     SANTA MARIA DE JETIBA         ES29645000BRASIL              0000002009368030000020093680302706765100015500100000200936803000000200936803ALEXSANDER PINTO DA VITORIA                                                                                                                                                                                                                                                                                                                                                                                                                                                      1                                                   00000000                                                                     
DIEFALICE CORREA RASSELE                              10542882752S001318802831000000000SSP   ES198509291F1100273299739000000000000088148091ALICERASSELE@YAHOO.COM.BR     R SEBASTIAO SILVEIRA                              000054               PRAIA DAS GAIVOTAS            VILA VELHA                    ES29102571BRASIL              0000002013559780000020135597802706765100015500100000201355978000000201355978ALICE CORReA RASSELE                                                                                                                                                                                                                                                                                                                                                                                                                                                             1                                                   00000000                                                                     
DIEFALINE D C G LOPES                                 11697665799S000001190384100000000SSP   ES198609021F1100273340738100000000000008822759ALINEE_GARCIA@YAHOO.COM.BR    R FERNANDO LINDENBERG                             000013               PRAIA DA COSTA                VILA VELHA                    ES29101100BRASIL              0000002013586020000020135860202706765100015500100000201358602000000201358602ALINE DEL CARMEN GARCIA LOPES                                                                                                                                                                                                                                                                                                                                                                                                                                                    1                                                   00000000                                                                     
DIEFALINE DO CARMO DIAS                               12417814781S000001205718800000000SSP   ES198903101F1100273031350300000000000097089816ALINECDIAS1@LIVE.COM          R LUIZ FERNANDO REIS                              000550               PRAIA DA COSTA                VILA VELHA                    ES29101120BRASIL              0000002013586430000020135864302706765100015500100000201358643000000201358643ALINE DO CARMO DIAS                                                                                                                                                                                                                                                                                                                                                                                                                                                              1                                                   00000000                                                                     
DIEFALINE SILVA GOMES                                 11551277735S000001215297400000000SSP   ES198710121F1100273242338600000000000088178675ASILGOMES@GMAIL.COM           AV ALEXANDRINO ABREU                              000145               MORRO DA LAGOA                VILA VELHA                    ES29129724BRASIL              0000002010416930000020104169302706765100015500100000201041693000000201041693ALINE SILVA GOMES                                                                                                                                                                                                                                                                                                                                                                                                                                                                1                                                   00000000                                                                     
DIEFALINE STEIN LIMA                                  11339655713S000001204124400000000SSP   ES198610061F1100273361494000000000000081459282ALINESTEINLIMA@GMAIL.COM      R CARIACICA                                       000008               IPIRANGA                      GUARAPARI                     ES29201160BRASIL              0000002013586490000020135864902706765100015500100000201358649000000201358649ALINE STEIN LIMA                                                                                                                                                                                                                                                                                                                                                                                                                                                                 1                                                   00000000                                                                     
DIEFALINY OLIVEIRA BARCELOS                           12033492702S000001220137500000000SSP   ES198901061F1100273031527700000000000099539310OLIVEIRA.ALINY@GMAIL.COM      R FERNANDO COELHO                                 000034               ILHA DOS AYRES                VILA VELHA                    ES29106640BRASIL              0000002011485400000020114854002706765100015500100000201148540000000201148540ALINY OLIVEIRA BARCELOS                                                                                                                                                                                                                                                                                                                                                                                                                                                          1                                                   00000000                                                                     
DIEFALLANA JESSIKA BELLO LINO                         11839897767S001414554961500000000SSP   ES198903301F2100273235164800000000000000000000ALLANA114@HOTMAIL.COM         LUDWIK MACAL                                      000955               JARDIM DA PENHA               VITORIA                       ES29060030BRASIL              0000002013567750000020135677502706765100015500100000201356775000000201356775ALLANA JESSIKA BELLO LINO                                                                                                                                                                                                                                                                                                                                                                                                                                                        1                                                   00000000                                                                     
DIEFALVARO D P L D OLIVEIRA                           07864506658S001454562626400000000SSP   MG198805101M1200279960021400000000000099600214ALVAROZOI@YAHOO.COM.BR        RODOVIA DO SOL                                    000182               COQUEIRAL DE ITAPARICA        VILA VELHA                    ES29102070BRASIL              0000002012531690000020125316902706765100015500100000201253169000000201253169ALVARO DE PAULA LAGE DE OLIVEIRA                                                                                                                                                                                                                                                                                                                                                                                                                                                 1                                                   00000000                                                                     
DIEFALVARO R T D CUNHA                                48826642753S000000126639900000000SSP   ES195807151M1100273337334000000000000099892111ARTUNHA@UOL.COM.BR            R PASCHOAL DELMAESTRO                             000455               JARDIM CAMBURI                VITORIA                       ES29090460BRASIL              0000002012536670000020125366702706765100015500100000201253667000000201253667ALVARO ROQUE TOSTA DA CUNHA                                                                                                                                                                                                                                                                                                                                                                                                                                                      1                                                   00000000                                                                     
DIEFAMANDA ALVARENGA NESPOLI                          07131276782S000001121557200000000SSP   ES197801221F1100273399737100000000000999331677CELTA1978@YAHOO.COM.BR        AV A                                              000050               VILA NOVA                     VILA VELHA                    ES29105020BRASIL              0000002014601970000020146019702706765100015500100000201460197000000201460197AMANDA ALVARENGA NESPOLI                                                                                                                                                                                                                                                                                                                                                                                                                                                         1                                                   00000000                                                                     
DIEFAMANDA CRISTINA SOARES                            11083047701S000001206226000000000SSP   ES198803211F1100272121377400000000000097587272AMACRIS2012@HOTMAIL.COM       R FERNANDO CARDOSO MORAIS                         000014               GUARANHUNS                    VILA VELHA                    ES29103640BRASIL              0000002013549900000020135499002706765100015500100000201354990000000201354990AMANDA CRISTINA SOARES                                                                                                                                                                                                                                                                                                                                                                                                                                                           1                                                   00000000                                                                     
DIEFANA C H PEREIRA                                   10931363756S000001174913500000000SSP   ES198506211F1100273329716100000000000088198915ANACHP17@HOTMAIL.COM          R AFONSO PENA                                     000410               PRAIA DA COSTA                VILA VELHA                    ES29101450BRASIL              0000002011449460000020114494602706765100015500100000201144946000000201144946ANA CLAUDIA HERTEL PEREIRA                                                                                                                                                                                                                                                                                                                                                                                                                                                       1                                                   00000000                                                                     
DIEFANA CLUDIA RIBEIRO NEVES                          13129233776S000113040531900000000SSP   RJ198908081F1100273389393700000000000088096378ANACLAUDIA.NEVES@YAHOO.COM.BR R NITEROI                                         000065               ITAPOA                        VILA VELHA                    ES29101590BRASIL              0000002013586890000020135868902706765100015500100000201358689000000201358689ANA CLUDIA RIBEIRO NEVES                                                                                                                                                                                                                                                                                                                                                                                                                                                         1                                                   00000000                                                                     
DIEFANA PAULA DE FARIAS                               11593955782S000001214850400000000SSP   ES198603191F1100273315779300000000000088374531ANINHA.PFARIAS@YAHOO.COM.BR   AV ESTUDANTE JOSE JULIO DE SOUZA                  002800               PRAIA DE ITAPARICA            VILA VELHA                    ES29102010BRASIL              0000002013586520000020135865202706765100015500100000201358652000000201358652ANA PAULA DE FARIAS                                                                                                                                                                                                                                                                                                                                                                                                                                                              1                                                   00000000                                                                     
DIEFANA P R PEREIRA                                   11289159793S000001203245400000000SSP   ES198807061F1100273339876100000000000081447951ANAPAULARODRIGUES1@HOTMAIL.COMR FERNANDO CARDOSO DE MORAIS                      000015               GUARANHUNS                    VILA VELHA                    ES29103640BRASIL              0000002013565590000020135655902706765100015500100000201356559000000201356559ANA PAULA RODRIGUES PEREIRA                                                                                                                                                                                                                                                                                                                                                                                                                                                      1                                                   00000000                                                                     
DIEFANDERSON LUIZ DE ARAUJO                           05644749673S000011205087400000000SSP   MG198204281M1100273312236000000000000088151064ANDERSONMUTUM@HOTMAIL.COM     DR JOAO LUIS ALVES                                000455               CENTRO                        MUTUM                         MG36955000BRASIL              0000002012510260000020125102602706765100015500100000201251026000000201251026ANDERSON LUIZ DE ARAUJO                                                                                                                                                                                                                                                                                                                                                                                                                                                          1                                                   00000000                                                                     
DIEFANDERSON SANTOS BRUNO                             08623717759S000001133740300000000SSP   ES197910291M2100273340753800000000000092229065ANDERSON_BRUNO@ROCKETMAIL.COM AV FRANCELINA SETUBAL                             001975               ITAPOA                        VILA VELHA                    ES29101641BRASIL              0000002013570900000020135709002706765100015500100000201357090000000201357090ANDERSON SANTOS BRUNO                                                                                                                                                                                                                                                                                                                                                                                                                                                            1                                                   00000000                                                                     
DIEFANDRE L G D CUNHA                                 08722640762S000001167444600000000SSP   ES198202011M1100273349713300000000000099952839ANDRELGCUNHA@YAHOO.COM.BR     AV ALTEMAR DUTRA                                  000026               VILA NOVA                     VILA VELHA                    ES29105020BRASIL              0000002012534880000020125348802706765100015500100000201253488000000201253488ANDRe LUiS GARCIA DA CUNHA                                                                                                                                                                                                                                                                                                                                                                                                                                                       1                                                   00000000                                                                     
DIEFANDRE LUIZ PAIER BARROSO                          12700222709S000001230353900000000SSP   ES198811101M1100273229205800000000000097166065ANDREPAIERB@GMAIL.COM         R HUMBERTO SERRANO                                001569               PRAIA DE ITAPOA               VILA VELHA                    ES29101595BRASIL              0000002014604180000020146041802706765100015500100000201460418000000201460418ANDRe LUIZ PAIER BARROSO                                                                                                                                                                                                                                                                                                                                                                                                                                                         1                                                   00000000                                                                     
DIEFANDRE NOVAES DA ROCHA                             11547698799S000001212637900000000SSP   ES198708031M1100279911427700000000000099114277ANDRENR@GMAIL.COM             R ITABAIANA                                       000150               PRAIA DE ITAPARICA            VILA VELHA                    ES29102290BRASIL              0000002013570730000020135707302706765100015500100000201357073000000201357073ANDRe NOVAES DA ROCHA                                                                                                                                                                                                                                                                                                                                                                                                                                                            1                                                   00000000                                                                     
DIEFANDREA C S L D CARVALHO                           03099940712S000001115269700000000SSP   ES197404061F2100273319431800000000000030391172ANDREALIRA@UVV.BR             R CHCARA FIGUEIRA                                 000861               PRAIA DE ITAPARICA            VILA VELHA                    ES29102020BRASIL              0000002013571250000020135712502706765100015500100000201357125000000201357125ANDReA CRISTINA SILVA LIRA DE CARVALHO                                                                                                                                                                                                                                                                                                                                                                                                                                           1                                                   00000000                                                                     
DIEFANDREA MIGUEL MONTEIRO                            07656195718S000001116526000000000SSP   ES197704051F1100273322179800000000000000000000ANDREAMIGUELL@HOTMAIL.COM     R GUADALAJARA                                     000068               SANTA CECILIA                 VITORIA                       ES29043237BRASIL              0000002013539270000020135392702706765100015500100000201353927000000201353927ANDREA MIGUEL MONTEIRO                                                                                                                                                                                                                                                                                                                                                                                                                                                           1                                                   00000000                                                                     
DIEFANDREA SARMENTO ARAUJO                            00789582708S000000194613400000000SSP   ES196908061F1100273311411900000000000000000000ANDREASARMENTOARAUJO@HOTMAIL.COMAV JERONIMO MONTEIRO  LADO IMPAR                001029               JABURUNA                      VILA VELHA                    ES29123001BRASIL              0000002013586870000020135868702706765100015500100000201358687000000201358687ANDREA SARMENTO ARAUJO                                                                                                                                                                                                                                                                                                                                                                                                                                                           1                                                   00000000                                                                     
DIEFANDREA T D M GOMIDE                               91466580763S000000162216600000000SSP   ES196502231F1100270000000000000000000099411904ANDREATMG@UVV.BR              R FRANCISCO EUGENIO MUSSIELLO                     001124               JARDIM DA PENHA               VITORIA                       ES29060290BRASIL              0000002012510280000020125102802706765100015500100000201251028000000201251028ANDREA TASSIS DE MENDONcA GOMIDE                                                                                                                                                                                                                                                                                                                                                                                                                                                 1                                                   00000000                                                                     
DIEFANDREIA ALVES DA SILVA                            03156398730S000001113265200000000SSP   ES197407291F1100273136213000000000000099596326ANDREIA_ALVESS@YAHOO.COM.BR   R ROMA                                            000087               ARACAS                        VILA VELHA                    ES29103045BRASIL              0000002013571490000020135714902706765100015500100000201357149000000201357149ANDREIA ALVES DA SILVA                                                                                                                                                                                                                                                                                                                                                                                                                                                           1                                                   00000000                                                                     
DIEFANDREIA B NASCIMENTO                              08679641707S000001167011200000000SSP   ES198102191F1100273321827900000000000081829556ANASCIMENTO@REDEGAZETA.COM.BR 4Y ETAPA ED VALPARAISO                            000000               COQUEIRAL DE ITAPARICA        VILA VELHA                    ES29102204BRASIL              0000002014595830000020145958302706765100015500100000201459583000000201459583ANDREIA BARBOSA NASCIMENTO                                                                                                                                                                                                                                                                                                                                                                                                                                                       1                                                   00000000                                                                     
DIEFANDREIA LUIZA ARAUJO                              08338549681S000000000000100000000SSP   ES198701301F1100273316485100000000000088145635ANDREIALARAUJO@GMAIL.COM      R BARRA NOVA                                      000014               VALE ENCANTADO                VILA VELHA                    ES29113040BRASIL              0000002013565280000020135652802706765100015500100000201356528000000201356528ANDReIA LUIZA ARAuJO                                                                                                                                                                                                                                                                                                                                                                                                                                                             1                                                   00000000                                                                     
DIEFANDREIA S D A G COUTO                             08613458785S001482084883000000000SSP   ES197910281F2100273244250100000000000092279736ANDREIASOLARS@HOTMAIL.COM     R DOMINGOS RIBEIRO PINTO                          000003               BARRA DO JUCU                 VILA VELHA                    ES29125090BRASIL              0000002013571650000020135716502706765100015500100000201357165000000201357165ANDREIA SOLAR DE ALMEIDA GOMES COUTO                                                                                                                                                                                                                                                                                                                                                                                                                                             1                                                   00000000                                                                     
DIEFANDRESSA SALOMAO RIBEIRO                          08635990609S000011334578000000000SSP   MG198703011F1100273227905400000000000092380255AMARELINHA_SALOMAO@HOTMAIL.COMR RONALDO SCAMPINI                                000471               JARDIM DA PENHA               VITORIA                       ES29060760BRASIL              0000002012535920000020125359202706765100015500100000201253592000000201253592ANDRESSA SALOMaO RIBEIRO                                                                                                                                                                                                                                                                                                                                                                                                                                                         1                                                   00000000                                                                     
DIEFANDREWS M D NASCIMENTO                            11442063750S000001187579700000000SSP   ES198709031M1100273339802400000000000099166265ANDREWS_FILE@HOTMAIL.COM      R WASHINGTON                                      000015               ARACS                         VILA VELHA                    ES29103390BRASIL              0000002010435120000020104351202706765100015500100000201043512000000201043512ANDREWS MARQUES DO NASCIMENTO                                                                                                                                                                                                                                                                                                                                                                                                                                                    1                                                   00000000                                                                     
DIEFANELISI GOULART GONCALVES                         12351152751S000001221810500000000SSP   ES198808101F1100279847891500000000000098478915ANELISIGOULART@YAHOO.COM.BR   AV CENTRAL                                        000265               COLINA DE LARANJEIRAS         SERRA                         ES29167113BRASIL              0000002013569260000020135692602706765100015500100000201356926000000201356926ANELISI GOULART GONcALVES                                                                                                                                                                                                                                                                                                                                                                                                                                                        1                                                   00000000                                                                     
DIEFANGELA RAMOS NUNES MULLER                         07797739773S000001134728500000000SSP   ES197906061F2100273319575900000000000000000000ANGELAR@UVV.BR                R VINTE E TRES                                    000005               VILA NOVA                     VILA VELHA                    ES29105166BRASIL              0000002013550040000020135500402706765100015500100000201355004000000201355004ANGELA RAMOS NUNES MULLER                                                                                                                                                                                                                                                                                                                                                                                                                                                        1                                                   00000000                                                                     
DIEFANIQUE FRONTINO DE NADAI                          05422969774S000001224757300000000SSP   ES198907131F1100273536122800000000000099178884ANIQUEDENADAI@HOTMAIL.COM     AV RAUTA                                          001109               ALVORADA                      ANCHIETA                      ES29230000BRASIL              0000002012523780000020125237802706765100015500100000201252378000000201252378ANIQUE FRONTINO DE NADAI                                                                                                                                                                                                                                                                                                                                                                                                                                                         1                                                   00000000                                                                     
DIEFANSELMO H S NASCIMENTO                            00958916764S000000194440700000000SSP   ES197503131M1100273052137000000000000092561557HUDSON@MERCCATO.COM.BR        R MANOEL BANDEIRA                                 000530               ATAIDE                        VILA VELHA                    ES29119210BRASIL              0000002014604490000020146044902706765100015500100000201460449000000201460449ANSELMO HUDSON SIQUEIRA NASCIMENTO                                                                                                                                                                                                                                                                                                                                                                                                                                               1                                                   00000000                                                                     
DIEFANTONIO ERNESTO BARBIERI                          81809980704S000000158047000000000SSP   ES196405091M2100279973412500000000000099734125A.E.BARBIERI@GMAIL.COM        R ENGENHEIRO FBIO RUSCHI                          000145               BENTO FERREIRA                VITORIA                       ES29050670BRASIL              0000002013584120000020135841202706765100015500100000201358412000000201358412ANTONIO ERNESTO BARBIERI                                                                                                                                                                                                                                                                                                                                                                                                                                                         1                                                   00000000                                                                     
DIEFANTONIO J O D SILVA                               03059119708S000019676127500000000SSP   ES197411301M1100273134090100000000000088092979AJSILVA@LEADER.COM.BR         AV SATURNINO RANGEL MAURO                         000500               ITAPARICA                     VILA VELHA                    ES29102032BRASIL              0000002012534730000020125347302706765100015500100000201253473000000201253473ANTONIO JOSE OLIVEIRA DA SILVA                                                                                                                                                                                                                                                                                                                                                                                                                                                   1                                                   00000000                                                                     
DIEFANTONIO M G GINELLI                               05931824723S000001211091800000000SSP   ES198809061M1100273347132700000000000099428795AMG_GINELLI@HOTMAIL.COM       AV RANULPHO BARBOSA DOS SANTOS                    000150               JARDIM CAMBURI                VITORIA                       ES29090120BRASIL              0000002011476950000020114769502706765100015500100000201147695000000201147695ANTONIO MARCOS GUIMARaES GINELLI                                                                                                                                                                                                                                                                                                                                                                                                                                                 1                                                   00000000                                                                     
DIEFANTONIO PEDRO RODRIGUES                           42913047653S000001173452700000000SSP   ES196009131M1100273228203900000000000081151446ANTONIOPEDRO.COMEX@HOTMAIL.COMR SANTA TEREZINHA                                 000301               ANDRE CARLONI                 SERRA                         ES29161819BRASIL              0000002012526880000020125268802706765100015500100000201252688000000201252688ANToNIO PEDRO RODRIGUES                                                                                                                                                                                                                                                                                                                                                                                                                                                          1                                                   00000000                                                                     
DIEFARIADNA BARBOSA BRITO                             09556794786S000001172355500000000SSP   ES198301281F1100273376172000000000000097267442ARIADNABBRITO@GMAIL.COM       R VINICIUS DE MORAIS                              000299               PONTAL DE CAMBURI             VITORIA                       ES29062020BRASIL              0000002013577250000020135772502706765100015500100000201357725000000201357725ARIADNA BARBOSA BRITO                                                                                                                                                                                                                                                                                                                                                                                                                                                            1                                                   00000000                                                                     
DIEFARIANY F D SANTOS                                 11796119776S000001149294700000000SSP   ES198708261F1100273391095800000000000098361192                              R DO CANAL                                        000004               GAROTO                        VILA VELHA                    ES29120430BRASIL              0000002013562870000020135628702706765100015500100000201356287000000201356287ARIANY FERREIRA DOS SANTOS                                                                                                                                                                                                                                                                                                                                                                                                                                                       1                                                   00000000                                                                     
DIEFBRBARA CARLA KRAUSE                               13750018766S000001300891100000000SSP   ES199012041F1100273736520200000000000099456242BC.KRAUSE@HOTMAIL.COM         AVPERIMETRAL  5 ETAPA                             000000               COQUEIRAL DE ITAPARICA        VILA VELHA                    ES29102205BRASIL              0000002013586050000020135860502706765100015500100000201358605000000201358605BRBARA CARLA KRAUSE                                                                                                                                                                                                                                                                                                                                                                                                                                                              1                                                   00000000                                                                     
DIEFBRBARA HEMERLY PAIXAO                             13092584732S000000011733800000000SSP   ES198906231F1100273262517100000000000097453845BABI_PAIXAO@HOTMAIL.COM       R OZEAS SANTIAGO                                  000218               ITAPEBUSSU                    GUARAPARI                     ES29210240BRASIL              0000002013587330000020135873302706765100015500100000201358733000000201358733BRBARA HEMERLY PAIXaO                                                                                                                                                                                                                                                                                                                                                                                                                                                            1                                                   00000000                                                                     
DIEFBRBARA L L TUZUKI                                 10918743796S000001185945500000000SSP   ES198612181F1100273207328800000000000092916479BARBARA.TUZUKI@HOTMAIL.COM    R ODETTE DE OLIVEIRA LACOURT                      000361               JARDIM DA PENHA               VITORIA                       ES29060050BRASIL              0000002011469250000020114692502706765100015500100000201146925000000201146925BRBARA LOUISE LOSADA TUZUKI                                                                                                                                                                                                                                                                                                                                                                                                                                                      1                                                   00000000                                                                     
DIEFBRBARA MULINARIO FIGUEIRA                         10465305776S000010000000000000000SSP   ES198705311F1100273289969000000000000927417681BARBARA.MULINARIO@HOTMAIL.COM R ROMERO BOTELHO                                  000120               PRAIA DA COSTA                VILA VELHA                    ES29101420BRASIL              0000002013547230000020135472302706765100015500100000201354723000000201354723BRBARA MULINARIO FIGUEIRA                                                                                                                                                                                                                                                                                                                                                                                                                                                        1                                                   00000000                                                                     
DIEFBIANCA DRUMOND                                    09882035701S000001178426000000000SSP   ES198512111F1100273345205500000000000088048554BIANCADRUMOND@HOTMAIL.COM     R BRAULIO MACEDO                                  000559               ILHA DO BOI                   VITORIA                       ES29052640BRASIL              0000002013571690000020135716902706765100015500100000201357169000000201357169BIANCA DRUMOND                                                                                                                                                                                                                                                                                                                                                                                                                                                                   1                                                   00000000                                                                     
DIEFBRENO P B TEIXEIRA                                09945325710S000112828519400000000SSP   RJ198110171M1100273381352100000000000092448239BRENOPLATAIS@GMAIL.COM        R RUY PINTO BANDEIRA                              001191               JARDIM CAMBURI                VITORIA                       ES29090130BRASIL              0000002011477670000020114776702706765100015500100000201147767000000201147767BRENO PLATAIS BRASIL TEIXEIRA                                                                                                                                                                                                                                                                                                                                                                                                                                                    1                                                   00000000                                                                     
DIEFBRUNA S N D SANTOS                                11970018755S000001220403700000000SSP   ES198911021F1100273349678200000000000099410577BRUNA.SNSANTOS@GMAIL.COM      R HELSINKI                                        000041               ARACS                         VILA VELHA                    ES29103060BRASIL              0000002012537260000020125372602706765100015500100000201253726000000201253726BRUNA STEIN NEVES DOS SANTOS                                                                                                                                                                                                                                                                                                                                                                                                                                                     1                                                   00000000                                                                     
DIEFBRUNA T A CUNHA                                   04291451105S000001313682800000000SSP   DF199404101F1100273375856300000000000618295939BRUNATALBUQUERQUE@GMAIL.COM   QSB 09                                            000012               TAGUATINGA                    BRASILIA                      DF72015590BRASIL              0000002013577090000020135770902706765100015500100000201357709000000201357709BRUNA TAVARES ALBUQUERQUE CUNHA                                                                                                                                                                                                                                                                                                                                                                                                                                                  1                                                   00000000                                                                     
DIEFBRUNELLY TSCHAEN EWALD                            12547958716S000001221168200000000SSP   ES199008281F1100273249100700000000000096417631BRUNELLYEWALD@HOTMAIL.COM     TRAVESSA HUMBERTO SERRANO                         000000                                                                           ES00000000BRASIL              0000000000000000000000000000002706765100015500100000000000000000000000000000BRUNeLLY TSCHAEN EWALD                                                                                                                                                                                                                                                                                                                                                                                                                                                           1                                                   00000000                                                                     
DIEFBRUNO ANDREATTA MARINO                            08817406759S000001145078600000000SSP   ES197810111M1100273721106200000000000098560738BRUNOAMARINO@GMAIL.COM        PRACA ISIDORO BINDA                               000136               VILA NOVA                     COLATINA                      ES29702032BRASIL              0000002011449110000020114491102706765100015500100000201144911000000201144911BRUNO ANDREATTA MARINO                                                                                                                                                                                                                                                                                                                                                                                                                                                           1                                                   00000000                                                                     
DIEFBRUNO CARDOSO PORTELA                             08944797765S000000119916100000000SSP   ES198108101M1100273349301300000000000088754426BCPORTELA@YAHOO.COM.BR        R MONTEVIDEU                                      000354               ARACS                         VILA VELHA                    ES29103025BRASIL              0000002013586990000020135869902706765100015500100000201358699000000201358699BRUNO CARDOSO PORTELA                                                                                                                                                                                                                                                                                                                                                                                                                                                            1                                                   00000000                                                                     
DIEFBRUNO HOSKEN POMBO                                08254963738S000001142194600000000SSP   ES197810301M1100273229301400000000000099968900BRUNOHOSKEN@YAHOO.COM.BR      R CHAFIC MURAD                                    000170               BENTO FERREIRA                VITORIA                       ES29050660BRASIL              0000002012535530000020125355302706765100015500100000201253553000000201253553BRUNO HOSKEN POMBO                                                                                                                                                                                                                                                                                                                                                                                                                                                               1                                                   00000000                                                                     
DIEFBRUNO ROMANO BERNARDES                            37946351836S000133678015100000000SSP   ES198808041M1200273026987200000000000081068131BRUNO.BERNARDES@LBASSESSORIA.COM.BRR NATAL                                      000005               PRAIA DE ITAPOA               VILA VELHA                    ES29101800BRASIL              0000002013576130000020135761302706765100015500100000201357613000000201357613BRUNO ROMANO BERNARDES                                                                                                                                                                                                                                                                                                                                                                                                                                                           1                                                   00000000                                                                     
DIEFCAIO CESAR BERTOLI RAMOS                          12275202714S000001210177100000000SSP   ES199010221M1100273349515300000000000092310307CAIOCESAR_BR@HOTMAIL.COM      R VINTE E DOIS                                    000075               SANTA MONICA                  VILA VELHA                    ES29105420BRASIL              0000002013555990000020135559902706765100015500100000201355599000000201355599CAIO CESAR BERTOLI RAMOS                                                                                                                                                                                                                                                                                                                                                                                                                                                         1                                                   00000000                                                                     
DIEFCAIO VITOR BUENO DIAS                             11475348703S000001197946800000000SSP   ES198702041M1100273224221500000000000081629782CAIOVITORBD@YAHOO.COM.BR      R NATALINA DAHER CARNEIRO                         000045               JARDIM DA PENHA               VITORIA                       ES29060490BRASIL              0000002011474040000020114740402706765100015500100000201147404000000201147404CAIO VITOR BUENO DIAS                                                                                                                                                                                                                                                                                                                                                                                                                                                            1                                                   00000000                                                                     
DIEFCAMILA CARDOSO NASCIMENTO                         11530641705S000001221962700000000SSP   ES198605091F1100273339721200000000000009804851CAMILACN19@YAHOO.COM.BR       R CINCO  ATE 3668  LADO PAR                       000005               SANTA MONICA                  VILA VELHA                    ES29105250BRASIL              0000002013565550000020135655502706765100015500100000201356555000000201356555CAMILA CARDOSO NASCIMENTO                                                                                                                                                                                                                                                                                                                                                                                                                                                        1                                                   00000000                                                                     
DIEFCAMILA CORREA DA SILVA                            12286542716S000122406430300000000SSP   ES199108161F1100273219862300000000000997528614CAMIILA.CORREA@HOTMAIL.COM    R SESQUICENTENRIO                                 000262               NOVO MEXICO                   VILA VELHA                    ES29104050BRASIL              0000002013577210000020135772102706765100015500100000201357721000000201357721CAMILA CORReA DA SILVA                                                                                                                                                                                                                                                                                                                                                                                                                                                           1                                                   00000000                                                                     
DIEFCAMILA F L PERDIGAO                               11969672706S000001227176300000000SSP   ES198812031F1100273333362400000000000099627773CAMILALAVAGNOLI@GMAIL.COM     R RIO BRANCO                                      000340               PRAIA DA COSTA                VILA VELHA                    ES29101130BRASIL              0000002013563840000020135638402706765100015500100000201356384000000201356384CAMILA FUZATO LAVAGNOLI PERDIGaO                                                                                                                                                                                                                                                                                                                                                                                                                                                 1                                                   00000000                                                                     
DIEFCAMILLA MEDEIROS CARRETTA                         05896289766S000001208516900000000SSP   ES198903311F1100283289121400000000000098074017CAMILLACARRETTA@HOTMAIL.COM   R CURITIBA                                        000090               PRAIA DE ITAPOA               VILA VELHA                    ES29101420BRASIL              0000002013570080000020135700802706765100015500100000201357008000000201357008CAMILLA MEDEIROS CARRETTA                                                                                                                                                                                                                                                                                                                                                                                                                                                        1                                                   00000000                                                                     
DIEFCAMILLA PASSOS MARCOLLINO                         11135146713S000001206924300000000SSP   ES198709191F1100273339641600000000000099076676MILLA_PASSOS@HOTMAIL.COM      R MEXICO                                          000108               ARACS                         VILA VELHA                    ES29103075BRASIL              0000002013560520000020135605202706765100015500100000201356052000000201356052CAMILLA PASSOS MARCOLLINO                                                                                                                                                                                                                                                                                                                                                                                                                                                        1                                                   00000000                                                                     
DIEFCARINE NAIR BATISTA                               08124277770S000001157831000000000SSP   ES197906061F1100273237117400000000000099429390CARINENAIR@IG.COM.BR          R FLORENCIO BAPTISTA                              000160               JARDIM CAMBURI                VITORIA                       ES29090360BRASIL              0000002013581560000020135815602706765100015500100000201358156000000201358156CARINE NAIR BATISTA                                                                                                                                                                                                                                                                                                                                                                                                                                                              1                                                   00000000                                                                     
DIEFCARLA CREMASCO DA CRUZ                            07930603709S000001147348400000000SSP   ES197805161F1100279901443400000000000099014434CCREMASCO@HOTMAIL.COM         AV SAO PAULO                                      001800               PRAIA DA COSTA                VILA VELHA                    ES29101308BRASIL              0000002013549880000020135498802706765100015500100000201354988000000201354988CARLA CREMASCO DA CRUZ                                                                                                                                                                                                                                                                                                                                                                                                                                                           1                                                   00000000                                                                     
DIEFCARLA C D C BULIAN                                02720551660S000001573779100000000SSP   MG197206261F1100273299073700000000000099425612CARLABULIAN@UOL.COM.BR        AV ANTONIO GIL VELOSO                             001590               PRAIA DA COSTA                VILA VELHA                    ES29101011BRASIL              0000002012509120000020125091202706765100015500100000201250912000000201250912CARLA CRISTIANA DE CASTRO BULIAN                                                                                                                                                                                                                                                                                                                                                                                                                                                 1                                                   00000000                                                                     
DIEFCARLOS A R Z JUNIOR                               09964644760S000001178866400000000SSP   ES198410261M1100273063230900000000000098828146CAZEFERINO@GMAIL.COM          R LESTE                                           000116               ATAIDE                        VILA VELHA                    ES29119090BRASIL              0000002013571480000020135714802706765100015500100000201357148000000201357148CARLOS ALBERTO ROCHA ZEFERINO JUNIOR                                                                                                                                                                                                                                                                                                                                                                                                                                             1                                                   00000000                                                                     
DIEFCARLOS FONSECA AMARAL                             12436537798S000001232424000000000SSP   ES198802281M1100279821280200000000000000000000CFAMARAL28@GMAIL.COM          R DR MOACYR GONCALVES                             000766               JARDIM DA PENHA               VITORIA                       ES29060445BRASIL              0000002013567180000020135671802706765100015500100000201356718000000201356718CARLOS FONSECA AMARAL                                                                                                                                                                                                                                                                                                                                                                                                                                                            1                                                   00000000                                                                     
DIEFCARLOS G C PUPPIN                                 00777461714S000010000000000000000SSP   ES196501241M1100273299389400000000000099897243CARLOS.PUPPIN@UVV.BR          AV ANTONIO GIL VELOSO                             001598               PRAIA DA COSTA                VITORIA                       ES29101011BRASIL              0000002012510410000020125104102706765100015500100000201251041000000201251041CARLOS GUSTAVO CAMARA PUPPIN                                                                                                                                                                                                                                                                                                                                                                                                                                                     1                                                   00000000                                                                     
DIEFCARLOS MOACIR COLODETE                            07251921782S000001124813500000000SSP   ES197804041M2100273542475300000000000099150122CARLOSCOLODETE@GMAIL.COM      R ROSA AMBROSIM                                   000027               SANTO AGOSTINHO               CASTELO                       ES29360000BRASIL              0000002014604440000020146044402706765100015500100000201460444000000201460444CARLOS MOACIR COLODETE                                                                                                                                                                                                                                                                                                                                                                                                                                                           1                                                   00000000                                                                     
DIEFCAROLINA DVILA POSSATTI                           13125406722S000001301232000000000SSP   ES199008251F1100279827970100000000000099467308CAROL_POSSATTI@HOTMAIL.COM    R DOUTOR ANNOR DA SILVA                           000605               BOA VISTA I                   VILA VELHA                    ES29102606BRASIL              0000002013566510000020135665102706765100015500100000201356651000000201356651CAROLINA DVILA POSSATTI                                                                                                                                                                                                                                                                                                                                                                                                                                                          1                                                   00000000                                                                     
DIEFCAROLINA M BIASUTTI                               03292475570S001131573691800000000SSP   ES198906061F1100273025243100000000000097189579CAROLBIASUTTI@GMAILL.COM      JOAO BATISTA PARRA                                000713               PRAIA DO SUA                  VITORIA                       ES29052123BRASIL              0000002013565610000020135656102706765100015500100000201356561000000201356561CAROLINA MONTEIRO BIASUTTI                                                                                                                                                                                                                                                                                                                                                                                                                                                       1                                                   00000000                                                                     
DIEFCAROLINE WEBER SANTOS                             81476868034S001128179280500000000SSP   ES198003141F1100273073373400000000000081343402CAROLINEWEBER.ADV@GMAIL.COM   AV SAO PAULO                                      002955               PRAIA DE ITAPOA               VILA VELHA                    ES29101512BRASIL              0000002011449710000020114497102706765100015500100000201144971000000201144971CAROLINE WEBER SANTOS                                                                                                                                                                                                                                                                                                                                                                                                                                                            1                                                   00000000                                                                     
DIEFCTIA VITTORAZZI                                   13226104799S000001310717900000000SSP   ES199107101F1100278851373500000000000000000000CACA_VITTORAZZI@HOTMAIL.COM   R CRUBIX                                          000023               VILA GARRIDO                  VILA VELHA                    ES29116440BRASIL              0000002013568620000020135686202706765100015500100000201356862000000201356862CTIA VITTORAZZI                                                                                                                                                                                                                                                                                                                                                                                                                                                                  1                                                   00000000                                                                     
DIEFCELIO MOREIRA LOPES                               11941831745S000001220084200000000SSP   ES199001171M1100279936884000000000000999368840CELIOMLOPES@HOTMAIL.COM       R GETULIO MIRANDA                                 000211               SANTA MARTHA                  VITORIA                       ES29046680BRASIL              0000002014611010000020146110102706765100015500100000201461101000000201461101CELIO MOREIRA LOPES                                                                                                                                                                                                                                                                                                                                                                                                                                                              1                                                   00000000                                                                     
DIEFCELSO PEREIRA SOUZA                               04610613760S000001132232700000000SSP   ES197612191M1100273333377000000000000099057908CELSON_JN@HOTMAIL.COM         AV DOUTOR HERWAN MODENESI WANDERLEY               000804               JARDIM CAMBURI                VITORIA                       ES00000000BRASIL              0000002013584440000020135844402706765100015500100000201358444000000201358444CELSO PEREIRA SOUZA                                                                                                                                                                                                                                                                                                                                                                                                                                                              1                                                   00000000                                                                     
DIEFCESAR ABEL KROHLING                               84438355753S000001170778000000000SSP   MG196112221M1100273288321000000000000098310248CESAR.KRO@HOTMAIL.COM         RODOVIA FRANCISCO STOCKL  KM 3                    000000                                                                           ES00000000BRASIL              0000000000000000000000000000002706765100015500100000000000000000000000000000CESAR ABEL KROHLING                                                                                                                                                                                                                                                                                                                                                                                                                                                              1                                                   00000000                                                                     
DIEFCESAR AUGUSTO DIAS                                04208296798S001283936146200000000SSP   ES197708021M1100279948811900000000000098573612CESARAUGUSTO.NET@HOTMAIL.COM  R JOSE CELSO CLUDIO                               000843               PRAIA DAS GAIVOTAS            VILA VELHA                    ES29102588BRASIL              0000002013586680000020135866802706765100015500100000201358668000000201358668CeSAR AUGUSTO DIAS                                                                                                                                                                                                                                                                                                                                                                                                                                                               1                                                   00000000                                                                     
DIEFCESMAR DE SOUZA CARDOSO                           05254156708S000001146160100000000SSP   ES198104101M1100273389105500000000000081319015CESMAR@POP.COM.BR             R ROSA VERMELHA                                   000074               NOVO MEXICO                   VILA VELHA                    ES29104030BRASIL              0000002012536830000020125368302706765100015500100000201253683000000201253683CESMAR DE SOUZA CARDOSO                                                                                                                                                                                                                                                                                                                                                                                                                                                          1                                                   00000000                                                                     
DIEFCHARLIS RENATO MONHOL                             06853174712S000001130311100000000SSP   ES197506201M1100279255870200000000000092558702CHARLIS.MONHOL@EL.COM.BR      AV KOEHLER                                        000210               CENTRO                        DOMINGOS MARTINS              ES29260000BRASIL              0000002013577040000020135770402706765100015500100000201357704000000201357704CHARLIS RENATO MONHOL                                                                                                                                                                                                                                                                                                                                                                                                                                                            1                                                   00000000                                                                     
DIEFCHRISTIANE FESTA PERDIGAO                         91312590734S000000001759900000000SSP   ES196206261F1100273434620000000000000099555983CHRISTIANE.PERDIGAO@DOCTUM.EDU.BRAV PAULO PEREIRA GOMES                         000091               MORADA DE LARANJEIRAS         SERRA                         ES29166828BRASIL              0000002014612140000020146121402706765100015500100000201461214000000201461214CHRISTIANE FESTA PERDIGaO                                                                                                                                                                                                                                                                                                                                                                                                                                                        1                                                   00000000                                                                     
DIEFCHRISTIANY A RONCETI                              09889951746S000001187807700000000SSP   ES198410171F1100273252343700000000000099785363CHRISRONCETI@HOTMAIL.COM      R DIACUI                                          000414               JACARAIPE                     SERRA                         ES29173560BRASIL              0000002013558930000020135589302706765100015500100000201355893000000201355893CHRISTIANY AVANCINI RONCETI                                                                                                                                                                                                                                                                                                                                                                                                                                                      1                                                   00000000                                                                     
DIEFCHRISTOPHER LUZ BRUNORO                           12453468731S000001186903500000000SSP   ES198904281M1200273229953900000000000099833533DIN_684@HOTMAIL.COM           R THOMAS ANTONIO GONZAGA                          000370               CRISTOVAO COLOMBO             VILA VELHA                    ES29106450BRASIL              0000002013569970000020135699702706765100015500100000201356997000000201356997CHRISTOPHER LUZ BRUNORO                                                                                                                                                                                                                                                                                                                                                                                                                                                          1                                                   00000000                                                                     
